{
  "contractName": "Boardroom",
  "abi": [
    {
      "inputs": [
        {
          "internalType": "contract IERC20",
          "name": "_cash",
          "type": "address"
        },
        {
          "internalType": "contract IERC20",
          "name": "_share",
          "type": "address"
        }
      ],
      "stateMutability": "nonpayable",
      "type": "constructor"
    },
    {
      "anonymous": false,
      "inputs": [
        {
          "indexed": true,
          "internalType": "address",
          "name": "previousOperator",
          "type": "address"
        },
        {
          "indexed": true,
          "internalType": "address",
          "name": "newOperator",
          "type": "address"
        }
      ],
      "name": "OperatorTransferred",
      "type": "event"
    },
    {
      "anonymous": false,
      "inputs": [
        {
          "indexed": true,
          "internalType": "address",
          "name": "previousOwner",
          "type": "address"
        },
        {
          "indexed": true,
          "internalType": "address",
          "name": "newOwner",
          "type": "address"
        }
      ],
      "name": "OwnershipTransferred",
      "type": "event"
    },
    {
      "anonymous": false,
      "inputs": [
        {
          "indexed": true,
          "internalType": "address",
          "name": "user",
          "type": "address"
        },
        {
          "indexed": false,
          "internalType": "uint256",
          "name": "reward",
          "type": "uint256"
        }
      ],
      "name": "RewardAdded",
      "type": "event"
    },
    {
      "anonymous": false,
      "inputs": [
        {
          "indexed": true,
          "internalType": "address",
          "name": "user",
          "type": "address"
        },
        {
          "indexed": false,
          "internalType": "uint256",
          "name": "reward",
          "type": "uint256"
        }
      ],
      "name": "RewardPaid",
      "type": "event"
    },
    {
      "anonymous": false,
      "inputs": [
        {
          "indexed": true,
          "internalType": "address",
          "name": "user",
          "type": "address"
        },
        {
          "indexed": false,
          "internalType": "uint256",
          "name": "amount",
          "type": "uint256"
        }
      ],
      "name": "Staked",
      "type": "event"
    },
    {
      "anonymous": false,
      "inputs": [
        {
          "indexed": true,
          "internalType": "address",
          "name": "user",
          "type": "address"
        },
        {
          "indexed": false,
          "internalType": "uint256",
          "name": "amount",
          "type": "uint256"
        }
      ],
      "name": "Withdrawn",
      "type": "event"
    },
    {
      "inputs": [
        {
          "internalType": "address",
          "name": "account",
          "type": "address"
        }
      ],
      "name": "balanceOf",
      "outputs": [
        {
          "internalType": "uint256",
          "name": "",
          "type": "uint256"
        }
      ],
      "stateMutability": "view",
      "type": "function",
      "constant": true
    },
    {
      "inputs": [],
      "name": "isOperator",
      "outputs": [
        {
          "internalType": "bool",
          "name": "",
          "type": "bool"
        }
      ],
      "stateMutability": "view",
      "type": "function",
      "constant": true
    },
    {
      "inputs": [],
      "name": "operator",
      "outputs": [
        {
          "internalType": "address",
          "name": "",
          "type": "address"
        }
      ],
      "stateMutability": "view",
      "type": "function",
      "constant": true
    },
    {
      "inputs": [],
      "name": "owner",
      "outputs": [
        {
          "internalType": "address",
          "name": "",
          "type": "address"
        }
      ],
      "stateMutability": "view",
      "type": "function",
      "constant": true
    },
    {
      "inputs": [],
      "name": "renounceOwnership",
      "outputs": [],
      "stateMutability": "nonpayable",
      "type": "function"
    },
    {
      "inputs": [],
      "name": "share",
      "outputs": [
        {
          "internalType": "contract IERC20",
          "name": "",
          "type": "address"
        }
      ],
      "stateMutability": "view",
      "type": "function",
      "constant": true
    },
    {
      "inputs": [],
      "name": "totalSupply",
      "outputs": [
        {
          "internalType": "uint256",
          "name": "",
          "type": "uint256"
        }
      ],
      "stateMutability": "view",
      "type": "function",
      "constant": true
    },
    {
      "inputs": [
        {
          "internalType": "address",
          "name": "newOperator_",
          "type": "address"
        }
      ],
      "name": "transferOperator",
      "outputs": [],
      "stateMutability": "nonpayable",
      "type": "function"
    },
    {
      "inputs": [
        {
          "internalType": "address",
          "name": "newOwner",
          "type": "address"
        }
      ],
      "name": "transferOwnership",
      "outputs": [],
      "stateMutability": "nonpayable",
      "type": "function"
    },
    {
      "inputs": [],
      "name": "latestSnapshotIndex",
      "outputs": [
        {
          "internalType": "uint256",
          "name": "",
          "type": "uint256"
        }
      ],
      "stateMutability": "view",
      "type": "function",
      "constant": true
    },
    {
      "inputs": [
        {
          "internalType": "address",
          "name": "director",
          "type": "address"
        }
      ],
      "name": "getLastSnapshotIndexOf",
      "outputs": [
        {
          "internalType": "uint256",
          "name": "",
          "type": "uint256"
        }
      ],
      "stateMutability": "view",
      "type": "function",
      "constant": true
    },
    {
      "inputs": [],
      "name": "rewardPerShare",
      "outputs": [
        {
          "internalType": "uint256",
          "name": "",
          "type": "uint256"
        }
      ],
      "stateMutability": "view",
      "type": "function",
      "constant": true
    },
    {
      "inputs": [
        {
          "internalType": "address",
          "name": "director",
          "type": "address"
        }
      ],
      "name": "earned",
      "outputs": [
        {
          "internalType": "uint256",
          "name": "",
          "type": "uint256"
        }
      ],
      "stateMutability": "view",
      "type": "function",
      "constant": true
    },
    {
      "inputs": [
        {
          "internalType": "uint256",
          "name": "amount",
          "type": "uint256"
        }
      ],
      "name": "stake",
      "outputs": [],
      "stateMutability": "nonpayable",
      "type": "function"
    },
    {
      "inputs": [
        {
          "internalType": "uint256",
          "name": "amount",
          "type": "uint256"
        }
      ],
      "name": "withdraw",
      "outputs": [],
      "stateMutability": "nonpayable",
      "type": "function"
    },
    {
      "inputs": [],
      "name": "exit",
      "outputs": [],
      "stateMutability": "nonpayable",
      "type": "function"
    },
    {
      "inputs": [],
      "name": "claimReward",
      "outputs": [],
      "stateMutability": "nonpayable",
      "type": "function"
    },
    {
      "inputs": [
        {
          "internalType": "uint256",
          "name": "amount",
          "type": "uint256"
        }
      ],
      "name": "allocateSeigniorage",
      "outputs": [],
      "stateMutability": "nonpayable",
      "type": "function"
    }
  ],
  "bytecode": "0x60806040523480156200001157600080fd5b5060405162002b1c38038062002b1c833981810160405260408110156200003757600080fd5b810190808051906020019092919080519060200190929190505050600062000064620002cf60201b60201c565b905080600460006101000a81548173ffffffffffffffffffffffffffffffffffffffff021916908373ffffffffffffffffffffffffffffffffffffffff1602179055508073ffffffffffffffffffffffffffffffffffffffff16600073ffffffffffffffffffffffffffffffffffffffff167f8be0079c531659141344cd1fd0a4f28419497f9722a3daafe3b4186f6b6457e060405160405180910390a35062000113620002cf60201b60201c565b600560006101000a81548173ffffffffffffffffffffffffffffffffffffffff021916908373ffffffffffffffffffffffffffffffffffffffff160217905550600560009054906101000a900473ffffffffffffffffffffffffffffffffffffffff1673ffffffffffffffffffffffffffffffffffffffff16600073ffffffffffffffffffffffffffffffffffffffff167f74da04524d50c64947f5dd5381ef1a4dca5cba8ed1d816243f9e48aa0b5617ed60405160405180910390a381600660006101000a81548173ffffffffffffffffffffffffffffffffffffffff021916908373ffffffffffffffffffffffffffffffffffffffff160217905550806000806101000a81548173ffffffffffffffffffffffffffffffffffffffff021916908373ffffffffffffffffffffffffffffffffffffffff1602179055506200025b620002d7565b6040518060600160405280438152602001600081526020016000815250905060088190806001815401808255809150506001900390600052602060002090600302016000909190919091506000820151816000015560208201518160010155604082015181600201555050505050620002f8565b600033905090565b60405180606001604052806000815260200160008152602001600081525090565b61281480620003086000396000f3fe608060405234801561001057600080fd5b50600436106101155760003560e01c8063714b4658116100a2578063a694fc3a11610071578063a694fc3a146103ae578063a8d5fd65146103dc578063b88a802f14610410578063e9fad8ee1461041a578063f2fde38b1461042457610115565b8063714b4658146102ea578063715018a6146103425780638da5cb5b1461034c57806397ffe1d71461038057610115565b80633f9e3f04116100e95780633f9e3f04146102025780634456eda214610220578063446a2ec814610240578063570ca7351461025e57806370a082311461029257610115565b80628cc2621461011a57806318160ddd1461017257806329605e77146101905780632e1a7d4d146101d4575b600080fd5b61015c6004803603602081101561013057600080fd5b81019080803573ffffffffffffffffffffffffffffffffffffffff169060200190929190505050610468565b6040518082815260200191505060405180910390f35b61017a61052e565b6040518082815260200191505060405180910390f35b6101d2600480360360208110156101a657600080fd5b81019080803573ffffffffffffffffffffffffffffffffffffffff169060200190929190505050610538565b005b610200600480360360208110156101ea57600080fd5b810190808035906020019092919050505061060e565b005b61020a6109e7565b6040518082815260200191505060405180910390f35b610228610a07565b60405180821515815260200191505060405180910390f35b610248610a66565b6040518082815260200191505060405180910390f35b610266610a79565b604051808273ffffffffffffffffffffffffffffffffffffffff16815260200191505060405180910390f35b6102d4600480360360208110156102a857600080fd5b81019080803573ffffffffffffffffffffffffffffffffffffffff169060200190929190505050610aa3565b6040518082815260200191505060405180910390f35b61032c6004803603602081101561030057600080fd5b81019080803573ffffffffffffffffffffffffffffffffffffffff169060200190929190505050610aec565b6040518082815260200191505060405180910390f35b61034a610b38565b005b610354610cc3565b604051808273ffffffffffffffffffffffffffffffffffffffff16815260200191505060405180910390f35b6103ac6004803603602081101561039657600080fd5b8101908080359060200190929190505050610ced565b005b6103da600480360360208110156103c457600080fd5b8101908080359060200190929190505050611165565b005b6103e46114dd565b604051808273ffffffffffffffffffffffffffffffffffffffff16815260200191505060405180910390f35b610418611501565b005b610422611752565b005b6104666004803603602081101561043a57600080fd5b81019080803573ffffffffffffffffffffffffffffffffffffffff16906020019092919050505061176d565b005b60008061047361197d565b6040015190506000610484846119d5565b604001519050610525600760008673ffffffffffffffffffffffffffffffffffffffff1673ffffffffffffffffffffffffffffffffffffffff16815260200190815260200160002060010154610517670de0b6b3a76400006105096104f28688611a3090919063ffffffff16565b6104fb8a610aa3565b611a7a90919063ffffffff16565b611b0090919063ffffffff16565b611b4a90919063ffffffff16565b92505050919050565b6000600154905090565b610540611bd2565b73ffffffffffffffffffffffffffffffffffffffff16600460009054906101000a900473ffffffffffffffffffffffffffffffffffffffff1673ffffffffffffffffffffffffffffffffffffffff1614610602576040517f08c379a00000000000000000000000000000000000000000000000000000000081526004018080602001828103825260208152602001807f4f776e61626c653a2063616c6c6572206973206e6f7420746865206f776e657281525060200191505060405180910390fd5b61060b81611bda565b50565b610616611cff565b1561066c576040517f08c379a00000000000000000000000000000000000000000000000000000000081526004018080602001828103825260268152602001806127836026913960400191505060405180910390fd5b610674611d64565b156106ca576040517f08c379a00000000000000000000000000000000000000000000000000000000081526004018080602001828103825260268152602001806127836026913960400191505060405180910390fd5b60006106d533610aa3565b1161072b576040517f08c379a00000000000000000000000000000000000000000000000000000000081526004018080602001828103825260268152602001806127336026913960400191505060405180910390fd5b33600073ffffffffffffffffffffffffffffffffffffffff168173ffffffffffffffffffffffffffffffffffffffff16146108445761076861262f565b600760008373ffffffffffffffffffffffffffffffffffffffff1673ffffffffffffffffffffffffffffffffffffffff1681526020019081526020016000206040518060400160405290816000820154815260200160018201548152505090506107d182610468565b8160200181815250506107e26109e7565b81600001818152505080600760008473ffffffffffffffffffffffffffffffffffffffff1673ffffffffffffffffffffffffffffffffffffffff1681526020019081526020016000206000820151816000015560208201518160010155905050505b600082116108ba576040517f08c379a000000000000000000000000000000000000000000000000000000000815260040180806020018281038252601c8152602001807f426f617264726f6f6d3a2043616e6e6f7420776974686472617720300000000081525060200191505060405180910390fd5b6108c382611dc9565b3373ffffffffffffffffffffffffffffffffffffffff167f7084f5476618d8e60b11ef0d7d3f06914655adb8793e28ff7f018d4c76d505d5836040518082815260200191505060405180910390a25060016003600043815260200190815260200160002060003273ffffffffffffffffffffffffffffffffffffffff1673ffffffffffffffffffffffffffffffffffffffff16815260200190815260200160002060006101000a81548160ff02191690831515021790555060016003600043815260200190815260200160002060003373ffffffffffffffffffffffffffffffffffffffff1673ffffffffffffffffffffffffffffffffffffffff16815260200190815260200160002060006101000a81548160ff02191690831515021790555050565b6000610a026001600880549050611a3090919063ffffffff16565b905090565b6000600560009054906101000a900473ffffffffffffffffffffffffffffffffffffffff1673ffffffffffffffffffffffffffffffffffffffff16610a4a611bd2565b73ffffffffffffffffffffffffffffffffffffffff1614905090565b6000610a7061197d565b60400151905090565b6000600560009054906101000a900473ffffffffffffffffffffffffffffffffffffffff16905090565b6000600260008373ffffffffffffffffffffffffffffffffffffffff1673ffffffffffffffffffffffffffffffffffffffff168152602001908152602001600020549050919050565b6000600760008373ffffffffffffffffffffffffffffffffffffffff1673ffffffffffffffffffffffffffffffffffffffff168152602001908152602001600020600001549050919050565b610b40611bd2565b73ffffffffffffffffffffffffffffffffffffffff16600460009054906101000a900473ffffffffffffffffffffffffffffffffffffffff1673ffffffffffffffffffffffffffffffffffffffff1614610c02576040517f08c379a00000000000000000000000000000000000000000000000000000000081526004018080602001828103825260208152602001807f4f776e61626c653a2063616c6c6572206973206e6f7420746865206f776e657281525060200191505060405180910390fd5b600073ffffffffffffffffffffffffffffffffffffffff16600460009054906101000a900473ffffffffffffffffffffffffffffffffffffffff1673ffffffffffffffffffffffffffffffffffffffff167f8be0079c531659141344cd1fd0a4f28419497f9722a3daafe3b4186f6b6457e060405160405180910390a36000600460006101000a81548173ffffffffffffffffffffffffffffffffffffffff021916908373ffffffffffffffffffffffffffffffffffffffff160217905550565b6000600460009054906101000a900473ffffffffffffffffffffffffffffffffffffffff16905090565b610cf5611cff565b15610d4b576040517f08c379a00000000000000000000000000000000000000000000000000000000081526004018080602001828103825260268152602001806127836026913960400191505060405180910390fd5b610d53611d64565b15610da9576040517f08c379a00000000000000000000000000000000000000000000000000000000081526004018080602001828103825260268152602001806127836026913960400191505060405180910390fd5b3373ffffffffffffffffffffffffffffffffffffffff16600560009054906101000a900473ffffffffffffffffffffffffffffffffffffffff1673ffffffffffffffffffffffffffffffffffffffff1614610e4f576040517f08c379a000000000000000000000000000000000000000000000000000000000815260040180806020018281038252602481526020018061270f6024913960400191505060405180910390fd5b60008111610ec5576040517f08c379a000000000000000000000000000000000000000000000000000000000815260040180806020018281038252601c8152602001807f426f617264726f6f6d3a2043616e6e6f7420616c6c6f6361746520300000000081525060200191505060405180910390fd5b6000610ecf61052e565b11610f25576040517f08c379a00000000000000000000000000000000000000000000000000000000081526004018080602001828103825260308152602001806126be6030913960400191505060405180910390fd5b6000610f2f61197d565b6040015190506000610f7d610f6e610f4561052e565b610f60670de0b6b3a764000087611a7a90919063ffffffff16565b611b0090919063ffffffff16565b83611b4a90919063ffffffff16565b9050610f87612649565b60405180606001604052804381526020018581526020018381525090506008819080600181540180825580915050600190039060005260206000209060030201600090919091909150600082015181600001556020820151816001015560408201518160020155505061103f333086600660009054906101000a900473ffffffffffffffffffffffffffffffffffffffff1673ffffffffffffffffffffffffffffffffffffffff16611f26909392919063ffffffff16565b3373ffffffffffffffffffffffffffffffffffffffff167fac24935fd910bc682b5ccb1a07b718cadf8cf2f6d1404c4f3ddc3662dae40e29856040518082815260200191505060405180910390a250505060016003600043815260200190815260200160002060003273ffffffffffffffffffffffffffffffffffffffff1673ffffffffffffffffffffffffffffffffffffffff16815260200190815260200160002060006101000a81548160ff02191690831515021790555060016003600043815260200190815260200160002060003373ffffffffffffffffffffffffffffffffffffffff1673ffffffffffffffffffffffffffffffffffffffff16815260200190815260200160002060006101000a81548160ff02191690831515021790555050565b61116d611cff565b156111c3576040517f08c379a00000000000000000000000000000000000000000000000000000000081526004018080602001828103825260268152602001806127836026913960400191505060405180910390fd5b6111cb611d64565b15611221576040517f08c379a00000000000000000000000000000000000000000000000000000000081526004018080602001828103825260268152602001806127836026913960400191505060405180910390fd5b33600073ffffffffffffffffffffffffffffffffffffffff168173ffffffffffffffffffffffffffffffffffffffff161461133a5761125e61262f565b600760008373ffffffffffffffffffffffffffffffffffffffff1673ffffffffffffffffffffffffffffffffffffffff1681526020019081526020016000206040518060400160405290816000820154815260200160018201548152505090506112c782610468565b8160200181815250506112d86109e7565b81600001818152505080600760008473ffffffffffffffffffffffffffffffffffffffff1673ffffffffffffffffffffffffffffffffffffffff1681526020019081526020016000206000820151816000015560208201518160010155905050505b600082116113b0576040517f08c379a00000000000000000000000000000000000000000000000000000000081526004018080602001828103825260198152602001807f426f617264726f6f6d3a2043616e6e6f74207374616b6520300000000000000081525060200191505060405180910390fd5b6113b982611fe7565b3373ffffffffffffffffffffffffffffffffffffffff167f9e71bc8eea02a63969f509818f2dafb9254532904319f9dbda79b67bd34a5f3d836040518082815260200191505060405180910390a25060016003600043815260200190815260200160002060003273ffffffffffffffffffffffffffffffffffffffff1673ffffffffffffffffffffffffffffffffffffffff16815260200190815260200160002060006101000a81548160ff02191690831515021790555060016003600043815260200190815260200160002060003373ffffffffffffffffffffffffffffffffffffffff1673ffffffffffffffffffffffffffffffffffffffff16815260200190815260200160002060006101000a81548160ff02191690831515021790555050565b60008054906101000a900473ffffffffffffffffffffffffffffffffffffffff1681565b33600073ffffffffffffffffffffffffffffffffffffffff168173ffffffffffffffffffffffffffffffffffffffff161461161a5761153e61262f565b600760008373ffffffffffffffffffffffffffffffffffffffff1673ffffffffffffffffffffffffffffffffffffffff1681526020019081526020016000206040518060400160405290816000820154815260200160018201548152505090506115a782610468565b8160200181815250506115b86109e7565b81600001818152505080600760008473ffffffffffffffffffffffffffffffffffffffff1673ffffffffffffffffffffffffffffffffffffffff1681526020019081526020016000206000820151816000015560208201518160010155905050505b6000600760003373ffffffffffffffffffffffffffffffffffffffff1673ffffffffffffffffffffffffffffffffffffffff168152602001908152602001600020600101549050600081111561174e576000600760003373ffffffffffffffffffffffffffffffffffffffff1673ffffffffffffffffffffffffffffffffffffffff168152602001908152602001600020600101819055506116ff3382600660009054906101000a900473ffffffffffffffffffffffffffffffffffffffff1673ffffffffffffffffffffffffffffffffffffffff166120e79092919063ffffffff16565b3373ffffffffffffffffffffffffffffffffffffffff167fe2403640ba68fed3a2f88b7557551d1993f84b99bb10ff833f0cf8db0c5e0486826040518082815260200191505060405180910390a25b5050565b61176361175e33610aa3565b61060e565b61176b611501565b565b611775611bd2565b73ffffffffffffffffffffffffffffffffffffffff16600460009054906101000a900473ffffffffffffffffffffffffffffffffffffffff1673ffffffffffffffffffffffffffffffffffffffff1614611837576040517f08c379a00000000000000000000000000000000000000000000000000000000081526004018080602001828103825260208152602001807f4f776e61626c653a2063616c6c6572206973206e6f7420746865206f776e657281525060200191505060405180910390fd5b600073ffffffffffffffffffffffffffffffffffffffff168173ffffffffffffffffffffffffffffffffffffffff1614156118bd576040517f08c379a000000000000000000000000000000000000000000000000000000000815260040180806020018281038252602681526020018061266b6026913960400191505060405180910390fd5b8073ffffffffffffffffffffffffffffffffffffffff16600460009054906101000a900473ffffffffffffffffffffffffffffffffffffffff1673ffffffffffffffffffffffffffffffffffffffff167f8be0079c531659141344cd1fd0a4f28419497f9722a3daafe3b4186f6b6457e060405160405180910390a380600460006101000a81548173ffffffffffffffffffffffffffffffffffffffff021916908373ffffffffffffffffffffffffffffffffffffffff16021790555050565b611985612649565b600861198f6109e7565b8154811061199957fe5b90600052602060002090600302016040518060600160405290816000820154815260200160018201548152602001600282015481525050905090565b6119dd612649565b60086119e883610aec565b815481106119f257fe5b906000526020600020906003020160405180606001604052908160008201548152602001600182015481526020016002820154815250509050919050565b6000611a7283836040518060400160405280601e81526020017f536166654d6174683a207375627472616374696f6e206f766572666c6f770000815250612189565b905092915050565b600080831415611a8d5760009050611afa565b6000828402905082848281611a9e57fe5b0414611af5576040517f08c379a00000000000000000000000000000000000000000000000000000000081526004018080602001828103825260218152602001806126ee6021913960400191505060405180910390fd5b809150505b92915050565b6000611b4283836040518060400160405280601a81526020017f536166654d6174683a206469766973696f6e206279207a65726f000000000000815250612249565b905092915050565b600080828401905083811015611bc8576040517f08c379a000000000000000000000000000000000000000000000000000000000815260040180806020018281038252601b8152602001807f536166654d6174683a206164646974696f6e206f766572666c6f77000000000081525060200191505060405180910390fd5b8091505092915050565b600033905090565b600073ffffffffffffffffffffffffffffffffffffffff168173ffffffffffffffffffffffffffffffffffffffff161415611c60576040517f08c379a000000000000000000000000000000000000000000000000000000000815260040180806020018281038252602d815260200180612691602d913960400191505060405180910390fd5b8073ffffffffffffffffffffffffffffffffffffffff16600073ffffffffffffffffffffffffffffffffffffffff167f74da04524d50c64947f5dd5381ef1a4dca5cba8ed1d816243f9e48aa0b5617ed60405160405180910390a380600560006101000a81548173ffffffffffffffffffffffffffffffffffffffff021916908373ffffffffffffffffffffffffffffffffffffffff16021790555050565b60006003600043815260200190815260200160002060003273ffffffffffffffffffffffffffffffffffffffff1673ffffffffffffffffffffffffffffffffffffffff16815260200190815260200160002060009054906101000a900460ff16905090565b60006003600043815260200190815260200160002060003373ffffffffffffffffffffffffffffffffffffffff1673ffffffffffffffffffffffffffffffffffffffff16815260200190815260200160002060009054906101000a900460ff16905090565b6000600260003373ffffffffffffffffffffffffffffffffffffffff1673ffffffffffffffffffffffffffffffffffffffff16815260200190815260200160002054905081811015611e66576040517f08c379a00000000000000000000000000000000000000000000000000000000081526004018080602001828103825260368152602001806127a96036913960400191505060405180910390fd5b611e7b82600154611a3090919063ffffffff16565b600181905550611e948282611a3090919063ffffffff16565b600260003373ffffffffffffffffffffffffffffffffffffffff1673ffffffffffffffffffffffffffffffffffffffff16815260200190815260200160002081905550611f22338360008054906101000a900473ffffffffffffffffffffffffffffffffffffffff1673ffffffffffffffffffffffffffffffffffffffff166120e79092919063ffffffff16565b5050565b611fe1846323b872dd60e01b858585604051602401808473ffffffffffffffffffffffffffffffffffffffff1681526020018373ffffffffffffffffffffffffffffffffffffffff1681526020018281526020019350505050604051602081830303815290604052907bffffffffffffffffffffffffffffffffffffffffffffffffffffffff19166020820180517bffffffffffffffffffffffffffffffffffffffffffffffffffffffff838183161783525050505061230f565b50505050565b611ffc81600154611b4a90919063ffffffff16565b60018190555061205481600260003373ffffffffffffffffffffffffffffffffffffffff1673ffffffffffffffffffffffffffffffffffffffff16815260200190815260200160002054611b4a90919063ffffffff16565b600260003373ffffffffffffffffffffffffffffffffffffffff1673ffffffffffffffffffffffffffffffffffffffff168152602001908152602001600020819055506120e433308360008054906101000a900473ffffffffffffffffffffffffffffffffffffffff1673ffffffffffffffffffffffffffffffffffffffff16611f26909392919063ffffffff16565b50565b6121848363a9059cbb60e01b8484604051602401808373ffffffffffffffffffffffffffffffffffffffff16815260200182815260200192505050604051602081830303815290604052907bffffffffffffffffffffffffffffffffffffffffffffffffffffffff19166020820180517bffffffffffffffffffffffffffffffffffffffffffffffffffffffff838183161783525050505061230f565b505050565b6000838311158290612236576040517f08c379a00000000000000000000000000000000000000000000000000000000081526004018080602001828103825283818151815260200191508051906020019080838360005b838110156121fb5780820151818401526020810190506121e0565b50505050905090810190601f1680156122285780820380516001836020036101000a031916815260200191505b509250505060405180910390fd5b5060008385039050809150509392505050565b600080831182906122f5576040517f08c379a00000000000000000000000000000000000000000000000000000000081526004018080602001828103825283818151815260200191508051906020019080838360005b838110156122ba57808201518184015260208101905061229f565b50505050905090810190601f1680156122e75780820380516001836020036101000a031916815260200191505b509250505060405180910390fd5b50600083858161230157fe5b049050809150509392505050565b6060612371826040518060400160405280602081526020017f5361666545524332303a206c6f772d6c6576656c2063616c6c206661696c65648152508573ffffffffffffffffffffffffffffffffffffffff166123fe9092919063ffffffff16565b90506000815111156123f95780806020019051602081101561239257600080fd5b81019080805190602001909291905050506123f8576040517f08c379a000000000000000000000000000000000000000000000000000000000815260040180806020018281038252602a815260200180612759602a913960400191505060405180910390fd5b5b505050565b606061240d8484600085612416565b90509392505050565b60606124218561261c565b612493576040517f08c379a000000000000000000000000000000000000000000000000000000000815260040180806020018281038252601d8152602001807f416464726573733a2063616c6c20746f206e6f6e2d636f6e747261637400000081525060200191505060405180910390fd5b600060608673ffffffffffffffffffffffffffffffffffffffff1685876040518082805190602001908083835b602083106124e357805182526020820191506020810190506020830392506124c0565b6001836020036101000a03801982511681845116808217855250505050505090500191505060006040518083038185875af1925050503d8060008114612545576040519150601f19603f3d011682016040523d82523d6000602084013e61254a565b606091505b5091509150811561255f578092505050612614565b6000815111156125725780518082602001fd5b836040517f08c379a00000000000000000000000000000000000000000000000000000000081526004018080602001828103825283818151815260200191508051906020019080838360005b838110156125d95780820151818401526020810190506125be565b50505050905090810190601f1680156126065780820380516001836020036101000a031916815260200191505b509250505060405180910390fd5b949350505050565b600080823b905060008111915050919050565b604051806040016040528060008152602001600081525090565b6040518060600160405280600081526020016000815260200160008152509056fe4f776e61626c653a206e6577206f776e657220697320746865207a65726f20616464726573736f70657261746f723a207a65726f206164647265737320676976656e20666f72206e6577206f70657261746f72426f617264726f6f6d3a2043616e6e6f7420616c6c6f63617465207768656e20746f74616c537570706c792069732030536166654d6174683a206d756c7469706c69636174696f6e206f766572666c6f776f70657261746f723a2063616c6c6572206973206e6f7420746865206f70657261746f72426f617264726f6f6d3a20546865206469726563746f7220646f6573206e6f742065786973745361666545524332303a204552433230206f7065726174696f6e20646964206e6f742073756363656564436f6e747261637447756172643a206f6e6520626c6f636b2c206f6e652066756e6374696f6e426f617264726f6f6d3a20776974686472617720726571756573742067726561746572207468616e207374616b656420616d6f756e74a2646970667358221220586b7c1a53a1a68a76151e0321477a3e7dfd50d3634a4216bde59e1c63dc32ce64736f6c634300060c0033",
  "immutableReferences": {},
  "source": "/**\n  * Fat Cash Boardroom contract\n  * Realization function:\n  * 1. FAS is mortgaged to Boardroom, and FAS is redeemed from Boardroom\n  * 2. At each Epoch, Operator calculates the number of additional FAC issuances (the calculation formula is in the Treasury contract), and distributes the FAC rewards to the directors who pledged FAS to Boardroom\n  */\n\npragma solidity ^0.6.0;\n//pragma experimental ABIEncoderV2;\n\nimport '@openzeppelin/contracts/token/ERC20/IERC20.sol';\nimport '@openzeppelin/contracts/token/ERC20/SafeERC20.sol';\n\nimport './lib/Safe112.sol';\nimport './owner/Operator.sol';\nimport './utils/ContractGuard.sol';\nimport './interfaces/IFatAsset.sol';\n\ncontract ShareWrapper {\n    using SafeMath for uint256;\n    using SafeERC20 for IERC20;\n\n    IERC20 public share;\n\n    uint256 private _totalSupply;\n    mapping(address => uint256) private _balances;\n\n    function totalSupply() public view returns (uint256) {\n        return _totalSupply;\n    }\n\n    function balanceOf(address account) public view returns (uint256) {\n        return _balances[account];\n    }\n\n    /**\n     *@notice Mortgage FAS to Boardroom\n     */\n    function stake(uint256 amount) public virtual {\n        _totalSupply = _totalSupply.add(amount);\n        _balances[msg.sender] = _balances[msg.sender].add(amount);\n        share.safeTransferFrom(msg.sender, address(this), amount);\n    }\n\n    /**\n     *@notice Redeem FAS from Boardroom\n     */\n    function withdraw(uint256 amount) public virtual {\n        uint256 directorShare = _balances[msg.sender];\n        require(\n            directorShare >= amount,\n            'Boardroom: withdraw request greater than staked amount'\n        );\n        _totalSupply = _totalSupply.sub(amount);\n        _balances[msg.sender] = directorShare.sub(amount);\n        share.safeTransfer(msg.sender, amount);\n    }\n}\n\ncontract Boardroom is ShareWrapper, ContractGuard, Operator {\n    using SafeERC20 for IERC20;\n    using Address for address;\n    using SafeMath for uint256;\n    using Safe112 for uint112;\n\n    /* ========== DATA STRUCTURES ========== */\n\n    //Structure: Board seats\n    struct Boardseat {\n        uint256 lastSnapshotIndex;\n        uint256 rewardEarned;\n    }\n\n    //Structure: Board snapshot\n    struct BoardSnapshot {\n        uint256 time;\n        uint256 rewardReceived;\n        uint256 rewardPerShare;\n    }\n\n    /* ========== STATE VARIABLES ========== */\n\n    IERC20 private cash;\n\n    //Mapping: Each address corresponds to each board seat, that is, one address corresponds to one director (structure)\n    mapping(address => Boardseat) private directors;\n    BoardSnapshot[] private boardHistory;\n\n    /* ========== CONSTRUCTOR ========== */\n\n    /**\n     *@notice Constructor\n     */\n    constructor(IERC20 _cash, IERC20 _share) public {\n        cash = _cash;\n        share = _share;\n\n        BoardSnapshot memory genesisSnapshot = BoardSnapshot({\n            time: block.number,\n            rewardReceived: 0,\n            rewardPerShare: 0\n        });\n        //Genesis snapshot of the board\n        boardHistory.push(genesisSnapshot);\n    }\n\n    /* ========== Modifiers =============== */\n    //ModifierThe caller needs to mortgage the FAS in the Boardroom to be greater than 0\n    modifier directorExists {\n        require(\n            balanceOf(msg.sender) > 0,\n            'Boardroom: The director does not exist'\n        );\n        _;\n    }\n\n    //Modifier: Update the rewards of each director (FAC)\n    modifier updateReward(address director) {\n        if (director != address(0)) {\n            Boardseat memory seat = directors[director];\n            seat.rewardEarned = earned(director);\n            seat.lastSnapshotIndex = latestSnapshotIndex();\n            directors[director] = seat;\n        }\n        _;\n    }\n\n    /* ========== VIEW FUNCTIONS ========== */\n\n    // =========== Snapshot getters\n    // Some read-only methods: get snapshot information\n\n    function latestSnapshotIndex() public view returns (uint256) {\n        return boardHistory.length.sub(1);\n    }\n\n    function getLatestSnapshot() internal view returns (BoardSnapshot memory) {\n        return boardHistory[latestSnapshotIndex()];\n    }\n\n    function getLastSnapshotIndexOf(address director)\n        public\n        view\n        returns (uint256)\n    {\n        return directors[director].lastSnapshotIndex;\n    }\n\n    function getLastSnapshotOf(address director)\n        internal\n        view\n        returns (BoardSnapshot memory)\n    {\n        return boardHistory[getLastSnapshotIndexOf(director)];\n    }\n\n    // =========== Director getters\n\n    /**\n     *@notice Get the rewardable FAC of each FAS in the latest snapshot\n     */\n    function rewardPerShare() public view returns (uint256) {\n        return getLatestSnapshot().rewardPerShare;\n    }\n\n    /**\n     *@notice Calculate the total award (FAC) that can be withdrawn by the director\n     */\n    function earned(address director) public view returns (uint256) {\n        uint256 latestRPS = getLatestSnapshot().rewardPerShare;\n        uint256 storedRPS = getLastSnapshotOf(director).rewardPerShare;\n\n        return\n            balanceOf(director).mul(latestRPS.sub(storedRPS)).div(1e18).add(\n                directors[director].rewardEarned\n            );\n    // The total rewards that can be withdrawn by the director = the number of FAS pledged by the director * (the number of FACs that can be obtained per FAS in the latest snapshot-the number of FACs that can be obtained per FAS in the last snapshot) + the awards not withdrawn by the director\n    }\n\n    /* ========== MUTATIVE FUNCTIONS ========== */\n\n    /**\n     *@notice Mortgage FAS to Boardroom\n     */\n    function stake(uint256 amount)\n        public\n        override\n        onlyOneBlock\n        updateReward(msg.sender)\n    {\n        require(amount > 0, 'Boardroom: Cannot stake 0');\n        super.stake(amount);\n        // Trigger mortgage event\n        emit Staked(msg.sender, amount);\n    }\n\n    /**\n     *@notice Redeem FAS from Boardroom\n     */\n    function withdraw(uint256 amount)\n        public\n        override\n        onlyOneBlock\n        directorExists\n        updateReward(msg.sender)\n    {\n        require(amount > 0, 'Boardroom: Cannot withdraw 0');\n        super.withdraw(amount);\n        // Trigger redemption event\n        emit Withdrawn(msg.sender, amount);\n    }\n\n    /**\n     *@notice Redeem FAS from Boardroom and withdraw rewards\n     */\n    function exit() external {\n        withdraw(balanceOf(msg.sender));\n        claimReward();\n    }\n\n    /**\n     *@notice Receive rewards from Boardroom, rewards are FAC\n     */\n    function claimReward() public updateReward(msg.sender) {\n        //After updating the directors reward, get the reward quantity\n        uint256 reward = directors[msg.sender].rewardEarned;\n        if (reward > 0) {\n            directors[msg.sender].rewardEarned = 0;\n            //Reset the number of rewards to 0\n            cash.safeTransfer(msg.sender, reward);\n            //Send rewards to directors\n            emit RewardPaid(msg.sender, reward);\n            //Trigger completion reward event\n        }\n    }\n\n    /**\n     *@notice Allocation of coins, that is, how many FACs can be obtained for each FAS, only Operator has the authority to control\n     *@notice How many additional FACs are issued per Epoch is only determined by the Operator, and the specific calculation formula is in the Treasury contract\n     */\n    function allocateSeigniorage(uint256 amount)\n        external\n        onlyOneBlock\n        onlyOperator\n    {\n        require(amount > 0, 'Boardroom: Cannot allocate 0');\n        require(\n            totalSupply() > 0,\n            'Boardroom: Cannot allocate when totalSupply is 0'\n        );\n\n        // Create & add new snapshot\n        uint256 prevRPS = getLatestSnapshot().rewardPerShare;\n        //prevRPS: In the last snapshot, the number of FACs that can be awarded for each FAS\n        uint256 nextRPS = prevRPS.add(amount.mul(1e18).div(totalSupply()));\n        //nextRPSIn the next snapshot, the number of FACs that can be awarded for each FAS = the number of FACs that can be awarded for each BAS in the previous snapshot + (the total number of FACs issued to the board this time / the total supply of FAS)\n        //@notice Each snapshot recorded is the total amount (cumulative amount), and increment (subtraction) is used when calculating the number of new rewards per Epoch\n\n        BoardSnapshot memory newSnapshot = BoardSnapshot({\n            time: block.number,\n            rewardReceived: amount,\n            rewardPerShare: nextRPS\n        });\n        //Update snapshot\n        boardHistory.push(newSnapshot);\n\n        //Send the amount of additional FAC to this contract, and the amount of additional issuance is determined by the Operator\n        cash.safeTransferFrom(msg.sender, address(this), amount);\n        //Trigger the issue of FAC to the board of directors\n        emit RewardAdded(msg.sender, amount);\n    }\n\n    /* ========== EVENTS ========== */\n\n    event Staked(address indexed user, uint256 amount);\n    event Withdrawn(address indexed user, uint256 amount);\n    event RewardPaid(address indexed user, uint256 reward);\n    event RewardAdded(address indexed user, uint256 reward);\n}\n",
  "sourcePath": "/Volumes/Development/Workspace/farmbria/fat-protocol/contracts/Boardroom.sol",
  "compiler": {
    "name": "solc",
    "version": "0.6.12+commit.27d51765.Emscripten.clang"
  },
  "schemaVersion": "3.3.3",
  "updatedAt": "2021-01-19T03:52:30.560Z",
  "networkType": "ethereum",
  "devdoc": {
    "kind": "dev",
    "methods": {
      "owner()": {
        "details": "Returns the address of the current owner."
      },
      "renounceOwnership()": {
        "details": "Leaves the contract without owner. It will not be possible to call `onlyOwner` functions anymore. Can only be called by the current owner. NOTE: Renouncing ownership will leave the contract without an owner, thereby removing any functionality that is only available to the owner."
      },
      "transferOwnership(address)": {
        "details": "Transfers ownership of the contract to a new account (`newOwner`). Can only be called by the current owner."
      }
    },
    "version": 1
  },
  "userdoc": {
    "kind": "user",
    "methods": {
      "allocateSeigniorage(uint256)": {
        "notice": "Allocation of coins, that is, how many FACs can be obtained for each FAS, only Operator has the authority to controlHow many additional FACs are issued per Epoch is only determined by the Operator, and the specific calculation formula is in the Treasury contract"
      },
      "claimReward()": {
        "notice": "Receive rewards from Boardroom, rewards are FAC"
      },
      "constructor": "Constructor",
      "earned(address)": {
        "notice": "Calculate the total award (FAC) that can be withdrawn by the director"
      },
      "exit()": {
        "notice": "Redeem FAS from Boardroom and withdraw rewards"
      },
      "rewardPerShare()": {
        "notice": "Get the rewardable FAC of each FAS in the latest snapshot"
      },
      "stake(uint256)": {
        "notice": "Mortgage FAS to Boardroom"
      },
      "withdraw(uint256)": {
        "notice": "Redeem FAS from Boardroom"
      }
    },
    "version": 1
  }
}