{
  "contractName": "Distributor",
  "abi": [
    {
      "inputs": [
        {
          "internalType": "contract IDistributor[]",
          "name": "_distributors",
          "type": "address[]"
        }
      ],
      "stateMutability": "nonpayable",
      "type": "constructor"
    },
    {
      "inputs": [
        {
          "internalType": "uint256",
          "name": "",
          "type": "uint256"
        }
      ],
      "name": "distributors",
      "outputs": [
        {
          "internalType": "contract IDistributor",
          "name": "",
          "type": "address"
        }
      ],
      "stateMutability": "view",
      "type": "function",
      "constant": true
    },
    {
      "inputs": [],
      "name": "distribute",
      "outputs": [],
      "stateMutability": "nonpayable",
      "type": "function"
    }
  ],
  "bytecode": "0x608060405234801561001057600080fd5b506040516103813803806103818339818101604052602081101561003357600080fd5b810190808051604051939291908464010000000082111561005357600080fd5b8382019150602082018581111561006957600080fd5b825186602082028301116401000000008211171561008657600080fd5b8083526020830192505050908051906020019060200280838360005b838110156100bd5780820151818401526020810190506100a2565b5050505090500160405250505080600090805190602001906100e09291906100e7565b50506101ac565b828054828255906000526020600020908101928215610160579160200282015b8281111561015f5782518260006101000a81548173ffffffffffffffffffffffffffffffffffffffff021916908373ffffffffffffffffffffffffffffffffffffffff16021790555091602001919060010190610107565b5b50905061016d9190610171565b5090565b5b808211156101a857600081816101000a81549073ffffffffffffffffffffffffffffffffffffffff021916905550600101610172565b5090565b6101c6806101bb6000396000f3fe608060405234801561001057600080fd5b50600436106100365760003560e01c806350b492ba1461003b578063e4fc6b6d14610093575b600080fd5b6100676004803603602081101561005157600080fd5b810190808035906020019092919050505061009d565b604051808273ffffffffffffffffffffffffffffffffffffffff16815260200191505060405180910390f35b61009b6100d9565b005b600081815481106100aa57fe5b906000526020600020016000915054906101000a900473ffffffffffffffffffffffffffffffffffffffff1681565b60005b60008054905081101561018d57600081815481106100f657fe5b9060005260206000200160009054906101000a900473ffffffffffffffffffffffffffffffffffffffff1673ffffffffffffffffffffffffffffffffffffffff1663e4fc6b6d6040518163ffffffff1660e01b8152600401600060405180830381600087803b15801561016857600080fd5b505af115801561017c573d6000803e3d6000fd5b5050505080806001019150506100dc565b5056fea264697066735822122005ec49a72cc1615e9bd368cd1f7dee315d9d8eb47de19566bd611a22f68001a764736f6c634300060c0033",
  "immutableReferences": {},
  "source": "pragma solidity ^0.6.0;\n\nimport './interfaces/IDistributor.sol';\n\ncontract Distributor {\n    IDistributor[] public distributors;\n\n    constructor(IDistributor[] memory _distributors) public {\n        distributors = _distributors;\n    }\n\n    function distribute() public {\n        for (uint256 i = 0; i < distributors.length; i++) {\n            distributors[i].distribute();\n        }\n    }\n}\n",
  "sourcePath": "/Volumes/Development/Workspace/farmbria/fat-protocol/contracts/Distributor.sol",
  "compiler": {
    "name": "solc",
    "version": "0.6.12+commit.27d51765.Emscripten.clang"
  },
  "schemaVersion": "3.3.3",
  "updatedAt": "2021-01-19T07:32:23.469Z",
  "networkType": "ethereum",
  "devdoc": {
    "kind": "dev",
    "methods": {},
    "version": 1
  },
  "userdoc": {
    "kind": "user",
    "methods": {},
    "version": 1
  }
}