{
  "contractName": "FACFATPool",
  "abi": [
    {
      "inputs": [
        {
          "internalType": "address",
          "name": "fatCash_",
          "type": "address"
        },
        {
          "internalType": "address",
          "name": "fat_",
          "type": "address"
        },
        {
          "internalType": "uint256",
          "name": "starttime_",
          "type": "uint256"
        }
      ],
      "stateMutability": "nonpayable",
      "type": "constructor"
    },
    {
      "anonymous": false,
      "inputs": [
        {
          "indexed": true,
          "internalType": "address",
          "name": "previousOwner",
          "type": "address"
        },
        {
          "indexed": true,
          "internalType": "address",
          "name": "newOwner",
          "type": "address"
        }
      ],
      "name": "OwnershipTransferred",
      "type": "event"
    },
    {
      "anonymous": false,
      "inputs": [
        {
          "indexed": false,
          "internalType": "uint256",
          "name": "reward",
          "type": "uint256"
        }
      ],
      "name": "RewardAdded",
      "type": "event"
    },
    {
      "anonymous": false,
      "inputs": [
        {
          "indexed": true,
          "internalType": "address",
          "name": "user",
          "type": "address"
        },
        {
          "indexed": false,
          "internalType": "uint256",
          "name": "reward",
          "type": "uint256"
        }
      ],
      "name": "RewardPaid",
      "type": "event"
    },
    {
      "anonymous": false,
      "inputs": [
        {
          "indexed": true,
          "internalType": "address",
          "name": "user",
          "type": "address"
        },
        {
          "indexed": false,
          "internalType": "uint256",
          "name": "amount",
          "type": "uint256"
        }
      ],
      "name": "Staked",
      "type": "event"
    },
    {
      "anonymous": false,
      "inputs": [
        {
          "indexed": true,
          "internalType": "address",
          "name": "user",
          "type": "address"
        },
        {
          "indexed": false,
          "internalType": "uint256",
          "name": "amount",
          "type": "uint256"
        }
      ],
      "name": "Withdrawn",
      "type": "event"
    },
    {
      "inputs": [],
      "name": "DURATION",
      "outputs": [
        {
          "internalType": "uint256",
          "name": "",
          "type": "uint256"
        }
      ],
      "stateMutability": "view",
      "type": "function",
      "constant": true
    },
    {
      "inputs": [
        {
          "internalType": "address",
          "name": "account",
          "type": "address"
        }
      ],
      "name": "balanceOf",
      "outputs": [
        {
          "internalType": "uint256",
          "name": "",
          "type": "uint256"
        }
      ],
      "stateMutability": "view",
      "type": "function",
      "constant": true
    },
    {
      "inputs": [
        {
          "internalType": "address",
          "name": "",
          "type": "address"
        }
      ],
      "name": "deposits",
      "outputs": [
        {
          "internalType": "uint256",
          "name": "",
          "type": "uint256"
        }
      ],
      "stateMutability": "view",
      "type": "function",
      "constant": true
    },
    {
      "inputs": [],
      "name": "fat",
      "outputs": [
        {
          "internalType": "contract IBEP20",
          "name": "",
          "type": "address"
        }
      ],
      "stateMutability": "view",
      "type": "function",
      "constant": true
    },
    {
      "inputs": [],
      "name": "fatCash",
      "outputs": [
        {
          "internalType": "contract IBEP20",
          "name": "",
          "type": "address"
        }
      ],
      "stateMutability": "view",
      "type": "function",
      "constant": true
    },
    {
      "inputs": [],
      "name": "lastUpdateTime",
      "outputs": [
        {
          "internalType": "uint256",
          "name": "",
          "type": "uint256"
        }
      ],
      "stateMutability": "view",
      "type": "function",
      "constant": true
    },
    {
      "inputs": [],
      "name": "owner",
      "outputs": [
        {
          "internalType": "address",
          "name": "",
          "type": "address"
        }
      ],
      "stateMutability": "view",
      "type": "function",
      "constant": true
    },
    {
      "inputs": [],
      "name": "periodFinish",
      "outputs": [
        {
          "internalType": "uint256",
          "name": "",
          "type": "uint256"
        }
      ],
      "stateMutability": "view",
      "type": "function",
      "constant": true
    },
    {
      "inputs": [],
      "name": "renounceOwnership",
      "outputs": [],
      "stateMutability": "nonpayable",
      "type": "function"
    },
    {
      "inputs": [],
      "name": "rewardDistribution",
      "outputs": [
        {
          "internalType": "address",
          "name": "",
          "type": "address"
        }
      ],
      "stateMutability": "view",
      "type": "function",
      "constant": true
    },
    {
      "inputs": [],
      "name": "rewardPerTokenStored",
      "outputs": [
        {
          "internalType": "uint256",
          "name": "",
          "type": "uint256"
        }
      ],
      "stateMutability": "view",
      "type": "function",
      "constant": true
    },
    {
      "inputs": [],
      "name": "rewardRate",
      "outputs": [
        {
          "internalType": "uint256",
          "name": "",
          "type": "uint256"
        }
      ],
      "stateMutability": "view",
      "type": "function",
      "constant": true
    },
    {
      "inputs": [
        {
          "internalType": "address",
          "name": "",
          "type": "address"
        }
      ],
      "name": "rewards",
      "outputs": [
        {
          "internalType": "uint256",
          "name": "",
          "type": "uint256"
        }
      ],
      "stateMutability": "view",
      "type": "function",
      "constant": true
    },
    {
      "inputs": [
        {
          "internalType": "address",
          "name": "_rewardDistribution",
          "type": "address"
        }
      ],
      "name": "setRewardDistribution",
      "outputs": [],
      "stateMutability": "nonpayable",
      "type": "function"
    },
    {
      "inputs": [],
      "name": "starttime",
      "outputs": [
        {
          "internalType": "uint256",
          "name": "",
          "type": "uint256"
        }
      ],
      "stateMutability": "view",
      "type": "function",
      "constant": true
    },
    {
      "inputs": [],
      "name": "totalSupply",
      "outputs": [
        {
          "internalType": "uint256",
          "name": "",
          "type": "uint256"
        }
      ],
      "stateMutability": "view",
      "type": "function",
      "constant": true
    },
    {
      "inputs": [
        {
          "internalType": "address",
          "name": "newOwner",
          "type": "address"
        }
      ],
      "name": "transferOwnership",
      "outputs": [],
      "stateMutability": "nonpayable",
      "type": "function"
    },
    {
      "inputs": [
        {
          "internalType": "address",
          "name": "",
          "type": "address"
        }
      ],
      "name": "userRewardPerTokenPaid",
      "outputs": [
        {
          "internalType": "uint256",
          "name": "",
          "type": "uint256"
        }
      ],
      "stateMutability": "view",
      "type": "function",
      "constant": true
    },
    {
      "inputs": [],
      "name": "lastTimeRewardApplicable",
      "outputs": [
        {
          "internalType": "uint256",
          "name": "",
          "type": "uint256"
        }
      ],
      "stateMutability": "view",
      "type": "function",
      "constant": true
    },
    {
      "inputs": [],
      "name": "rewardPerToken",
      "outputs": [
        {
          "internalType": "uint256",
          "name": "",
          "type": "uint256"
        }
      ],
      "stateMutability": "view",
      "type": "function",
      "constant": true
    },
    {
      "inputs": [
        {
          "internalType": "address",
          "name": "account",
          "type": "address"
        }
      ],
      "name": "earned",
      "outputs": [
        {
          "internalType": "uint256",
          "name": "",
          "type": "uint256"
        }
      ],
      "stateMutability": "view",
      "type": "function",
      "constant": true
    },
    {
      "inputs": [
        {
          "internalType": "uint256",
          "name": "amount",
          "type": "uint256"
        }
      ],
      "name": "stake",
      "outputs": [],
      "stateMutability": "nonpayable",
      "type": "function"
    },
    {
      "inputs": [
        {
          "internalType": "uint256",
          "name": "amount",
          "type": "uint256"
        }
      ],
      "name": "withdraw",
      "outputs": [],
      "stateMutability": "nonpayable",
      "type": "function"
    },
    {
      "inputs": [],
      "name": "exit",
      "outputs": [],
      "stateMutability": "nonpayable",
      "type": "function"
    },
    {
      "inputs": [],
      "name": "getReward",
      "outputs": [],
      "stateMutability": "nonpayable",
      "type": "function"
    },
    {
      "inputs": [
        {
          "internalType": "uint256",
          "name": "reward",
          "type": "uint256"
        }
      ],
      "name": "notifyRewardAmount",
      "outputs": [],
      "stateMutability": "nonpayable",
      "type": "function"
    }
  ],
  "bytecode": "0x6080604052620697806006556000600855600060095534801561002157600080fd5b5060405161253b38038061253b8339818101604052606081101561004457600080fd5b8101908080519060200190929190805190602001909291908051906020019092919050505060006100796101a860201b60201c565b905080600360006101000a81548173ffffffffffffffffffffffffffffffffffffffff021916908373ffffffffffffffffffffffffffffffffffffffff1602179055508073ffffffffffffffffffffffffffffffffffffffff16600073ffffffffffffffffffffffffffffffffffffffff167f8be0079c531659141344cd1fd0a4f28419497f9722a3daafe3b4186f6b6457e060405160405180910390a35082600560006101000a81548173ffffffffffffffffffffffffffffffffffffffff021916908373ffffffffffffffffffffffffffffffffffffffff160217905550816000806101000a81548173ffffffffffffffffffffffffffffffffffffffff021916908373ffffffffffffffffffffffffffffffffffffffff160217905550806007819055505050506101b0565b600033905090565b61237c806101bf6000396000f3fe608060405234801561001057600080fd5b506004361061018d5760003560e01c80637b0a47ee116100de578063c8f33c9111610097578063e9fad8ee11610071578063e9fad8ee14610594578063ebe2b12b1461059e578063f2fde38b146105bc578063fc7e286d146106005761018d565b8063c8f33c911461053a578063cd3daf9d14610558578063df136d65146105765761018d565b80637b0a47ee1461042657806380faa57d146104445780638b876347146104625780638da58897146104ba5780638da5cb5b146104d8578063a694fc3a1461050c5761018d565b8063226509811161014b5780633d18b912116101255780633d18b9121461038657806357e57eb81461039057806370a08231146103c4578063715018a61461041c5761018d565b806322650981146102f65780632e1a7d4d1461032a5780633c6b16ab146103585761018d565b80628cc262146101925780630700037d146101ea5780630d68b76114610242578063101114cf1461028657806318160ddd146102ba5780631be05289146102d8575b600080fd5b6101d4600480360360208110156101a857600080fd5b81019080803573ffffffffffffffffffffffffffffffffffffffff169060200190929190505050610658565b6040518082815260200191505060405180910390f35b61022c6004803603602081101561020057600080fd5b81019080803573ffffffffffffffffffffffffffffffffffffffff16906020019092919050505061073f565b6040518082815260200191505060405180910390f35b6102846004803603602081101561025857600080fd5b81019080803573ffffffffffffffffffffffffffffffffffffffff169060200190929190505050610757565b005b61028e610865565b604051808273ffffffffffffffffffffffffffffffffffffffff16815260200191505060405180910390f35b6102c261088b565b6040518082815260200191505060405180910390f35b6102e0610895565b6040518082815260200191505060405180910390f35b6102fe61089b565b604051808273ffffffffffffffffffffffffffffffffffffffff16815260200191505060405180910390f35b6103566004803603602081101561034057600080fd5b81019080803590602001909291905050506108c1565b005b6103846004803603602081101561036e57600080fd5b8101908080359060200190929190505050610b83565b005b61038e610e85565b005b6103986110dc565b604051808273ffffffffffffffffffffffffffffffffffffffff16815260200191505060405180910390f35b610406600480360360208110156103da57600080fd5b81019080803573ffffffffffffffffffffffffffffffffffffffff169060200190929190505050611100565b6040518082815260200191505060405180910390f35b610424611149565b005b61042e6112d4565b6040518082815260200191505060405180910390f35b61044c6112da565b6040518082815260200191505060405180910390f35b6104a46004803603602081101561047857600080fd5b81019080803573ffffffffffffffffffffffffffffffffffffffff1690602001909291905050506112ed565b6040518082815260200191505060405180910390f35b6104c2611305565b6040518082815260200191505060405180910390f35b6104e061130b565b604051808273ffffffffffffffffffffffffffffffffffffffff16815260200191505060405180910390f35b6105386004803603602081101561052257600080fd5b8101908080359060200190929190505050611335565b005b6105426115fd565b6040518082815260200191505060405180910390f35b610560611603565b6040518082815260200191505060405180910390f35b61057e61169b565b6040518082815260200191505060405180910390f35b61059c6116a1565b005b6105a66116bc565b6040518082815260200191505060405180910390f35b6105fe600480360360208110156105d257600080fd5b81019080803573ffffffffffffffffffffffffffffffffffffffff1690602001909291905050506116c2565b005b6106426004803603602081101561061657600080fd5b81019080803573ffffffffffffffffffffffffffffffffffffffff1690602001909291905050506118d2565b6040518082815260200191505060405180910390f35b6000610738600d60008473ffffffffffffffffffffffffffffffffffffffff1673ffffffffffffffffffffffffffffffffffffffff1681526020019081526020016000205461072a670de0b6b3a764000061071c610705600c60008973ffffffffffffffffffffffffffffffffffffffff1673ffffffffffffffffffffffffffffffffffffffff168152602001908152602001600020546106f7611603565b6118ea90919063ffffffff16565b61070e88611100565b61193490919063ffffffff16565b6119ba90919063ffffffff16565b611a0490919063ffffffff16565b9050919050565b600d6020528060005260406000206000915090505481565b61075f611a8c565b73ffffffffffffffffffffffffffffffffffffffff16600360009054906101000a900473ffffffffffffffffffffffffffffffffffffffff1673ffffffffffffffffffffffffffffffffffffffff1614610821576040517f08c379a00000000000000000000000000000000000000000000000000000000081526004018080602001828103825260208152602001807f4f776e61626c653a2063616c6c6572206973206e6f7420746865206f776e657281525060200191505060405180910390fd5b80600460006101000a81548173ffffffffffffffffffffffffffffffffffffffff021916908373ffffffffffffffffffffffffffffffffffffffff16021790555050565b600460009054906101000a900473ffffffffffffffffffffffffffffffffffffffff1681565b6000600154905090565b60065481565b600560009054906101000a900473ffffffffffffffffffffffffffffffffffffffff1681565b336108ca611603565b600b819055506108d86112da565b600a81905550600073ffffffffffffffffffffffffffffffffffffffff168173ffffffffffffffffffffffffffffffffffffffff16146109a55761091b81610658565b600d60008373ffffffffffffffffffffffffffffffffffffffff1673ffffffffffffffffffffffffffffffffffffffff16815260200190815260200160002081905550600b54600c60008373ffffffffffffffffffffffffffffffffffffffff1673ffffffffffffffffffffffffffffffffffffffff168152602001908152602001600020819055505b600754421015610a1d576040517f08c379a00000000000000000000000000000000000000000000000000000000081526004018080602001828103825260158152602001807f464143464154506f6f6c3a206e6f74207374617274000000000000000000000081525060200191505060405180910390fd5b60008211610a93576040517f08c379a000000000000000000000000000000000000000000000000000000000815260040180806020018281038252601d8152602001807f464143464154506f6f6c3a2043616e6e6f74207769746864726177203000000081525060200191505060405180910390fd5b610ae582600e60003373ffffffffffffffffffffffffffffffffffffffff1673ffffffffffffffffffffffffffffffffffffffff168152602001908152602001600020546118ea90919063ffffffff16565b600e60003373ffffffffffffffffffffffffffffffffffffffff1673ffffffffffffffffffffffffffffffffffffffff16815260200190815260200160002081905550610b3182611a94565b3373ffffffffffffffffffffffffffffffffffffffff167f7084f5476618d8e60b11ef0d7d3f06914655adb8793e28ff7f018d4c76d505d5836040518082815260200191505060405180910390a25050565b600460009054906101000a900473ffffffffffffffffffffffffffffffffffffffff1673ffffffffffffffffffffffffffffffffffffffff16610bc4611a8c565b73ffffffffffffffffffffffffffffffffffffffff1614610c30576040517f08c379a00000000000000000000000000000000000000000000000000000000081526004018080602001828103825260218152602001806123266021913960400191505060405180910390fd5b6000610c3a611603565b600b81905550610c486112da565b600a81905550600073ffffffffffffffffffffffffffffffffffffffff168173ffffffffffffffffffffffffffffffffffffffff1614610d1557610c8b81610658565b600d60008373ffffffffffffffffffffffffffffffffffffffff1673ffffffffffffffffffffffffffffffffffffffff16815260200190815260200160002081905550600b54600c60008373ffffffffffffffffffffffffffffffffffffffff1673ffffffffffffffffffffffffffffffffffffffff168152602001908152602001600020819055505b600754421115610e08576008544210610d4857610d3d600654836119ba90919063ffffffff16565b600981905550610daa565b6000610d5f426008546118ea90919063ffffffff16565b90506000610d786009548361193490919063ffffffff16565b9050610da1600654610d938387611a0490919063ffffffff16565b6119ba90919063ffffffff16565b60098190555050505b42600a81905550610dc660065442611a0490919063ffffffff16565b6008819055507fde88a922e0d3b88b24e9623efeb464919c6bf9f66857a65e2bfcf2ce87a9433d826040518082815260200191505060405180910390a1610e81565b610e1d600654836119ba90919063ffffffff16565b600981905550600754600a81905550610e43600654600754611a0490919063ffffffff16565b6008819055507fde88a922e0d3b88b24e9623efeb464919c6bf9f66857a65e2bfcf2ce87a9433d826040518082815260200191505060405180910390a15b5050565b33610e8e611603565b600b81905550610e9c6112da565b600a81905550600073ffffffffffffffffffffffffffffffffffffffff168173ffffffffffffffffffffffffffffffffffffffff1614610f6957610edf81610658565b600d60008373ffffffffffffffffffffffffffffffffffffffff1673ffffffffffffffffffffffffffffffffffffffff16815260200190815260200160002081905550600b54600c60008373ffffffffffffffffffffffffffffffffffffffff1673ffffffffffffffffffffffffffffffffffffffff168152602001908152602001600020819055505b600754421015610fe1576040517f08c379a00000000000000000000000000000000000000000000000000000000081526004018080602001828103825260158152602001807f464143464154506f6f6c3a206e6f74207374617274000000000000000000000081525060200191505060405180910390fd5b6000610fec33610658565b905060008111156110d8576000600d60003373ffffffffffffffffffffffffffffffffffffffff1673ffffffffffffffffffffffffffffffffffffffff168152602001908152602001600020819055506110893382600560009054906101000a900473ffffffffffffffffffffffffffffffffffffffff1673ffffffffffffffffffffffffffffffffffffffff16611b929092919063ffffffff16565b3373ffffffffffffffffffffffffffffffffffffffff167fe2403640ba68fed3a2f88b7557551d1993f84b99bb10ff833f0cf8db0c5e0486826040518082815260200191505060405180910390a25b5050565b60008054906101000a900473ffffffffffffffffffffffffffffffffffffffff1681565b6000600260008373ffffffffffffffffffffffffffffffffffffffff1673ffffffffffffffffffffffffffffffffffffffff168152602001908152602001600020549050919050565b611151611a8c565b73ffffffffffffffffffffffffffffffffffffffff16600360009054906101000a900473ffffffffffffffffffffffffffffffffffffffff1673ffffffffffffffffffffffffffffffffffffffff1614611213576040517f08c379a00000000000000000000000000000000000000000000000000000000081526004018080602001828103825260208152602001807f4f776e61626c653a2063616c6c6572206973206e6f7420746865206f776e657281525060200191505060405180910390fd5b600073ffffffffffffffffffffffffffffffffffffffff16600360009054906101000a900473ffffffffffffffffffffffffffffffffffffffff1673ffffffffffffffffffffffffffffffffffffffff167f8be0079c531659141344cd1fd0a4f28419497f9722a3daafe3b4186f6b6457e060405160405180910390a36000600360006101000a81548173ffffffffffffffffffffffffffffffffffffffff021916908373ffffffffffffffffffffffffffffffffffffffff160217905550565b60095481565b60006112e842600854611c34565b905090565b600c6020528060005260406000206000915090505481565b60075481565b6000600360009054906101000a900473ffffffffffffffffffffffffffffffffffffffff16905090565b3361133e611603565b600b8190555061134c6112da565b600a81905550600073ffffffffffffffffffffffffffffffffffffffff168173ffffffffffffffffffffffffffffffffffffffff16146114195761138f81610658565b600d60008373ffffffffffffffffffffffffffffffffffffffff1673ffffffffffffffffffffffffffffffffffffffff16815260200190815260200160002081905550600b54600c60008373ffffffffffffffffffffffffffffffffffffffff1673ffffffffffffffffffffffffffffffffffffffff168152602001908152602001600020819055505b600754421015611491576040517f08c379a00000000000000000000000000000000000000000000000000000000081526004018080602001828103825260158152602001807f464143464154506f6f6c3a206e6f74207374617274000000000000000000000081525060200191505060405180910390fd5b60008211611507576040517f08c379a000000000000000000000000000000000000000000000000000000000815260040180806020018281038252601a8152602001807f464143464154506f6f6c3a2043616e6e6f74207374616b65203000000000000081525060200191505060405180910390fd5b600061155b83600e60003373ffffffffffffffffffffffffffffffffffffffff1673ffffffffffffffffffffffffffffffffffffffff16815260200190815260200160002054611a0490919063ffffffff16565b905080600e60003373ffffffffffffffffffffffffffffffffffffffff1673ffffffffffffffffffffffffffffffffffffffff168152602001908152602001600020819055506115aa83611c4d565b3373ffffffffffffffffffffffffffffffffffffffff167f9e71bc8eea02a63969f509818f2dafb9254532904319f9dbda79b67bd34a5f3d846040518082815260200191505060405180910390a2505050565b600a5481565b60008061160e61088b565b141561161e57600b549050611698565b61169561168461162c61088b565b611676670de0b6b3a764000061166860095461165a600a5461164c6112da565b6118ea90919063ffffffff16565b61193490919063ffffffff16565b61193490919063ffffffff16565b6119ba90919063ffffffff16565b600b54611a0490919063ffffffff16565b90505b90565b600b5481565b6116b26116ad33611100565b6108c1565b6116ba610e85565b565b60085481565b6116ca611a8c565b73ffffffffffffffffffffffffffffffffffffffff16600360009054906101000a900473ffffffffffffffffffffffffffffffffffffffff1673ffffffffffffffffffffffffffffffffffffffff161461178c576040517f08c379a00000000000000000000000000000000000000000000000000000000081526004018080602001828103825260208152602001807f4f776e61626c653a2063616c6c6572206973206e6f7420746865206f776e657281525060200191505060405180910390fd5b600073ffffffffffffffffffffffffffffffffffffffff168173ffffffffffffffffffffffffffffffffffffffff161415611812576040517f08c379a00000000000000000000000000000000000000000000000000000000081526004018080602001828103825260268152602001806122df6026913960400191505060405180910390fd5b8073ffffffffffffffffffffffffffffffffffffffff16600360009054906101000a900473ffffffffffffffffffffffffffffffffffffffff1673ffffffffffffffffffffffffffffffffffffffff167f8be0079c531659141344cd1fd0a4f28419497f9722a3daafe3b4186f6b6457e060405160405180910390a380600360006101000a81548173ffffffffffffffffffffffffffffffffffffffff021916908373ffffffffffffffffffffffffffffffffffffffff16021790555050565b600e6020528060005260406000206000915090505481565b600061192c83836040518060400160405280601e81526020017f536166654d6174683a207375627472616374696f6e206f766572666c6f770000815250611d4d565b905092915050565b60008083141561194757600090506119b4565b600082840290508284828161195857fe5b04146119af576040517f08c379a00000000000000000000000000000000000000000000000000000000081526004018080602001828103825260218152602001806123056021913960400191505060405180910390fd5b809150505b92915050565b60006119fc83836040518060400160405280601a81526020017f536166654d6174683a206469766973696f6e206279207a65726f000000000000815250611e0d565b905092915050565b600080828401905083811015611a82576040517f08c379a000000000000000000000000000000000000000000000000000000000815260040180806020018281038252601b8152602001807f536166654d6174683a206164646974696f6e206f766572666c6f77000000000081525060200191505060405180910390fd5b8091505092915050565b600033905090565b611aa9816001546118ea90919063ffffffff16565b600181905550611b0181600260003373ffffffffffffffffffffffffffffffffffffffff1673ffffffffffffffffffffffffffffffffffffffff168152602001908152602001600020546118ea90919063ffffffff16565b600260003373ffffffffffffffffffffffffffffffffffffffff1673ffffffffffffffffffffffffffffffffffffffff16815260200190815260200160002081905550611b8f338260008054906101000a900473ffffffffffffffffffffffffffffffffffffffff1673ffffffffffffffffffffffffffffffffffffffff16611b929092919063ffffffff16565b50565b611c2f8363a9059cbb60e01b8484604051602401808373ffffffffffffffffffffffffffffffffffffffff16815260200182815260200192505050604051602081830303815290604052907bffffffffffffffffffffffffffffffffffffffffffffffffffffffff19166020820180517bffffffffffffffffffffffffffffffffffffffffffffffffffffffff8381831617835250505050611ed3565b505050565b6000818310611c435781611c45565b825b905092915050565b611c6281600154611a0490919063ffffffff16565b600181905550611cba81600260003373ffffffffffffffffffffffffffffffffffffffff1673ffffffffffffffffffffffffffffffffffffffff16815260200190815260200160002054611a0490919063ffffffff16565b600260003373ffffffffffffffffffffffffffffffffffffffff1673ffffffffffffffffffffffffffffffffffffffff16815260200190815260200160002081905550611d4a33308360008054906101000a900473ffffffffffffffffffffffffffffffffffffffff1673ffffffffffffffffffffffffffffffffffffffff16611fc2909392919063ffffffff16565b50565b6000838311158290611dfa576040517f08c379a00000000000000000000000000000000000000000000000000000000081526004018080602001828103825283818151815260200191508051906020019080838360005b83811015611dbf578082015181840152602081019050611da4565b50505050905090810190601f168015611dec5780820380516001836020036101000a031916815260200191505b509250505060405180910390fd5b5060008385039050809150509392505050565b60008083118290611eb9576040517f08c379a00000000000000000000000000000000000000000000000000000000081526004018080602001828103825283818151815260200191508051906020019080838360005b83811015611e7e578082015181840152602081019050611e63565b50505050905090810190601f168015611eab5780820380516001836020036101000a031916815260200191505b509250505060405180910390fd5b506000838581611ec557fe5b049050809150509392505050565b6060611f35826040518060400160405280602081526020017f5361666542455032303a206c6f772d6c6576656c2063616c6c206661696c65648152508573ffffffffffffffffffffffffffffffffffffffff166120839092919063ffffffff16565b9050600081511115611fbd57808060200190516020811015611f5657600080fd5b8101908080519060200190929190505050611fbc576040517f08c379a000000000000000000000000000000000000000000000000000000000815260040180806020018281038252602a8152602001806122b5602a913960400191505060405180910390fd5b5b505050565b61207d846323b872dd60e01b858585604051602401808473ffffffffffffffffffffffffffffffffffffffff1681526020018373ffffffffffffffffffffffffffffffffffffffff1681526020018281526020019350505050604051602081830303815290604052907bffffffffffffffffffffffffffffffffffffffffffffffffffffffff19166020820180517bffffffffffffffffffffffffffffffffffffffffffffffffffffffff8381831617835250505050611ed3565b50505050565b6060612092848460008561209b565b90509392505050565b60606120a6856122a1565b612118576040517f08c379a000000000000000000000000000000000000000000000000000000000815260040180806020018281038252601d8152602001807f416464726573733a2063616c6c20746f206e6f6e2d636f6e747261637400000081525060200191505060405180910390fd5b600060608673ffffffffffffffffffffffffffffffffffffffff1685876040518082805190602001908083835b602083106121685780518252602082019150602081019050602083039250612145565b6001836020036101000a03801982511681845116808217855250505050505090500191505060006040518083038185875af1925050503d80600081146121ca576040519150601f19603f3d011682016040523d82523d6000602084013e6121cf565b606091505b509150915081156121e4578092505050612299565b6000815111156121f75780518082602001fd5b836040517f08c379a00000000000000000000000000000000000000000000000000000000081526004018080602001828103825283818151815260200191508051906020019080838360005b8381101561225e578082015181840152602081019050612243565b50505050905090810190601f16801561228b5780820380516001836020036101000a031916815260200191505b509250505060405180910390fd5b949350505050565b600080823b90506000811191505091905056fe5361666542455032303a204245503230206f7065726174696f6e20646964206e6f7420737563636565644f776e61626c653a206e6577206f776e657220697320746865207a65726f2061646472657373536166654d6174683a206d756c7469706c69636174696f6e206f766572666c6f7743616c6c6572206973206e6f742072657761726420646973747269627574696f6ea26469706673582212202d7cf6f2424f79319c307de0f17557ad759473022b05419b6c27aec8b503fdcb64736f6c634300060c0033",
  "immutableReferences": {},
  "source": "pragma solidity ^0.6.0;\n/**\n *Submitted for verification at Etherscan.io on 2020-07-17\n */\n\n/*\n   ____            __   __        __   _\n  / __/__ __ ___  / /_ / /  ___  / /_ (_)__ __\n _\\ \\ / // // _ \\/ __// _ \\/ -_)/ __// / \\ \\ /\n/___/ \\_, //_//_/\\__//_//_/\\__/ \\__//_/ /_\\_\\\n     /___/\n\n* Synthetix: FACFATPool.sol\n*\n* Docs: https://docs.synthetix.io/\n*\n*\n* MIT License\n* ===========\n*\n* Copyright (c) 2020 Synthetix\n*\n* Permission is hereby granted, free of charge, to any person obtaining a copy\n* of this software and associated documentation files (the \"Software\"), to deal\n* in the Software without restriction, including without limitation the rights\n* to use, copy, modify, merge, publish, distribute, sublicense, and/or sell\n* copies of the Software, and to permit persons to whom the Software is\n* furnished to do so, subject to the following conditions:\n*\n* The above copyright notice and this permission notice shall be included in all\n* copies or substantial portions of the Software.\n*\n* THE SOFTWARE IS PROVIDED \"AS IS\", WITHOUT WARRANTY OF ANY KIND, EXPRESS OR\n* IMPLIED, INCLUDING BUT NOT LIMITED TO THE WARRANTIES OF MERCHANTABILITY,\n* FITNESS FOR A PARTICULAR PURPOSE AND NONINFRINGEMENT. IN NO EVENT SHALL THE\n* AUTHORS OR COPYRIGHT HOLDERS BE LIABLE FOR ANY CLAIM, DAMAGES OR OTHER\n* LIABILITY, WHETHER IN AN ACTION OF CONTRACT, TORT OR OTHERWISE, ARISING FROM,\n* OUT OF OR IN CONNECTION WITH THE SOFTWARE OR THE USE OR OTHER DEALINGS IN THE\n*/\n\nimport '@openzeppelin/contracts/math/Math.sol';\nimport '@openzeppelin/contracts/math/SafeMath.sol';\nimport '../lib/IBEP20.sol';\nimport '@openzeppelin/contracts/utils/Address.sol';\nimport '../lib/SafeBEP20.sol';\nimport '../interfaces/IRewardDistributionRecipient.sol';\n\ncontract FATWrapper{\n    using SafeMath for uint256;\n    using SafeBEP20 for IBEP20;\n\n    IBEP20 public fat;\n\n    uint256 private _totalSupply;\n    mapping(address => uint256) private _balances;\n\n    function totalSupply() public virtual view returns (uint256) {\n        return _totalSupply;\n    }\n\n    function balanceOf(address account) public virtual view returns (uint256) {\n        return _balances[account];\n    }\n\n    function stake(uint256 amount) public virtual {\n        _totalSupply = _totalSupply.add(amount);\n        _balances[msg.sender] = _balances[msg.sender].add(amount);\n        fat.safeTransferFrom(msg.sender, address(this), amount);\n    }\n\n    function withdraw(uint256 amount) public virtual {\n        _totalSupply = _totalSupply.sub(amount);\n        _balances[msg.sender] = _balances[msg.sender].sub(amount);\n        fat.safeTransfer(msg.sender, amount);\n    }\n}\n\ncontract FACFATPool is FATWrapper, IRewardDistributionRecipient {\n    IBEP20 public fatCash;\n    uint256 public DURATION = 5 days;\n\n    uint256 public starttime;\n    uint256 public periodFinish = 0;\n    uint256 public rewardRate = 0;\n    uint256 public lastUpdateTime;\n    uint256 public rewardPerTokenStored;\n    mapping(address => uint256) public userRewardPerTokenPaid;\n    mapping(address => uint256) public rewards;\n    mapping(address => uint256) public deposits;\n\n    event RewardAdded(uint256 reward);\n    event Staked(address indexed user, uint256 amount);\n    event Withdrawn(address indexed user, uint256 amount);\n    event RewardPaid(address indexed user, uint256 reward);\n\n    constructor(\n        address fatCash_,\n        address fat_,\n        uint256 starttime_\n    ) public {\n        fatCash = IBEP20(fatCash_);\n        fat = IBEP20(fat_);\n        starttime = starttime_;\n    }\n\n    modifier checkStart() {\n        require(block.timestamp >= starttime, 'FACFATPool: not start');\n        _;\n    }\n\n    modifier updateReward(address account) {\n        rewardPerTokenStored = rewardPerToken();\n        lastUpdateTime = lastTimeRewardApplicable();\n        if (account != address(0)) {\n            rewards[account] = earned(account);\n            userRewardPerTokenPaid[account] = rewardPerTokenStored;\n        }\n        _;\n    }\n\n    function lastTimeRewardApplicable() public view returns (uint256) {\n        return Math.min(block.timestamp, periodFinish);\n    }\n\n    function rewardPerToken() public view returns (uint256) {\n        if (totalSupply() == 0) {\n            return rewardPerTokenStored;\n        }\n        return\n        rewardPerTokenStored.add(\n            lastTimeRewardApplicable()\n            .sub(lastUpdateTime)\n            .mul(rewardRate)\n            .mul(1e18)\n            .div(totalSupply())\n        );\n    }\n\n    function earned(address account) public view returns (uint256) {\n        return\n        balanceOf(account)\n        .mul(rewardPerToken().sub(userRewardPerTokenPaid[account]))\n        .div(1e18)\n        .add(rewards[account]);\n    }\n\n    // stake visibility is public as overriding LPTokenWrapper's stake() function\n    function stake(uint256 amount)\n    public\n    override\n    updateReward(msg.sender)\n    checkStart\n    {\n        require(amount > 0, 'FACFATPool: Cannot stake 0');\n        uint256 newDeposit = deposits[msg.sender].add(amount);\n\n        deposits[msg.sender] = newDeposit;\n        super.stake(amount);\n        emit Staked(msg.sender, amount);\n    }\n\n    function withdraw(uint256 amount)\n    public\n    override\n    updateReward(msg.sender)\n    checkStart\n    {\n        require(amount > 0, 'FACFATPool: Cannot withdraw 0');\n        deposits[msg.sender] = deposits[msg.sender].sub(amount);\n        super.withdraw(amount);\n        emit Withdrawn(msg.sender, amount);\n    }\n\n    function exit() external {\n        withdraw(balanceOf(msg.sender));\n        getReward();\n    }\n\n    function getReward() public updateReward(msg.sender) checkStart {\n        uint256 reward = earned(msg.sender);\n        if (reward > 0) {\n            rewards[msg.sender] = 0;\n            fatCash.safeTransfer(msg.sender, reward);\n            emit RewardPaid(msg.sender, reward);\n        }\n    }\n\n    function notifyRewardAmount(uint256 reward)\n    external\n    override\n    onlyRewardDistribution\n    updateReward(address(0))\n    {\n        if (block.timestamp > starttime) {\n            if (block.timestamp >= periodFinish) {\n                rewardRate = reward.div(DURATION);\n            } else {\n                uint256 remaining = periodFinish.sub(block.timestamp);\n                uint256 leftover = remaining.mul(rewardRate);\n                rewardRate = reward.add(leftover).div(DURATION);\n            }\n            lastUpdateTime = block.timestamp;\n            periodFinish = block.timestamp.add(DURATION);\n            emit RewardAdded(reward);\n        } else {\n            rewardRate = reward.div(DURATION);\n            lastUpdateTime = starttime;\n            periodFinish = starttime.add(DURATION);\n            emit RewardAdded(reward);\n        }\n    }\n}\n",
  "sourcePath": "/Volumes/Developer/Workspace/farmbria/fat-protocol/contracts/distribution/FACFATPool.sol",
  "compiler": {
    "name": "solc",
    "version": "0.6.12+commit.27d51765.Emscripten.clang"
  },
  "schemaVersion": "3.3.1",
  "updatedAt": "2021-03-17T11:23:56.514Z",
  "networkType": "ethereum",
  "devdoc": {
    "kind": "dev",
    "methods": {
      "owner()": {
        "details": "Returns the address of the current owner."
      },
      "renounceOwnership()": {
        "details": "Leaves the contract without owner. It will not be possible to call `onlyOwner` functions anymore. Can only be called by the current owner. NOTE: Renouncing ownership will leave the contract without an owner, thereby removing any functionality that is only available to the owner."
      },
      "transferOwnership(address)": {
        "details": "Transfers ownership of the contract to a new account (`newOwner`). Can only be called by the current owner."
      }
    },
    "version": 1
  },
  "userdoc": {
    "kind": "user",
    "methods": {},
    "version": 1
  }
}