{
  "contractName": "InitialShareDistributor",
  "abi": [
    {
      "inputs": [
        {
          "internalType": "contract IBEP20",
          "name": "_share",
          "type": "address"
        },
        {
          "internalType": "contract IRewardDistributionRecipient",
          "name": "_busdFatLPPool",
          "type": "address"
        },
        {
          "internalType": "uint256",
          "name": "_busdFatInitialBalance",
          "type": "uint256"
        },
        {
          "internalType": "contract IRewardDistributionRecipient",
          "name": "_busdFacLPPool",
          "type": "address"
        },
        {
          "internalType": "uint256",
          "name": "_busdFacInitialBalance",
          "type": "uint256"
        },
        {
          "internalType": "contract IRewardDistributionRecipient",
          "name": "_busdFasLPPool",
          "type": "address"
        },
        {
          "internalType": "uint256",
          "name": "_busdFasInitialBalance",
          "type": "uint256"
        }
      ],
      "stateMutability": "nonpayable",
      "type": "constructor"
    },
    {
      "anonymous": false,
      "inputs": [
        {
          "indexed": false,
          "internalType": "address",
          "name": "pool",
          "type": "address"
        },
        {
          "indexed": false,
          "internalType": "uint256",
          "name": "cashAmount",
          "type": "uint256"
        }
      ],
      "name": "Distributed",
      "type": "event"
    },
    {
      "inputs": [],
      "name": "busdFacInitialBalance",
      "outputs": [
        {
          "internalType": "uint256",
          "name": "",
          "type": "uint256"
        }
      ],
      "stateMutability": "view",
      "type": "function",
      "constant": true
    },
    {
      "inputs": [],
      "name": "busdFacLPPool",
      "outputs": [
        {
          "internalType": "contract IRewardDistributionRecipient",
          "name": "",
          "type": "address"
        }
      ],
      "stateMutability": "view",
      "type": "function",
      "constant": true
    },
    {
      "inputs": [],
      "name": "busdFasInitialBalance",
      "outputs": [
        {
          "internalType": "uint256",
          "name": "",
          "type": "uint256"
        }
      ],
      "stateMutability": "view",
      "type": "function",
      "constant": true
    },
    {
      "inputs": [],
      "name": "busdFasLPPool",
      "outputs": [
        {
          "internalType": "contract IRewardDistributionRecipient",
          "name": "",
          "type": "address"
        }
      ],
      "stateMutability": "view",
      "type": "function",
      "constant": true
    },
    {
      "inputs": [],
      "name": "busdFatInitialBalance",
      "outputs": [
        {
          "internalType": "uint256",
          "name": "",
          "type": "uint256"
        }
      ],
      "stateMutability": "view",
      "type": "function",
      "constant": true
    },
    {
      "inputs": [],
      "name": "busdFatLPPool",
      "outputs": [
        {
          "internalType": "contract IRewardDistributionRecipient",
          "name": "",
          "type": "address"
        }
      ],
      "stateMutability": "view",
      "type": "function",
      "constant": true
    },
    {
      "inputs": [],
      "name": "once",
      "outputs": [
        {
          "internalType": "bool",
          "name": "",
          "type": "bool"
        }
      ],
      "stateMutability": "view",
      "type": "function",
      "constant": true
    },
    {
      "inputs": [],
      "name": "share",
      "outputs": [
        {
          "internalType": "contract IBEP20",
          "name": "",
          "type": "address"
        }
      ],
      "stateMutability": "view",
      "type": "function",
      "constant": true
    },
    {
      "inputs": [],
      "name": "distribute",
      "outputs": [],
      "stateMutability": "nonpayable",
      "type": "function"
    }
  ],
  "bytecode": "0x608060405260016000806101000a81548160ff02191690831515021790555034801561002a57600080fd5b50604051610b51380380610b51833981810160405260e081101561004d57600080fd5b810190808051906020019092919080519060200190929190805190602001909291908051906020019092919080519060200190929190805190602001909291908051906020019092919050505086600060016101000a81548173ffffffffffffffffffffffffffffffffffffffff021916908373ffffffffffffffffffffffffffffffffffffffff16021790555085600160006101000a81548173ffffffffffffffffffffffffffffffffffffffff021916908373ffffffffffffffffffffffffffffffffffffffff1602179055508460028190555083600360006101000a81548173ffffffffffffffffffffffffffffffffffffffff021916908373ffffffffffffffffffffffffffffffffffffffff1602179055508260048190555081600560006101000a81548173ffffffffffffffffffffffffffffffffffffffff021916908373ffffffffffffffffffffffffffffffffffffffff1602179055508060068190555050505050505050610988806101c96000396000f3fe608060405234801561001057600080fd5b50600436106100935760003560e01c8063a3f2371111610066578063a3f237111461013e578063a8d5fd651461015c578063b3a6a1f814610190578063e4fc6b6d146101c4578063f6feaab2146101ce57610093565b8063292a3f7e146100985780637c9792c9146100b857806380207ef7146100d6578063936c827c1461010a575b600080fd5b6100a06101ec565b60405180821515815260200191505060405180910390f35b6100c06101fd565b6040518082815260200191505060405180910390f35b6100de610203565b604051808273ffffffffffffffffffffffffffffffffffffffff16815260200191505060405180910390f35b610112610229565b604051808273ffffffffffffffffffffffffffffffffffffffff16815260200191505060405180910390f35b61014661024f565b6040518082815260200191505060405180910390f35b610164610255565b604051808273ffffffffffffffffffffffffffffffffffffffff16815260200191505060405180910390f35b61019861027b565b604051808273ffffffffffffffffffffffffffffffffffffffff16815260200191505060405180910390f35b6101cc6102a1565b005b6101d6610911565b6040518082815260200191505060405180910390f35b60008054906101000a900460ff1681565b60045481565b600360009054906101000a900473ffffffffffffffffffffffffffffffffffffffff1681565b600160009054906101000a900473ffffffffffffffffffffffffffffffffffffffff1681565b60025481565b600060019054906101000a900473ffffffffffffffffffffffffffffffffffffffff1681565b600560009054906101000a900473ffffffffffffffffffffffffffffffffffffffff1681565b60008054906101000a900460ff16610304576040517f08c379a000000000000000000000000000000000000000000000000000000000815260040180806020018281038252603b815260200180610918603b913960400191505060405180910390fd5b600060019054906101000a900473ffffffffffffffffffffffffffffffffffffffff1673ffffffffffffffffffffffffffffffffffffffff1663a9059cbb600160009054906101000a900473ffffffffffffffffffffffffffffffffffffffff166002546040518363ffffffff1660e01b8152600401808373ffffffffffffffffffffffffffffffffffffffff16815260200182815260200192505050602060405180830381600087803b1580156103bb57600080fd5b505af11580156103cf573d6000803e3d6000fd5b505050506040513d60208110156103e557600080fd5b810190808051906020019092919050505050600160009054906101000a900473ffffffffffffffffffffffffffffffffffffffff1673ffffffffffffffffffffffffffffffffffffffff16633c6b16ab6002546040518263ffffffff1660e01b815260040180828152602001915050600060405180830381600087803b15801561046e57600080fd5b505af1158015610482573d6000803e3d6000fd5b505050507fb649c98f58055c520df0dcb5709eff2e931217ff2fb1e21376130d31bbb1c0af600160009054906101000a900473ffffffffffffffffffffffffffffffffffffffff16600254604051808373ffffffffffffffffffffffffffffffffffffffff1681526020018281526020019250505060405180910390a1600060019054906101000a900473ffffffffffffffffffffffffffffffffffffffff1673ffffffffffffffffffffffffffffffffffffffff1663a9059cbb600360009054906101000a900473ffffffffffffffffffffffffffffffffffffffff166004546040518363ffffffff1660e01b8152600401808373ffffffffffffffffffffffffffffffffffffffff16815260200182815260200192505050602060405180830381600087803b1580156105b657600080fd5b505af11580156105ca573d6000803e3d6000fd5b505050506040513d60208110156105e057600080fd5b810190808051906020019092919050505050600360009054906101000a900473ffffffffffffffffffffffffffffffffffffffff1673ffffffffffffffffffffffffffffffffffffffff16633c6b16ab6004546040518263ffffffff1660e01b815260040180828152602001915050600060405180830381600087803b15801561066957600080fd5b505af115801561067d573d6000803e3d6000fd5b505050507fb649c98f58055c520df0dcb5709eff2e931217ff2fb1e21376130d31bbb1c0af600360009054906101000a900473ffffffffffffffffffffffffffffffffffffffff16600454604051808373ffffffffffffffffffffffffffffffffffffffff1681526020018281526020019250505060405180910390a1600060019054906101000a900473ffffffffffffffffffffffffffffffffffffffff1673ffffffffffffffffffffffffffffffffffffffff1663a9059cbb600560009054906101000a900473ffffffffffffffffffffffffffffffffffffffff166006546040518363ffffffff1660e01b8152600401808373ffffffffffffffffffffffffffffffffffffffff16815260200182815260200192505050602060405180830381600087803b1580156107b157600080fd5b505af11580156107c5573d6000803e3d6000fd5b505050506040513d60208110156107db57600080fd5b810190808051906020019092919050505050600560009054906101000a900473ffffffffffffffffffffffffffffffffffffffff1673ffffffffffffffffffffffffffffffffffffffff16633c6b16ab6006546040518263ffffffff1660e01b815260040180828152602001915050600060405180830381600087803b15801561086457600080fd5b505af1158015610878573d6000803e3d6000fd5b505050507fb649c98f58055c520df0dcb5709eff2e931217ff2fb1e21376130d31bbb1c0af600560009054906101000a900473ffffffffffffffffffffffffffffffffffffffff16600654604051808373ffffffffffffffffffffffffffffffffffffffff1681526020018281526020019250505060405180910390a160008060006101000a81548160ff021916908315150217905550565b6006548156fe496e697469616c53686172654469737472696275746f723a20796f752063616e6e6f742072756e20746869732066756e6374696f6e207477696365a26469706673582212205f288fcff8ec22d1b1faa6b29eaf47538936110f25b390cc99f8b03e05508c1c64736f6c634300060c0033",
  "immutableReferences": {},
  "source": "pragma solidity ^0.6.0;\n\nimport '@openzeppelin/contracts/math/SafeMath.sol';\nimport '../lib/IBEP20.sol';\n\nimport '../interfaces/IDistributor.sol';\nimport '../interfaces/IRewardDistributionRecipient.sol';\n\ncontract InitialShareDistributor is IDistributor {\n    using SafeMath for uint256;\n\n    event Distributed(address pool, uint256 cashAmount);\n\n    bool public once = true;\n\n    IBEP20 public share;\n\n    IRewardDistributionRecipient public busdFatLPPool;\n    uint256 public busdFatInitialBalance;\n    IRewardDistributionRecipient public busdFacLPPool;\n    uint256 public busdFacInitialBalance;\n    IRewardDistributionRecipient public busdFasLPPool;\n    uint256 public busdFasInitialBalance;\n\n    constructor(\n        IBEP20 _share,\n        IRewardDistributionRecipient _busdFatLPPool,\n        uint256 _busdFatInitialBalance,\n        IRewardDistributionRecipient _busdFacLPPool,\n        uint256 _busdFacInitialBalance,\n        IRewardDistributionRecipient _busdFasLPPool,\n        uint256 _busdFasInitialBalance\n    ) public {\n        share = _share;\n        busdFatLPPool = _busdFatLPPool;\n        busdFatInitialBalance = _busdFatInitialBalance;\n        busdFacLPPool = _busdFacLPPool;\n        busdFacInitialBalance = _busdFacInitialBalance;\n        busdFasLPPool = _busdFasLPPool;\n        busdFasInitialBalance = _busdFasInitialBalance;\n    }\n\n    function distribute() public override {\n        require(\n            once,\n            'InitialShareDistributor: you cannot run this function twice'\n        );\n\n        share.transfer(address(busdFatLPPool), busdFatInitialBalance);\n        busdFatLPPool.notifyRewardAmount(busdFatInitialBalance);\n        emit Distributed(address(busdFatLPPool), busdFatInitialBalance);\n\n        share.transfer(address(busdFacLPPool), busdFacInitialBalance);\n        busdFacLPPool.notifyRewardAmount(busdFacInitialBalance);\n        emit Distributed(address(busdFacLPPool), busdFacInitialBalance);\n\n        share.transfer(address(busdFasLPPool), busdFasInitialBalance);\n        busdFasLPPool.notifyRewardAmount(busdFasInitialBalance);\n        emit Distributed(address(busdFasLPPool), busdFasInitialBalance);\n\n        once = false;\n    }\n}\n",
  "sourcePath": "/Volumes/Developer/Workspace/farmbria/fat-protocol/contracts/distributor/InitialShareDistributor.sol",
  "compiler": {
    "name": "solc",
    "version": "0.6.12+commit.27d51765.Emscripten.clang"
  },
  "schemaVersion": "3.3.1",
  "updatedAt": "2021-03-17T11:22:11.423Z",
  "networkType": "ethereum",
  "devdoc": {
    "kind": "dev",
    "methods": {},
    "version": 1
  },
  "userdoc": {
    "kind": "user",
    "methods": {},
    "version": 1
  }
}