{
  "contractName": "InitialCashLpDistributor",
  "abi": [
    {
      "inputs": [
        {
          "internalType": "contract IBEP20",
          "name": "_cash",
          "type": "address"
        },
        {
          "internalType": "contract IRewardDistributionRecipient",
          "name": "_bnbFatLPPool",
          "type": "address"
        },
        {
          "internalType": "uint256",
          "name": "_bnbFatInitialBalance",
          "type": "uint256"
        }
      ],
      "stateMutability": "nonpayable",
      "type": "constructor"
    },
    {
      "anonymous": false,
      "inputs": [
        {
          "indexed": false,
          "internalType": "address",
          "name": "pool",
          "type": "address"
        },
        {
          "indexed": false,
          "internalType": "uint256",
          "name": "cashAmount",
          "type": "uint256"
        }
      ],
      "name": "Distributed",
      "type": "event"
    },
    {
      "inputs": [],
      "name": "bnbFatInitialBalance",
      "outputs": [
        {
          "internalType": "uint256",
          "name": "",
          "type": "uint256"
        }
      ],
      "stateMutability": "view",
      "type": "function",
      "constant": true
    },
    {
      "inputs": [],
      "name": "bnbFatLPPool",
      "outputs": [
        {
          "internalType": "contract IRewardDistributionRecipient",
          "name": "",
          "type": "address"
        }
      ],
      "stateMutability": "view",
      "type": "function",
      "constant": true
    },
    {
      "inputs": [],
      "name": "cash",
      "outputs": [
        {
          "internalType": "contract IBEP20",
          "name": "",
          "type": "address"
        }
      ],
      "stateMutability": "view",
      "type": "function",
      "constant": true
    },
    {
      "inputs": [],
      "name": "once",
      "outputs": [
        {
          "internalType": "bool",
          "name": "",
          "type": "bool"
        }
      ],
      "stateMutability": "view",
      "type": "function",
      "constant": true
    },
    {
      "inputs": [],
      "name": "distribute",
      "outputs": [],
      "stateMutability": "nonpayable",
      "type": "function"
    }
  ],
  "bytecode": "0x608060405260016000806101000a81548160ff02191690831515021790555034801561002a57600080fd5b506040516105683803806105688339818101604052606081101561004d57600080fd5b8101908080519060200190929190805190602001909291908051906020019092919050505082600060016101000a81548173ffffffffffffffffffffffffffffffffffffffff021916908373ffffffffffffffffffffffffffffffffffffffff16021790555081600160006101000a81548173ffffffffffffffffffffffffffffffffffffffff021916908373ffffffffffffffffffffffffffffffffffffffff1602179055508060028190555050505061045b8061010d6000396000f3fe608060405234801561001057600080fd5b50600436106100575760003560e01c8063292a3f7e1461005c578063961be3911461007c578063aa252fc0146100b0578063e1f84822146100ce578063e4fc6b6d14610102575b600080fd5b61006461010c565b60405180821515815260200191505060405180910390f35b61008461011d565b604051808273ffffffffffffffffffffffffffffffffffffffff16815260200191505060405180910390f35b6100b8610143565b6040518082815260200191505060405180910390f35b6100d6610149565b604051808273ffffffffffffffffffffffffffffffffffffffff16815260200191505060405180910390f35b61010a61016f565b005b60008054906101000a900460ff1681565b600060019054906101000a900473ffffffffffffffffffffffffffffffffffffffff1681565b60025481565b600160009054906101000a900473ffffffffffffffffffffffffffffffffffffffff1681565b60008054906101000a900460ff166101d2576040517f08c379a000000000000000000000000000000000000000000000000000000000815260040180806020018281038252603c8152602001806103ea603c913960400191505060405180910390fd5b600060019054906101000a900473ffffffffffffffffffffffffffffffffffffffff1673ffffffffffffffffffffffffffffffffffffffff1663a9059cbb600160009054906101000a900473ffffffffffffffffffffffffffffffffffffffff166002546040518363ffffffff1660e01b8152600401808373ffffffffffffffffffffffffffffffffffffffff16815260200182815260200192505050602060405180830381600087803b15801561028957600080fd5b505af115801561029d573d6000803e3d6000fd5b505050506040513d60208110156102b357600080fd5b810190808051906020019092919050505050600160009054906101000a900473ffffffffffffffffffffffffffffffffffffffff1673ffffffffffffffffffffffffffffffffffffffff16633c6b16ab6002546040518263ffffffff1660e01b815260040180828152602001915050600060405180830381600087803b15801561033c57600080fd5b505af1158015610350573d6000803e3d6000fd5b505050507fb649c98f58055c520df0dcb5709eff2e931217ff2fb1e21376130d31bbb1c0af600160009054906101000a900473ffffffffffffffffffffffffffffffffffffffff16600254604051808373ffffffffffffffffffffffffffffffffffffffff1681526020018281526020019250505060405180910390a160008060006101000a81548160ff02191690831515021790555056fe496e697469616c436173684c704469737472696275746f723a20796f752063616e6e6f742072756e20746869732066756e6374696f6e207477696365a26469706673582212200414b62a832304a593fb01f79f99149b3fb71b4ada5a5d64679998facde4441664736f6c634300060c0033",
  "immutableReferences": {},
  "source": "pragma solidity ^0.6.0;\n\nimport '@openzeppelin/contracts/math/SafeMath.sol';\nimport '../lib/IBEP20.sol';\n\nimport '../interfaces/IDistributor.sol';\nimport '../interfaces/IRewardDistributionRecipient.sol';\n\ncontract InitialCashLpDistributor is IDistributor {\n\n    using SafeMath for uint256;\n\n    event Distributed(address pool, uint256 cashAmount);\n\n    bool public once = true;\n\n    IBEP20 public cash;\n\n    IRewardDistributionRecipient public bnbFatLPPool;\n    uint256 public bnbFatInitialBalance;\n\n    constructor (\n        IBEP20 _cash,\n        IRewardDistributionRecipient _bnbFatLPPool,\n        uint256 _bnbFatInitialBalance\n    ) public {\n        cash = _cash;\n        bnbFatLPPool = _bnbFatLPPool;\n        bnbFatInitialBalance = _bnbFatInitialBalance;\n    }\n\n    function distribute() public override {\n        require(\n            once,\n            'InitialCashLpDistributor: you cannot run this function twice'\n        );\n        cash.transfer(address(bnbFatLPPool), bnbFatInitialBalance);\n        bnbFatLPPool.notifyRewardAmount(bnbFatInitialBalance);\n        emit Distributed(address(bnbFatLPPool), bnbFatInitialBalance);\n\n        once = false;\n    }\n}\n",
  "sourcePath": "/Volumes/Developer/Workspace/farmbria/fat-protocol/contracts/distributor/InitialCashLpDistributor.sol",
  "compiler": {
    "name": "solc",
    "version": "0.6.12+commit.27d51765.Emscripten.clang"
  },
  "schemaVersion": "3.3.1",
  "updatedAt": "2021-03-17T11:18:26.392Z",
  "networkType": "ethereum",
  "devdoc": {
    "kind": "dev",
    "methods": {},
    "version": 1
  },
  "userdoc": {
    "kind": "user",
    "methods": {},
    "version": 1
  }
}