{
  "contractName": "InitialCashDistributor",
  "abi": [
    {
      "inputs": [
        {
          "internalType": "contract IBEP20",
          "name": "_cash",
          "type": "address"
        },
        {
          "internalType": "contract IRewardDistributionRecipient[]",
          "name": "_pools",
          "type": "address[]"
        },
        {
          "internalType": "uint256",
          "name": "_totalInitialBalance",
          "type": "uint256"
        }
      ],
      "stateMutability": "nonpayable",
      "type": "constructor"
    },
    {
      "anonymous": false,
      "inputs": [
        {
          "indexed": false,
          "internalType": "address",
          "name": "pool",
          "type": "address"
        },
        {
          "indexed": false,
          "internalType": "uint256",
          "name": "cashAmount",
          "type": "uint256"
        }
      ],
      "name": "Distributed",
      "type": "event"
    },
    {
      "inputs": [],
      "name": "cash",
      "outputs": [
        {
          "internalType": "contract IBEP20",
          "name": "",
          "type": "address"
        }
      ],
      "stateMutability": "view",
      "type": "function",
      "constant": true
    },
    {
      "inputs": [],
      "name": "once",
      "outputs": [
        {
          "internalType": "bool",
          "name": "",
          "type": "bool"
        }
      ],
      "stateMutability": "view",
      "type": "function",
      "constant": true
    },
    {
      "inputs": [
        {
          "internalType": "uint256",
          "name": "",
          "type": "uint256"
        }
      ],
      "name": "pools",
      "outputs": [
        {
          "internalType": "contract IRewardDistributionRecipient",
          "name": "",
          "type": "address"
        }
      ],
      "stateMutability": "view",
      "type": "function",
      "constant": true
    },
    {
      "inputs": [],
      "name": "totalInitialBalance",
      "outputs": [
        {
          "internalType": "uint256",
          "name": "",
          "type": "uint256"
        }
      ],
      "stateMutability": "view",
      "type": "function",
      "constant": true
    },
    {
      "inputs": [],
      "name": "distribute",
      "outputs": [],
      "stateMutability": "nonpayable",
      "type": "function"
    }
  ],
  "bytecode": "0x608060405260016000806101000a81548160ff02191690831515021790555034801561002a57600080fd5b506040516108c73803806108c78339818101604052606081101561004d57600080fd5b81019080805190602001909291908051604051939291908464010000000082111561007757600080fd5b8382019150602082018581111561008d57600080fd5b82518660208202830111640100000000821117156100aa57600080fd5b8083526020830192505050908051906020019060200280838360005b838110156100e15780820151818401526020810190506100c6565b5050505090500160405260200180519060200190929190505050600082511415610173576040517f08c379a00000000000000000000000000000000000000000000000000000000081526004018080602001828103825260208152602001807f61206c697374206f662046414320706f6f6c732061726520726571756972656481525060200191505060405180910390fd5b82600060016101000a81548173ffffffffffffffffffffffffffffffffffffffff021916908373ffffffffffffffffffffffffffffffffffffffff16021790555081600190805190602001906101ca9291906101da565b508060028190555050505061029f565b828054828255906000526020600020908101928215610253579160200282015b828111156102525782518260006101000a81548173ffffffffffffffffffffffffffffffffffffffff021916908373ffffffffffffffffffffffffffffffffffffffff160217905550916020019190600101906101fa565b5b5090506102609190610264565b5090565b5b8082111561029b57600081816101000a81549073ffffffffffffffffffffffffffffffffffffffff021916905550600101610265565b5090565b610619806102ae6000396000f3fe608060405234801561001057600080fd5b50600436106100575760003560e01c80631d1076031461005c578063292a3f7e1461007a578063961be3911461009a578063ac4afa38146100ce578063e4fc6b6d14610126575b600080fd5b610064610130565b6040518082815260200191505060405180910390f35b610082610136565b60405180821515815260200191505060405180910390f35b6100a2610147565b604051808273ffffffffffffffffffffffffffffffffffffffff16815260200191505060405180910390f35b6100fa600480360360208110156100e457600080fd5b810190808035906020019092919050505061016d565b604051808273ffffffffffffffffffffffffffffffffffffffff16815260200191505060405180910390f35b61012e6101a9565b005b60025481565b60008054906101000a900460ff1681565b600060019054906101000a900473ffffffffffffffffffffffffffffffffffffffff1681565b6001818154811061017a57fe5b906000526020600020016000915054906101000a900473ffffffffffffffffffffffffffffffffffffffff1681565b60008054906101000a900460ff1661020c576040517f08c379a000000000000000000000000000000000000000000000000000000000815260040180806020018281038252603a8152602001806105aa603a913960400191505060405180910390fd5b60005b60018054905081101561047c57600061023860018054905060025461049990919063ffffffff16565b9050600060019054906101000a900473ffffffffffffffffffffffffffffffffffffffff1673ffffffffffffffffffffffffffffffffffffffff1663a9059cbb6001848154811061028557fe5b9060005260206000200160009054906101000a900473ffffffffffffffffffffffffffffffffffffffff16836040518363ffffffff1660e01b8152600401808373ffffffffffffffffffffffffffffffffffffffff16815260200182815260200192505050602060405180830381600087803b15801561030457600080fd5b505af1158015610318573d6000803e3d6000fd5b505050506040513d602081101561032e57600080fd5b8101908080519060200190929190505050506001828154811061034d57fe5b9060005260206000200160009054906101000a900473ffffffffffffffffffffffffffffffffffffffff1673ffffffffffffffffffffffffffffffffffffffff16633c6b16ab826040518263ffffffff1660e01b815260040180828152602001915050600060405180830381600087803b1580156103ca57600080fd5b505af11580156103de573d6000803e3d6000fd5b505050507fb649c98f58055c520df0dcb5709eff2e931217ff2fb1e21376130d31bbb1c0af6001838154811061041057fe5b9060005260206000200160009054906101000a900473ffffffffffffffffffffffffffffffffffffffff1682604051808373ffffffffffffffffffffffffffffffffffffffff1681526020018281526020019250505060405180910390a150808060010191505061020f565b5060008060006101000a81548160ff021916908315150217905550565b60006104db83836040518060400160405280601a81526020017f536166654d6174683a206469766973696f6e206279207a65726f0000000000008152506104e3565b905092915050565b6000808311829061058f576040517f08c379a00000000000000000000000000000000000000000000000000000000081526004018080602001828103825283818151815260200191508051906020019080838360005b83811015610554578082015181840152602081019050610539565b50505050905090810190601f1680156105815780820380516001836020036101000a031916815260200191505b509250505060405180910390fd5b50600083858161059b57fe5b04905080915050939250505056fe496e697469616c436173684469737472696275746f723a20796f752063616e6e6f742072756e20746869732066756e6374696f6e207477696365a2646970667358221220dc5a9d416fc7c684ad641bb0e76aa0162d784ee01b4ec7cfd97e09be8a1229bc64736f6c634300060c0033",
  "immutableReferences": {},
  "source": "pragma solidity ^0.6.0;\n\n// K-Rewards Pools - Communities\nimport '../distribution/FACGUMPool.sol';\nimport '../distribution/FACSFPPool.sol';\nimport '../distribution/FACTWTPool.sol';\nimport '../distribution/FACLINKPool.sol';\nimport '../distribution/FACFATPool.sol';\nimport '../distribution/FACADAPool.sol';\nimport '../distribution/FACDOTPool.sol';\nimport '../distribution/FACSXPPool.sol';\nimport '../distribution/FACXRPPool.sol';\nimport '../distribution/FACWBNBPool.sol';\nimport '../distribution/FACETHPool.sol';\nimport '../distribution/FACBURGERPool.sol';\nimport '../distribution/FACBAKEPool.sol';\nimport '../distribution/FACCAKEPool.sol';\n// K-Rewards Pools - Stablecoins\nimport '../distribution/FACUSDCPool.sol';\nimport '../distribution/FACBUSDPool.sol';\nimport '../distribution/FACDAIPool.sol';\nimport '../distribution/FACBUSDTPool.sol';\nimport '../interfaces/IDistributor.sol';\n\ncontract InitialCashDistributor is IDistributor {\n    using SafeMath for uint256;\n\n    event Distributed(address pool, uint256 cashAmount);\n\n    bool public once = true;\n\n    IBEP20 public cash;\n    IRewardDistributionRecipient[] public pools;\n    uint256 public totalInitialBalance;\n\n    constructor(\n        IBEP20 _cash,\n        IRewardDistributionRecipient[] memory _pools,\n        uint256 _totalInitialBalance\n\n    ) public {\n        require(_pools.length != 0, 'a list of FAC pools are required');\n        cash = _cash;\n        pools = _pools;\n        totalInitialBalance = _totalInitialBalance;\n    }\n\n    function distribute() public override {\n        require(\n            once,\n            'InitialCashDistributor: you cannot run this function twice'\n        );\n\n        for (uint256 i = 0; i < pools.length; i++) {\n            uint256 amount = totalInitialBalance.div(pools.length);\n\n            cash.transfer(address(pools[i]), amount);\n            pools[i].notifyRewardAmount(amount);\n\n            emit Distributed(address(pools[i]), amount);\n        }\n\n        once = false;\n    }\n}\n",
  "sourcePath": "/Volumes/Developer/Workspace/farmbria/fat-protocol/contracts/distributor/InitialCashDistributor.sol",
  "compiler": {
    "name": "solc",
    "version": "0.6.12+commit.27d51765.Emscripten.clang"
  },
  "schemaVersion": "3.3.1",
  "updatedAt": "2021-03-17T11:22:11.419Z",
  "networkType": "ethereum",
  "devdoc": {
    "kind": "dev",
    "methods": {},
    "version": 1
  },
  "userdoc": {
    "kind": "user",
    "methods": {},
    "version": 1
  }
}