{
  "contractName": "InitialTokenDistributor",
  "abi": [
    {
      "inputs": [
        {
          "internalType": "contract IERC20",
          "name": "_cash",
          "type": "address"
        },
        {
          "internalType": "contract IERC20",
          "name": "_token",
          "type": "address"
        },
        {
          "internalType": "contract IRewardDistributionRecipient[]",
          "name": "_pools",
          "type": "address[]"
        },
        {
          "internalType": "uint256",
          "name": "_totalInitialBalance1",
          "type": "uint256"
        },
        {
          "internalType": "uint256",
          "name": "_totalInitialBalance2",
          "type": "uint256"
        }
      ],
      "stateMutability": "nonpayable",
      "type": "constructor"
    },
    {
      "anonymous": false,
      "inputs": [
        {
          "indexed": false,
          "internalType": "address",
          "name": "pool",
          "type": "address"
        },
        {
          "indexed": false,
          "internalType": "uint256",
          "name": "cashAmount",
          "type": "uint256"
        }
      ],
      "name": "Distributed",
      "type": "event"
    },
    {
      "inputs": [],
      "name": "cash",
      "outputs": [
        {
          "internalType": "contract IERC20",
          "name": "",
          "type": "address"
        }
      ],
      "stateMutability": "view",
      "type": "function",
      "constant": true
    },
    {
      "inputs": [],
      "name": "once",
      "outputs": [
        {
          "internalType": "bool",
          "name": "",
          "type": "bool"
        }
      ],
      "stateMutability": "view",
      "type": "function",
      "constant": true
    },
    {
      "inputs": [
        {
          "internalType": "uint256",
          "name": "",
          "type": "uint256"
        }
      ],
      "name": "pools",
      "outputs": [
        {
          "internalType": "contract IRewardDistributionRecipient",
          "name": "",
          "type": "address"
        }
      ],
      "stateMutability": "view",
      "type": "function",
      "constant": true
    },
    {
      "inputs": [],
      "name": "token",
      "outputs": [
        {
          "internalType": "contract IERC20",
          "name": "",
          "type": "address"
        }
      ],
      "stateMutability": "view",
      "type": "function",
      "constant": true
    },
    {
      "inputs": [],
      "name": "totalInitialBalance1",
      "outputs": [
        {
          "internalType": "uint256",
          "name": "",
          "type": "uint256"
        }
      ],
      "stateMutability": "view",
      "type": "function",
      "constant": true
    },
    {
      "inputs": [],
      "name": "totalInitialBalance2",
      "outputs": [
        {
          "internalType": "uint256",
          "name": "",
          "type": "uint256"
        }
      ],
      "stateMutability": "view",
      "type": "function",
      "constant": true
    },
    {
      "inputs": [],
      "name": "distribute",
      "outputs": [],
      "stateMutability": "nonpayable",
      "type": "function"
    }
  ],
  "bytecode": "0x608060405260016000806101000a81548160ff02191690831515021790555034801561002a57600080fd5b50604051610b7b380380610b7b833981810160405260a081101561004d57600080fd5b8101908080519060200190929190805190602001909291908051604051939291908464010000000082111561008157600080fd5b8382019150602082018581111561009757600080fd5b82518660208202830111640100000000821117156100b457600080fd5b8083526020830192505050908051906020019060200280838360005b838110156100eb5780820151818401526020810190506100d0565b505050509050016040526020018051906020019092919080519060200190929190505050600083511415610187576040517f08c379a00000000000000000000000000000000000000000000000000000000081526004018080602001828103825260208152602001807f61206c697374206f662046415420706f6f6c732061726520726571756972656481525060200191505060405180910390fd5b84600060016101000a81548173ffffffffffffffffffffffffffffffffffffffff021916908373ffffffffffffffffffffffffffffffffffffffff16021790555083600160006101000a81548173ffffffffffffffffffffffffffffffffffffffff021916908373ffffffffffffffffffffffffffffffffffffffff160217905550826002908051906020019061021f929190610238565b50816003819055508060048190555050505050506102fd565b8280548282559060005260206000209081019282156102b1579160200282015b828111156102b05782518260006101000a81548173ffffffffffffffffffffffffffffffffffffffff021916908373ffffffffffffffffffffffffffffffffffffffff16021790555091602001919060010190610258565b5b5090506102be91906102c2565b5090565b5b808211156102f957600081816101000a81549073ffffffffffffffffffffffffffffffffffffffff0219169055506001016102c3565b5090565b61086f8061030c6000396000f3fe608060405234801561001057600080fd5b506004361061007d5760003560e01c8063ac4afa381161005b578063ac4afa38146100f4578063e4fc6b6d1461014c578063fc0c546a14610156578063fca4e5d31461018a5761007d565b8063292a3f7e146100825780634d5e5e93146100a2578063961be391146100c0575b600080fd5b61008a6101a8565b60405180821515815260200191505060405180910390f35b6100aa6101b9565b6040518082815260200191505060405180910390f35b6100c86101bf565b604051808273ffffffffffffffffffffffffffffffffffffffff16815260200191505060405180910390f35b6101206004803603602081101561010a57600080fd5b81019080803590602001909291905050506101e5565b604051808273ffffffffffffffffffffffffffffffffffffffff16815260200191505060405180910390f35b610154610221565b005b61015e6106c2565b604051808273ffffffffffffffffffffffffffffffffffffffff16815260200191505060405180910390f35b6101926106e8565b6040518082815260200191505060405180910390f35b60008054906101000a900460ff1681565b60035481565b600060019054906101000a900473ffffffffffffffffffffffffffffffffffffffff1681565b600281815481106101f257fe5b906000526020600020016000915054906101000a900473ffffffffffffffffffffffffffffffffffffffff1681565b60008054906101000a900460ff16610284576040517f08c379a000000000000000000000000000000000000000000000000000000000815260040180806020018281038252603b8152602001806107ff603b913960400191505060405180910390fd5b60005b6002805490508110156106a55760006102b06002805490506003546106ee90919063ffffffff16565b905060006102ce6002805490506004546106ee90919063ffffffff16565b9050600060019054906101000a900473ffffffffffffffffffffffffffffffffffffffff1673ffffffffffffffffffffffffffffffffffffffff1663a9059cbb6002858154811061031b57fe5b9060005260206000200160009054906101000a900473ffffffffffffffffffffffffffffffffffffffff16846040518363ffffffff1660e01b8152600401808373ffffffffffffffffffffffffffffffffffffffff16815260200182815260200192505050602060405180830381600087803b15801561039a57600080fd5b505af11580156103ae573d6000803e3d6000fd5b505050506040513d60208110156103c457600080fd5b8101908080519060200190929190505050507fb649c98f58055c520df0dcb5709eff2e931217ff2fb1e21376130d31bbb1c0af6002848154811061040457fe5b9060005260206000200160009054906101000a900473ffffffffffffffffffffffffffffffffffffffff1683604051808373ffffffffffffffffffffffffffffffffffffffff1681526020018281526020019250505060405180910390a1600160009054906101000a900473ffffffffffffffffffffffffffffffffffffffff1673ffffffffffffffffffffffffffffffffffffffff1663a9059cbb600285815481106104ad57fe5b9060005260206000200160009054906101000a900473ffffffffffffffffffffffffffffffffffffffff16836040518363ffffffff1660e01b8152600401808373ffffffffffffffffffffffffffffffffffffffff16815260200182815260200192505050602060405180830381600087803b15801561052c57600080fd5b505af1158015610540573d6000803e3d6000fd5b505050506040513d602081101561055657600080fd5b8101908080519060200190929190505050507fb649c98f58055c520df0dcb5709eff2e931217ff2fb1e21376130d31bbb1c0af6002848154811061059657fe5b9060005260206000200160009054906101000a900473ffffffffffffffffffffffffffffffffffffffff1682604051808373ffffffffffffffffffffffffffffffffffffffff1681526020018281526020019250505060405180910390a16002838154811061060157fe5b9060005260206000200160009054906101000a900473ffffffffffffffffffffffffffffffffffffffff1673ffffffffffffffffffffffffffffffffffffffff16633c6b16ab836040518263ffffffff1660e01b815260040180828152602001915050600060405180830381600087803b15801561067e57600080fd5b505af1158015610692573d6000803e3d6000fd5b5050505050508080600101915050610287565b5060008060006101000a81548160ff021916908315150217905550565b600160009054906101000a900473ffffffffffffffffffffffffffffffffffffffff1681565b60045481565b600061073083836040518060400160405280601a81526020017f536166654d6174683a206469766973696f6e206279207a65726f000000000000815250610738565b905092915050565b600080831182906107e4576040517f08c379a00000000000000000000000000000000000000000000000000000000081526004018080602001828103825283818151815260200191508051906020019080838360005b838110156107a957808201518184015260208101905061078e565b50505050905090810190601f1680156107d65780820380516001836020036101000a031916815260200191505b509250505060405180910390fd5b5060008385816107f057fe5b04905080915050939250505056fe496e697469616c546f6b656e4469737472696275746f723a20796f752063616e6e6f742072756e20746869732066756e6374696f6e207477696365a2646970667358221220fd5c3fd4f0af8b3a632d93822b49bb7e4759c19b2c56a4316d4f954b8474639064736f6c634300060c0033",
  "immutableReferences": {},
  "source": "pragma solidity ^0.6.0;\nimport '../distribution/USDTFATLPTokenCashPool.sol';\nimport '../interfaces/IDistributor.sol';\n\ncontract InitialTokenDistributor is IDistributor {\n    using SafeMath for uint256;\n\n    event Distributed(address pool, uint256 cashAmount);\n\n    bool public once = true;\n\n    IERC20 public cash;\n    IERC20 public token;\n    IRewardDistributionRecipient[] public pools;\n    uint256 public totalInitialBalance1;\n    uint256 public totalInitialBalance2;\n\n    constructor(\n        IERC20 _cash,\n        IERC20 _token,\n        IRewardDistributionRecipient[] memory _pools,\n        uint256 _totalInitialBalance1,\n        uint256 _totalInitialBalance2\n    ) public {\n        require(_pools.length != 0, 'a list of FAT pools are required');\n        cash = _cash;\n        token = _token;\n        pools = _pools;\n        totalInitialBalance1 = _totalInitialBalance1;\n        totalInitialBalance2 = _totalInitialBalance2;\n    }\n\n    function distribute() public override {\n        require(\n            once,\n            'InitialTokenDistributor: you cannot run this function twice'\n        );\n\n        for (uint256 i = 0; i < pools.length; i++) {\n            uint256 amount1 = totalInitialBalance1.div(pools.length);\n            uint256 amount2 = totalInitialBalance2.div(pools.length);\n\n            cash.transfer(address(pools[i]), amount1);\n            emit Distributed(address(pools[i]), amount1);\n            token.transfer(address(pools[i]), amount2);\n            emit Distributed(address(pools[i]), amount2);\n            pools[i].notifyRewardAmount(amount1);\n        }\n\n        once = false;\n    }\n}\n",
  "sourcePath": "/Volumes/Development/Workspace/farmbria/fat-protocol/contracts/distributor/InitialTokenDistributor.sol",
  "compiler": {
    "name": "solc",
    "version": "0.6.12+commit.27d51765.Emscripten.clang"
  },
  "schemaVersion": "3.3.3",
  "updatedAt": "2021-01-19T07:26:47.027Z",
  "networkType": "ethereum",
  "devdoc": {
    "kind": "dev",
    "methods": {},
    "version": 1
  },
  "userdoc": {
    "kind": "user",
    "methods": {},
    "version": 1
  }
}