{
  "contractName": "MockOracle",
  "abi": [
    {
      "anonymous": false,
      "inputs": [
        {
          "indexed": false,
          "internalType": "uint256",
          "name": "price0CumulativeLast",
          "type": "uint256"
        },
        {
          "indexed": false,
          "internalType": "uint256",
          "name": "price1CumulativeLast",
          "type": "uint256"
        }
      ],
      "name": "Updated",
      "type": "event"
    },
    {
      "inputs": [],
      "name": "error",
      "outputs": [
        {
          "internalType": "bool",
          "name": "",
          "type": "bool"
        }
      ],
      "stateMutability": "view",
      "type": "function"
    },
    {
      "inputs": [],
      "name": "price",
      "outputs": [
        {
          "internalType": "uint256",
          "name": "",
          "type": "uint256"
        }
      ],
      "stateMutability": "view",
      "type": "function"
    },
    {
      "inputs": [
        {
          "internalType": "uint256",
          "name": "_price",
          "type": "uint256"
        }
      ],
      "name": "setPrice",
      "outputs": [],
      "stateMutability": "nonpayable",
      "type": "function"
    },
    {
      "inputs": [
        {
          "internalType": "bool",
          "name": "_error",
          "type": "bool"
        }
      ],
      "name": "setRevert",
      "outputs": [],
      "stateMutability": "nonpayable",
      "type": "function"
    },
    {
      "inputs": [],
      "name": "update",
      "outputs": [],
      "stateMutability": "nonpayable",
      "type": "function"
    },
    {
      "inputs": [
        {
          "internalType": "address",
          "name": "",
          "type": "address"
        },
        {
          "internalType": "uint256",
          "name": "amountIn",
          "type": "uint256"
        }
      ],
      "name": "consult",
      "outputs": [
        {
          "internalType": "uint256",
          "name": "",
          "type": "uint256"
        }
      ],
      "stateMutability": "view",
      "type": "function"
    }
  ],
  "bytecode": "0x608060405234801561001057600080fd5b5061049a806100206000396000f3fe608060405234801561001057600080fd5b50600436106100625760003560e01c80633ddac953146100675780638fb5f171146100c957806391b7f5ed146100f9578063a035b1fe14610127578063a2e6204514610145578063c79f8b621461014f575b600080fd5b6100b36004803603604081101561007d57600080fd5b81019080803573ffffffffffffffffffffffffffffffffffffffff1690602001909291908035906020019092919050505061016f565b6040518082815260200191505060405180910390f35b6100f7600480360360208110156100df57600080fd5b810190808035151590602001909291905050506101a8565b005b6101256004803603602081101561010f57600080fd5b81019080803590602001909291905050506101c5565b005b61012f6101cf565b6040518082815260200191505060405180910390f35b61014d6101d5565b005b61015761029a565b60405180821515815260200191505060405180910390f35b60006101a0670de0b6b3a7640000610192846000546102ad90919063ffffffff16565b61033390919063ffffffff16565b905092915050565b80600160006101000a81548160ff02191690831515021790555050565b8060008190555050565b60005481565b600160009054906101000a900460ff1615610258576040517f08c379a00000000000000000000000000000000000000000000000000000000081526004018080602001828103825260148152602001807f4f7261636c653a206d6f636b6564206572726f7200000000000000000000000081525060200191505060405180910390fd5b7fd78a0cb8bb633d06981248b816e7bd33c2a35a6089241d099fa519e361cab902600080604051808381526020018281526020019250505060405180910390a1565b600160009054906101000a900460ff1681565b6000808314156102c0576000905061032d565b60008284029050828482816102d157fe5b0414610328576040517f08c379a00000000000000000000000000000000000000000000000000000000081526004018080602001828103825260218152602001806104446021913960400191505060405180910390fd5b809150505b92915050565b600061037583836040518060400160405280601a81526020017f536166654d6174683a206469766973696f6e206279207a65726f00000000000081525061037d565b905092915050565b60008083118290610429576040517f08c379a00000000000000000000000000000000000000000000000000000000081526004018080602001828103825283818151815260200191508051906020019080838360005b838110156103ee5780820151818401526020810190506103d3565b50505050905090810190601f16801561041b5780820380516001836020036101000a031916815260200191505b509250505060405180910390fd5b50600083858161043557fe5b04905080915050939250505056fe536166654d6174683a206d756c7469706c69636174696f6e206f766572666c6f77a26469706673582212206e92a4f608d213a2016b665c834b0063b42457d54a1a5ae1e87771aadef24dbe64736f6c634300060c0033",
  "immutableReferences": {},
  "source": "pragma solidity ^0.6.0;\n\nimport '@openzeppelin/contracts/math/SafeMath.sol';\n\nimport '../interfaces/IOracle.sol';\n\ncontract MockOracle is IOracle {\n    using SafeMath for uint256;\n\n    uint256 public price;\n    bool public error;\n\n    function setPrice(uint256 _price) public {\n        price = _price;\n    }\n\n    function setRevert(bool _error) public {\n        error = _error;\n    }\n\n    function update() external override {\n        require(!error, 'Oracle: mocked error');\n        emit Updated(0, 0);\n    }\n\n    function consult(address, uint256 amountIn)\n        external\n        override\n        view\n        returns (uint256)\n    {\n        return price.mul(amountIn).div(1e18);\n    }\n\n    event Updated(uint256 price0CumulativeLast, uint256 price1CumulativeLast);\n}\n",
  "sourcePath": "/Volumes/Developer/Workspace/farmbria/fat-protocol/contracts/test/MockOracle.sol",
  "compiler": {
    "name": "solc",
    "version": "0.6.12+commit.27d51765.Emscripten.clang"
  },
  "schemaVersion": "3.3.1",
  "updatedAt": "2021-03-17T03:06:32.358Z",
  "devdoc": {
    "kind": "dev",
    "methods": {},
    "version": 1
  },
  "userdoc": {
    "kind": "user",
    "methods": {},
    "version": 1
  }
}