{
  "contractName": "MockOracle",
  "abi": [
    {
      "anonymous": false,
      "inputs": [
        {
          "indexed": false,
          "internalType": "uint256",
          "name": "price0CumulativeLast",
          "type": "uint256"
        },
        {
          "indexed": false,
          "internalType": "uint256",
          "name": "price1CumulativeLast",
          "type": "uint256"
        }
      ],
      "name": "Updated",
      "type": "event"
    },
    {
      "inputs": [],
      "name": "error",
      "outputs": [
        {
          "internalType": "bool",
          "name": "",
          "type": "bool"
        }
      ],
      "stateMutability": "view",
      "type": "function"
    },
    {
      "inputs": [],
      "name": "price",
      "outputs": [
        {
          "internalType": "uint256",
          "name": "",
          "type": "uint256"
        }
      ],
      "stateMutability": "view",
      "type": "function"
    },
    {
      "inputs": [
        {
          "internalType": "uint256",
          "name": "_price",
          "type": "uint256"
        }
      ],
      "name": "setPrice",
      "outputs": [],
      "stateMutability": "nonpayable",
      "type": "function"
    },
    {
      "inputs": [
        {
          "internalType": "bool",
          "name": "_error",
          "type": "bool"
        }
      ],
      "name": "setRevert",
      "outputs": [],
      "stateMutability": "nonpayable",
      "type": "function"
    },
    {
      "inputs": [],
      "name": "update",
      "outputs": [],
      "stateMutability": "nonpayable",
      "type": "function"
    },
    {
      "inputs": [
        {
          "internalType": "address",
          "name": "",
          "type": "address"
        },
        {
          "internalType": "uint256",
          "name": "amountIn",
          "type": "uint256"
        }
      ],
      "name": "consult",
      "outputs": [
        {
          "internalType": "uint256",
          "name": "",
          "type": "uint256"
        }
      ],
      "stateMutability": "view",
      "type": "function"
    },
    {
      "inputs": [
        {
          "internalType": "address",
          "name": "token",
          "type": "address"
        }
      ],
      "name": "getReserves",
      "outputs": [
        {
          "internalType": "uint112",
          "name": "reserve",
          "type": "uint112"
        }
      ],
      "stateMutability": "view",
      "type": "function"
    }
  ],
  "bytecode": "0x608060405234801561001057600080fd5b50610524806100206000396000f3fe608060405234801561001057600080fd5b506004361061007d5760003560e01c806391b7f5ed1161005b57806391b7f5ed1461017c578063a035b1fe146101aa578063a2e62045146101c8578063c79f8b62146101d25761007d565b80633ddac953146100825780633e99c1e4146100e45780638fb5f1711461014c575b600080fd5b6100ce6004803603604081101561009857600080fd5b81019080803573ffffffffffffffffffffffffffffffffffffffff169060200190929190803590602001909291905050506101f2565b6040518082815260200191505060405180910390f35b610126600480360360208110156100fa57600080fd5b81019080803573ffffffffffffffffffffffffffffffffffffffff16906020019092919050505061022b565b60405180826dffffffffffffffffffffffffffff16815260200191505060405180910390f35b61017a6004803603602081101561016257600080fd5b81019080803515159060200190929190505050610232565b005b6101a86004803603602081101561019257600080fd5b810190808035906020019092919050505061024f565b005b6101b2610259565b6040518082815260200191505060405180910390f35b6101d061025f565b005b6101da610324565b60405180821515815260200191505060405180910390f35b6000610223670de0b6b3a76400006102158460005461033790919063ffffffff16565b6103bd90919063ffffffff16565b905092915050565b6000919050565b80600160006101000a81548160ff02191690831515021790555050565b8060008190555050565b60005481565b600160009054906101000a900460ff16156102e2576040517f08c379a00000000000000000000000000000000000000000000000000000000081526004018080602001828103825260148152602001807f4f7261636c653a206d6f636b6564206572726f7200000000000000000000000081525060200191505060405180910390fd5b7fd78a0cb8bb633d06981248b816e7bd33c2a35a6089241d099fa519e361cab902600080604051808381526020018281526020019250505060405180910390a1565b600160009054906101000a900460ff1681565b60008083141561034a57600090506103b7565b600082840290508284828161035b57fe5b04146103b2576040517f08c379a00000000000000000000000000000000000000000000000000000000081526004018080602001828103825260218152602001806104ce6021913960400191505060405180910390fd5b809150505b92915050565b60006103ff83836040518060400160405280601a81526020017f536166654d6174683a206469766973696f6e206279207a65726f000000000000815250610407565b905092915050565b600080831182906104b3576040517f08c379a00000000000000000000000000000000000000000000000000000000081526004018080602001828103825283818151815260200191508051906020019080838360005b8381101561047857808201518184015260208101905061045d565b50505050905090810190601f1680156104a55780820380516001836020036101000a031916815260200191505b509250505060405180910390fd5b5060008385816104bf57fe5b04905080915050939250505056fe536166654d6174683a206d756c7469706c69636174696f6e206f766572666c6f77a26469706673582212208f4a0cc89b5d132b64e313162b26080bf3e213a216b59f39eac0c54204e8874464736f6c634300060c0033",
  "immutableReferences": {},
  "source": "pragma solidity ^0.6.0;\n\nimport '@openzeppelin/contracts/math/SafeMath.sol';\n\nimport '../interfaces/IOracle.sol';\n\ncontract MockOracle is IOracle {\n    using SafeMath for uint256;\n\n    uint256 public price;\n    bool public error;\n\n    function setPrice(uint256 _price) public {\n        price = _price;\n    }\n\n    function setRevert(bool _error) public {\n        error = _error;\n    }\n\n    function update() external override {\n        require(!error, 'Oracle: mocked error');\n        emit Updated(0, 0);\n    }\n\n    function consult(address, uint256 amountIn)\n        external\n        override\n        view\n        returns (uint256)\n    {\n        return price.mul(amountIn).div(1e18);\n    }\n\n    function getReserves(address token) external override view returns (uint112 reserve) {\n        token;\n        reserve = 0;\n    }\n\n    event Updated(uint256 price0CumulativeLast, uint256 price1CumulativeLast);\n}\n",
  "sourcePath": "/Volumes/Development/Workspace/farmbria/fat-protocol/contracts/test/MockOracle.sol",
  "compiler": {
    "name": "solc",
    "version": "0.6.12+commit.27d51765.Emscripten.clang"
  },
  "schemaVersion": "3.3.3",
  "updatedAt": "2021-01-18T13:13:18.499Z",
  "devdoc": {
    "kind": "dev",
    "methods": {},
    "version": 1
  },
  "userdoc": {
    "kind": "user",
    "methods": {},
    "version": 1
  }
}