{
  "contractName": "Token",
  "abi": [
    {
      "inputs": [
        {
          "internalType": "address",
          "name": "_publicSaleTGEAddress",
          "type": "address"
        },
        {
          "internalType": "address",
          "name": "_privateSaleTGEAddress",
          "type": "address"
        }
      ],
      "stateMutability": "nonpayable",
      "type": "constructor"
    },
    {
      "anonymous": false,
      "inputs": [
        {
          "indexed": true,
          "internalType": "address",
          "name": "owner",
          "type": "address"
        },
        {
          "indexed": true,
          "internalType": "address",
          "name": "spender",
          "type": "address"
        },
        {
          "indexed": false,
          "internalType": "uint256",
          "name": "value",
          "type": "uint256"
        }
      ],
      "name": "Approval",
      "type": "event"
    },
    {
      "anonymous": false,
      "inputs": [
        {
          "indexed": true,
          "internalType": "address",
          "name": "previousOperator",
          "type": "address"
        },
        {
          "indexed": true,
          "internalType": "address",
          "name": "newOperator",
          "type": "address"
        }
      ],
      "name": "OperatorTransferred",
      "type": "event"
    },
    {
      "anonymous": false,
      "inputs": [
        {
          "indexed": true,
          "internalType": "address",
          "name": "previousOwner",
          "type": "address"
        },
        {
          "indexed": true,
          "internalType": "address",
          "name": "newOwner",
          "type": "address"
        }
      ],
      "name": "OwnershipTransferred",
      "type": "event"
    },
    {
      "anonymous": false,
      "inputs": [
        {
          "indexed": true,
          "internalType": "address",
          "name": "from",
          "type": "address"
        },
        {
          "indexed": true,
          "internalType": "address",
          "name": "to",
          "type": "address"
        },
        {
          "indexed": false,
          "internalType": "uint256",
          "name": "value",
          "type": "uint256"
        }
      ],
      "name": "Transfer",
      "type": "event"
    },
    {
      "inputs": [],
      "name": "_owner",
      "outputs": [
        {
          "internalType": "address",
          "name": "",
          "type": "address"
        }
      ],
      "stateMutability": "view",
      "type": "function",
      "constant": true
    },
    {
      "inputs": [
        {
          "internalType": "address",
          "name": "owner",
          "type": "address"
        },
        {
          "internalType": "address",
          "name": "spender",
          "type": "address"
        }
      ],
      "name": "allowance",
      "outputs": [
        {
          "internalType": "uint256",
          "name": "",
          "type": "uint256"
        }
      ],
      "stateMutability": "view",
      "type": "function",
      "constant": true
    },
    {
      "inputs": [
        {
          "internalType": "address",
          "name": "spender",
          "type": "address"
        },
        {
          "internalType": "uint256",
          "name": "amount",
          "type": "uint256"
        }
      ],
      "name": "approve",
      "outputs": [
        {
          "internalType": "bool",
          "name": "",
          "type": "bool"
        }
      ],
      "stateMutability": "nonpayable",
      "type": "function"
    },
    {
      "inputs": [
        {
          "internalType": "address",
          "name": "account",
          "type": "address"
        }
      ],
      "name": "balanceOf",
      "outputs": [
        {
          "internalType": "uint256",
          "name": "",
          "type": "uint256"
        }
      ],
      "stateMutability": "view",
      "type": "function",
      "constant": true
    },
    {
      "inputs": [],
      "name": "decimals",
      "outputs": [
        {
          "internalType": "uint8",
          "name": "",
          "type": "uint8"
        }
      ],
      "stateMutability": "view",
      "type": "function",
      "constant": true
    },
    {
      "inputs": [
        {
          "internalType": "address",
          "name": "spender",
          "type": "address"
        },
        {
          "internalType": "uint256",
          "name": "subtractedValue",
          "type": "uint256"
        }
      ],
      "name": "decreaseAllowance",
      "outputs": [
        {
          "internalType": "bool",
          "name": "",
          "type": "bool"
        }
      ],
      "stateMutability": "nonpayable",
      "type": "function"
    },
    {
      "inputs": [],
      "name": "getOwner",
      "outputs": [
        {
          "internalType": "address",
          "name": "",
          "type": "address"
        }
      ],
      "stateMutability": "view",
      "type": "function",
      "constant": true
    },
    {
      "inputs": [
        {
          "internalType": "address",
          "name": "spender",
          "type": "address"
        },
        {
          "internalType": "uint256",
          "name": "addedValue",
          "type": "uint256"
        }
      ],
      "name": "increaseAllowance",
      "outputs": [
        {
          "internalType": "bool",
          "name": "",
          "type": "bool"
        }
      ],
      "stateMutability": "nonpayable",
      "type": "function"
    },
    {
      "inputs": [],
      "name": "isOperator",
      "outputs": [
        {
          "internalType": "bool",
          "name": "",
          "type": "bool"
        }
      ],
      "stateMutability": "view",
      "type": "function",
      "constant": true
    },
    {
      "inputs": [],
      "name": "name",
      "outputs": [
        {
          "internalType": "string",
          "name": "",
          "type": "string"
        }
      ],
      "stateMutability": "view",
      "type": "function",
      "constant": true
    },
    {
      "inputs": [],
      "name": "operator",
      "outputs": [
        {
          "internalType": "address",
          "name": "",
          "type": "address"
        }
      ],
      "stateMutability": "view",
      "type": "function",
      "constant": true
    },
    {
      "inputs": [],
      "name": "owner",
      "outputs": [
        {
          "internalType": "address",
          "name": "",
          "type": "address"
        }
      ],
      "stateMutability": "view",
      "type": "function",
      "constant": true
    },
    {
      "inputs": [],
      "name": "renounceOwnership",
      "outputs": [],
      "stateMutability": "nonpayable",
      "type": "function"
    },
    {
      "inputs": [],
      "name": "symbol",
      "outputs": [
        {
          "internalType": "string",
          "name": "",
          "type": "string"
        }
      ],
      "stateMutability": "view",
      "type": "function",
      "constant": true
    },
    {
      "inputs": [],
      "name": "totalSupply",
      "outputs": [
        {
          "internalType": "uint256",
          "name": "",
          "type": "uint256"
        }
      ],
      "stateMutability": "view",
      "type": "function",
      "constant": true
    },
    {
      "inputs": [
        {
          "internalType": "address",
          "name": "recipient",
          "type": "address"
        },
        {
          "internalType": "uint256",
          "name": "amount",
          "type": "uint256"
        }
      ],
      "name": "transfer",
      "outputs": [
        {
          "internalType": "bool",
          "name": "",
          "type": "bool"
        }
      ],
      "stateMutability": "nonpayable",
      "type": "function"
    },
    {
      "inputs": [
        {
          "internalType": "address",
          "name": "sender",
          "type": "address"
        },
        {
          "internalType": "address",
          "name": "recipient",
          "type": "address"
        },
        {
          "internalType": "uint256",
          "name": "amount",
          "type": "uint256"
        }
      ],
      "name": "transferFrom",
      "outputs": [
        {
          "internalType": "bool",
          "name": "",
          "type": "bool"
        }
      ],
      "stateMutability": "nonpayable",
      "type": "function"
    },
    {
      "inputs": [
        {
          "internalType": "address",
          "name": "newOperator_",
          "type": "address"
        }
      ],
      "name": "transferOperator",
      "outputs": [],
      "stateMutability": "nonpayable",
      "type": "function"
    },
    {
      "inputs": [
        {
          "internalType": "address",
          "name": "newOwner",
          "type": "address"
        }
      ],
      "name": "transferOwnership",
      "outputs": [],
      "stateMutability": "nonpayable",
      "type": "function"
    },
    {
      "inputs": [],
      "name": "cap",
      "outputs": [
        {
          "internalType": "uint256",
          "name": "",
          "type": "uint256"
        }
      ],
      "stateMutability": "view",
      "type": "function",
      "constant": true
    },
    {
      "inputs": [
        {
          "internalType": "address",
          "name": "_receiver",
          "type": "address"
        }
      ],
      "name": "releaseTeamAllocation",
      "outputs": [],
      "stateMutability": "nonpayable",
      "type": "function"
    },
    {
      "inputs": [
        {
          "internalType": "address",
          "name": "_receiver",
          "type": "address"
        }
      ],
      "name": "releaseAdviserAllocation",
      "outputs": [],
      "stateMutability": "nonpayable",
      "type": "function"
    },
    {
      "inputs": [
        {
          "internalType": "address",
          "name": "_receiver",
          "type": "address"
        }
      ],
      "name": "releaseMarketingAllocation",
      "outputs": [],
      "stateMutability": "nonpayable",
      "type": "function"
    },
    {
      "inputs": [
        {
          "internalType": "address",
          "name": "_receiver",
          "type": "address"
        }
      ],
      "name": "releasePrivateSaleAllocation",
      "outputs": [],
      "stateMutability": "nonpayable",
      "type": "function"
    },
    {
      "inputs": [
        {
          "internalType": "address",
          "name": "_farmAddress",
          "type": "address"
        },
        {
          "internalType": "uint256",
          "name": "_amount",
          "type": "uint256"
        }
      ],
      "name": "releaseFarmAllocation",
      "outputs": [],
      "stateMutability": "nonpayable",
      "type": "function"
    },
    {
      "inputs": [
        {
          "internalType": "address",
          "name": "recipient_",
          "type": "address"
        },
        {
          "internalType": "uint256",
          "name": "amount_",
          "type": "uint256"
        }
      ],
      "name": "mint",
      "outputs": [
        {
          "internalType": "bool",
          "name": "",
          "type": "bool"
        }
      ],
      "stateMutability": "nonpayable",
      "type": "function"
    },
    {
      "inputs": [
        {
          "internalType": "uint256",
          "name": "amount",
          "type": "uint256"
        }
      ],
      "name": "burn",
      "outputs": [],
      "stateMutability": "nonpayable",
      "type": "function"
    },
    {
      "inputs": [
        {
          "internalType": "address",
          "name": "account",
          "type": "address"
        },
        {
          "internalType": "uint256",
          "name": "amount",
          "type": "uint256"
        }
      ],
      "name": "burnFrom",
      "outputs": [],
      "stateMutability": "nonpayable",
      "type": "function"
    }
  ],
  "bytecode": "0x60806040526a6342fd08f00f63780000006008556200004a6064620000366004600854620005f160201b62001f231790919060201c565b6200067c60201b62001fa91790919060201c565b600955620000846064620000706004600854620005f160201b62001f231790919060201c565b6200067c60201b62001fa91790919060201c565b600a55620000be6064620000aa6011600854620005f160201b62001f231790919060201c565b6200067c60201b62001fa91790919060201c565b600b55620000f86064620000e46004600854620005f160201b62001f231790919060201c565b6200067c60201b62001fa91790919060201c565b600c556200013260646200011e6043600854620005f160201b62001f231790919060201c565b6200067c60201b62001fa91790919060201c565b600d556200016c6064620001586004600854620005f160201b62001f231790919060201c565b6200067c60201b62001fa91790919060201c565b600e556000600f556000601055600060115560006012556000601355600060145562ed4e00420160155562ed4e0042016016556276a70042016017556276a7004201601855620001e86064620001d46005600954620005f160201b62001f231790919060201c565b6200067c60201b62001fa91790919060201c565b6019556200022260646200020e6005600a54620005f160201b62001f231790919060201c565b6200067c60201b62001fa91790919060201c565b601a556200025c6064620002486019600c54620005f160201b62001f231790919060201c565b6200067c60201b62001fa91790919060201c565b601b55620002966064620002826019600d54620005f160201b62001f231790919060201c565b6200067c60201b62001fa91790919060201c565b601c55348015620002a657600080fd5b5060405162003b8638038062003b8683398181016040526040811015620002cc57600080fd5b8101908080519060200190929190805190602001909291905050506040518060400160405280600e81526020017f46617466692050726f746f636f6c0000000000000000000000000000000000008152506040518060400160405280600381526020017f4641540000000000000000000000000000000000000000000000000000000000815250601282600390805190602001906200036d92919062000b23565b5081600490805190602001906200038692919062000b23565b5080600560006101000a81548160ff021916908360ff1602179055506000620003b4620006ce60201b60201c565b905080600560016101000a81548173ffffffffffffffffffffffffffffffffffffffff021916908373ffffffffffffffffffffffffffffffffffffffff1602179055505050505060006200040d620006ce60201b60201c565b905080600660006101000a81548173ffffffffffffffffffffffffffffffffffffffff021916908373ffffffffffffffffffffffffffffffffffffffff1602179055508073ffffffffffffffffffffffffffffffffffffffff16600073ffffffffffffffffffffffffffffffffffffffff167f8be0079c531659141344cd1fd0a4f28419497f9722a3daafe3b4186f6b6457e060405160405180910390a350620004bc620006ce60201b60201c565b600760006101000a81548173ffffffffffffffffffffffffffffffffffffffff021916908373ffffffffffffffffffffffffffffffffffffffff160217905550600760009054906101000a900473ffffffffffffffffffffffffffffffffffffffff1673ffffffffffffffffffffffffffffffffffffffff16600073ffffffffffffffffffffffffffffffffffffffff167f74da04524d50c64947f5dd5381ef1a4dca5cba8ed1d816243f9e48aa0b5617ed60405160405180910390a36200058d81601c54620006d660201b60201c565b620005ab601c54601354620008b460201b62001ff31790919060201c565b601381905550620005c582600e54620006d660201b60201c565b620005e3600e54601454620008b460201b62001ff31790919060201c565b601481905550505062000bc9565b60008083141562000606576000905062000676565b60008284029050828482816200061857fe5b041462000671576040517f08c379a000000000000000000000000000000000000000000000000000000000815260040180806020018281038252602181526020018062003b656021913960400191505060405180910390fd5b809150505b92915050565b6000620006c683836040518060400160405280601a81526020017f536166654d6174683a206469766973696f6e206279207a65726f0000000000008152506200093d60201b60201c565b905092915050565b600033905090565b600073ffffffffffffffffffffffffffffffffffffffff168273ffffffffffffffffffffffffffffffffffffffff1614156200077a576040517f08c379a000000000000000000000000000000000000000000000000000000000815260040180806020018281038252601f8152602001807f42455032303a206d696e7420746f20746865207a65726f20616464726573730081525060200191505060405180910390fd5b6200078e6000838362000a0860201b60201c565b620007aa81600254620008b460201b62001ff31790919060201c565b60028190555062000808816000808573ffffffffffffffffffffffffffffffffffffffff1673ffffffffffffffffffffffffffffffffffffffff16815260200190815260200160002054620008b460201b62001ff31790919060201c565b6000808473ffffffffffffffffffffffffffffffffffffffff1673ffffffffffffffffffffffffffffffffffffffff168152602001908152602001600020819055508173ffffffffffffffffffffffffffffffffffffffff16600073ffffffffffffffffffffffffffffffffffffffff167fddf252ad1be2c89b69c2b068fc378daa952ba7f163c4a11628f55a4df523b3ef836040518082815260200191505060405180910390a35050565b60008082840190508381101562000933576040517f08c379a000000000000000000000000000000000000000000000000000000000815260040180806020018281038252601b8152602001807f536166654d6174683a206164646974696f6e206f766572666c6f77000000000081525060200191505060405180910390fd5b8091505092915050565b60008083118290620009ed576040517f08c379a00000000000000000000000000000000000000000000000000000000081526004018080602001828103825283818151815260200191508051906020019080838360005b83811015620009b157808201518184015260208101905062000994565b50505050905090810190601f168015620009df5780820380516001836020036101000a031916815260200191505b509250505060405180910390fd5b506000838581620009fa57fe5b049050809150509392505050565b62000a2083838362000b0a60201b6200207b1760201c565b600073ffffffffffffffffffffffffffffffffffffffff168373ffffffffffffffffffffffffffffffffffffffff16141562000b055762000a6662000b0f60201b60201c565b62000a8f8262000a7b62000b1960201b60201c565b620008b460201b62001ff31790919060201c565b111562000b04576040517f08c379a00000000000000000000000000000000000000000000000000000000081526004018080602001828103825260198152602001807f42455032304361707065643a206361702065786365656465640000000000000081525060200191505060405180910390fd5b5b505050565b505050565b6000600854905090565b6000600254905090565b828054600181600116156101000203166002900490600052602060002090601f016020900481019282601f1062000b6657805160ff191683800117855562000b97565b8280016001018555821562000b97579182015b8281111562000b9657825182559160200191906001019062000b79565b5b50905062000ba6919062000baa565b5090565b5b8082111562000bc557600081600090555060010162000bab565b5090565b612f8c8062000bd96000396000f3fe608060405234801561001057600080fd5b50600436106101c45760003560e01c806366ca7abb116100f957806395d89b4111610097578063b2bdfa7b11610071578063b2bdfa7b1461089c578063c12e580a146108d0578063dd62ed3e14610914578063f2fde38b1461098c576101c4565b806395d89b4114610751578063a457c2d7146107d4578063a9059cbb14610838576101c4565b8063715018a6116100d3578063715018a61461069157806379cc67901461069b578063893d20e8146106e95780638da5cb5b1461071d576101c4565b806366ca7abb146105b157806367deb525146105f557806370a0823114610639576101c4565b8063395093511161016657806342966c681161014057806342966c68146104e15780634456eda21461050f578063568749ea1461052f578063570ca7351461057d576101c4565b806339509351146103d55780633d66d7d81461043957806340c10f191461047d576101c4565b806323b872dd116101a257806323b872dd146102ce57806329605e7714610352578063313ce56714610396578063355274ea146103b7576101c4565b806306fdde03146101c9578063095ea7b31461024c57806318160ddd146102b0575b600080fd5b6101d16109d0565b6040518080602001828103825283818151815260200191508051906020019080838360005b838110156102115780820151818401526020810190506101f6565b50505050905090810190601f16801561023e5780820380516001836020036101000a031916815260200191505b509250505060405180910390f35b6102986004803603604081101561026257600080fd5b81019080803573ffffffffffffffffffffffffffffffffffffffff16906020019092919080359060200190929190505050610a72565b60405180821515815260200191505060405180910390f35b6102b8610a90565b6040518082815260200191505060405180910390f35b61033a600480360360608110156102e457600080fd5b81019080803573ffffffffffffffffffffffffffffffffffffffff169060200190929190803573ffffffffffffffffffffffffffffffffffffffff16906020019092919080359060200190929190505050610a9a565b60405180821515815260200191505060405180910390f35b6103946004803603602081101561036857600080fd5b81019080803573ffffffffffffffffffffffffffffffffffffffff169060200190929190505050610b73565b005b61039e610c49565b604051808260ff16815260200191505060405180910390f35b6103bf610c60565b6040518082815260200191505060405180910390f35b610421600480360360408110156103eb57600080fd5b81019080803573ffffffffffffffffffffffffffffffffffffffff16906020019092919080359060200190929190505050610c6a565b60405180821515815260200191505060405180910390f35b61047b6004803603602081101561044f57600080fd5b81019080803573ffffffffffffffffffffffffffffffffffffffff169060200190929190505050610d1d565b005b6104c96004803603604081101561049357600080fd5b81019080803573ffffffffffffffffffffffffffffffffffffffff16906020019092919080359060200190929190505050610f08565b60405180821515815260200191505060405180910390f35b61050d600480360360208110156104f757600080fd5b8101908080359060200190929190505050610fe1565b005b610517611093565b60405180821515815260200191505060405180910390f35b61057b6004803603604081101561054557600080fd5b81019080803573ffffffffffffffffffffffffffffffffffffffff169060200190929190803590602001909291905050506110f2565b005b61058561124d565b604051808273ffffffffffffffffffffffffffffffffffffffff16815260200191505060405180910390f35b6105f3600480360360208110156105c757600080fd5b81019080803573ffffffffffffffffffffffffffffffffffffffff169060200190929190505050611277565b005b6106376004803603602081101561060b57600080fd5b81019080803573ffffffffffffffffffffffffffffffffffffffff169060200190929190505050611445565b005b61067b6004803603602081101561064f57600080fd5b81019080803573ffffffffffffffffffffffffffffffffffffffff169060200190929190505050611630565b6040518082815260200191505060405180910390f35b610699611678565b005b6106e7600480360360408110156106b157600080fd5b81019080803573ffffffffffffffffffffffffffffffffffffffff16906020019092919080359060200190929190505050611803565b005b6106f16118b7565b604051808273ffffffffffffffffffffffffffffffffffffffff16815260200191505060405180910390f35b6107256118e1565b604051808273ffffffffffffffffffffffffffffffffffffffff16815260200191505060405180910390f35b61075961190b565b6040518080602001828103825283818151815260200191508051906020019080838360005b8381101561079957808201518184015260208101905061077e565b50505050905090810190601f1680156107c65780820380516001836020036101000a031916815260200191505b509250505060405180910390f35b610820600480360360408110156107ea57600080fd5b81019080803573ffffffffffffffffffffffffffffffffffffffff169060200190929190803590602001909291905050506119ad565b60405180821515815260200191505060405180910390f35b6108846004803603604081101561084e57600080fd5b81019080803573ffffffffffffffffffffffffffffffffffffffff16906020019092919080359060200190929190505050611a7a565b60405180821515815260200191505060405180910390f35b6108a4611a98565b604051808273ffffffffffffffffffffffffffffffffffffffff16815260200191505060405180910390f35b610912600480360360208110156108e657600080fd5b81019080803573ffffffffffffffffffffffffffffffffffffffff169060200190929190505050611abe565b005b6109766004803603604081101561092a57600080fd5b81019080803573ffffffffffffffffffffffffffffffffffffffff169060200190929190803573ffffffffffffffffffffffffffffffffffffffff169060200190929190505050611c8c565b6040518082815260200191505060405180910390f35b6109ce600480360360208110156109a257600080fd5b81019080803573ffffffffffffffffffffffffffffffffffffffff169060200190929190505050611d13565b005b606060038054600181600116156101000203166002900480601f016020809104026020016040519081016040528092919081815260200182805460018160011615610100020316600290048015610a685780601f10610a3d57610100808354040283529160200191610a68565b820191906000526020600020905b815481529060010190602001808311610a4b57829003601f168201915b5050505050905090565b6000610a86610a7f612080565b8484612088565b6001905092915050565b6000600254905090565b6000610aa784848461227f565b610b6884610ab3612080565b610b6385604051806060016040528060288152602001612da560289139600160008b73ffffffffffffffffffffffffffffffffffffffff1673ffffffffffffffffffffffffffffffffffffffff1681526020019081526020016000206000610b19612080565b73ffffffffffffffffffffffffffffffffffffffff1673ffffffffffffffffffffffffffffffffffffffff168152602001908152602001600020546125409092919063ffffffff16565b612088565b600190509392505050565b610b7b612080565b73ffffffffffffffffffffffffffffffffffffffff16600660009054906101000a900473ffffffffffffffffffffffffffffffffffffffff1673ffffffffffffffffffffffffffffffffffffffff1614610c3d576040517f08c379a00000000000000000000000000000000000000000000000000000000081526004018080602001828103825260208152602001807f4f776e61626c653a2063616c6c6572206973206e6f7420746865206f776e657281525060200191505060405180910390fd5b610c4681612600565b50565b6000600560009054906101000a900460ff16905090565b6000600854905090565b6000610d13610c77612080565b84610d0e8560016000610c88612080565b73ffffffffffffffffffffffffffffffffffffffff1673ffffffffffffffffffffffffffffffffffffffff16815260200190815260200160002060008973ffffffffffffffffffffffffffffffffffffffff1673ffffffffffffffffffffffffffffffffffffffff16815260200190815260200160002054611ff390919063ffffffff16565b612088565b6001905092915050565b3373ffffffffffffffffffffffffffffffffffffffff16600760009054906101000a900473ffffffffffffffffffffffffffffffffffffffff1673ffffffffffffffffffffffffffffffffffffffff1614610dc3576040517f08c379a0000000000000000000000000000000000000000000000000000000008152600401808060200182810382526024815260200180612e3f6024913960400191505060405180910390fd5b600954610ddd601954600f54611ff390919063ffffffff16565b1115610e51576040517f08c379a000000000000000000000000000000000000000000000000000000000815260040180806020018281038252601c8152602001807f4d6178207465616d20616c6c6f636174696f6e2072656c65617365640000000081525060200191505060405180910390fd5b6201518060155442031015610ece576040517f08c379a000000000000000000000000000000000000000000000000000000000815260040180806020018281038252601e8152602001807f506c65617365207761697420746f206e65787420636865636b706f696e74000081525060200191505060405180910390fd5b610eda81601954612725565b610ef1601954600f54611ff390919063ffffffff16565b600f8190555062278d006015540160158190555050565b60003373ffffffffffffffffffffffffffffffffffffffff16600760009054906101000a900473ffffffffffffffffffffffffffffffffffffffff1673ffffffffffffffffffffffffffffffffffffffff1614610fb0576040517f08c379a0000000000000000000000000000000000000000000000000000000008152600401808060200182810382526024815260200180612e3f6024913960400191505060405180910390fd5b6000610fbb84611630565b9050610fc78484612725565b6000610fd285611630565b90508181119250505092915050565b3373ffffffffffffffffffffffffffffffffffffffff16600760009054906101000a900473ffffffffffffffffffffffffffffffffffffffff1673ffffffffffffffffffffffffffffffffffffffff1614611087576040517f08c379a0000000000000000000000000000000000000000000000000000000008152600401808060200182810382526024815260200180612e3f6024913960400191505060405180910390fd5b611090816128ec565b50565b6000600760009054906101000a900473ffffffffffffffffffffffffffffffffffffffff1673ffffffffffffffffffffffffffffffffffffffff166110d6612080565b73ffffffffffffffffffffffffffffffffffffffff1614905090565b3373ffffffffffffffffffffffffffffffffffffffff16600760009054906101000a900473ffffffffffffffffffffffffffffffffffffffff1673ffffffffffffffffffffffffffffffffffffffff1614611198576040517f08c379a0000000000000000000000000000000000000000000000000000000008152600401808060200182810382526024815260200180612e3f6024913960400191505060405180910390fd5b600b546111b082601154611ff390919063ffffffff16565b1115611224576040517f08c379a000000000000000000000000000000000000000000000000000000000815260040180806020018281038252601f8152602001807f4d6178206661726d696e6720616c6c6f636174696f6e2072656c65617365640081525060200191505060405180910390fd5b61122e8282612725565b61124381601154611ff390919063ffffffff16565b6011819055505050565b6000600760009054906101000a900473ffffffffffffffffffffffffffffffffffffffff16905090565b3373ffffffffffffffffffffffffffffffffffffffff16600760009054906101000a900473ffffffffffffffffffffffffffffffffffffffff1673ffffffffffffffffffffffffffffffffffffffff161461131d576040517f08c379a0000000000000000000000000000000000000000000000000000000008152600401808060200182810382526024815260200180612e3f6024913960400191505060405180910390fd5b600d54611337601c54601354611ff390919063ffffffff16565b111561138e576040517f08c379a0000000000000000000000000000000000000000000000000000000008152600401808060200182810382526023815260200180612d826023913960400191505060405180910390fd5b620151806018544203101561140b576040517f08c379a000000000000000000000000000000000000000000000000000000000815260040180806020018281038252601e8152602001807f506c65617365207761697420746f206e65787420636865636b706f696e74000081525060200191505060405180910390fd5b61141781601c54612725565b61142e601c54601354611ff390919063ffffffff16565b6013819055506276a7006018540160188190555050565b3373ffffffffffffffffffffffffffffffffffffffff16600760009054906101000a900473ffffffffffffffffffffffffffffffffffffffff1673ffffffffffffffffffffffffffffffffffffffff16146114eb576040517f08c379a0000000000000000000000000000000000000000000000000000000008152600401808060200182810382526024815260200180612e3f6024913960400191505060405180910390fd5b600a54611505601a54601054611ff390919063ffffffff16565b1115611579576040517f08c379a000000000000000000000000000000000000000000000000000000000815260040180806020018281038252601f8152602001807f4d6178206164766973657220616c6c6f636174696f6e2072656c65617365640081525060200191505060405180910390fd5b62015180601654420310156115f6576040517f08c379a000000000000000000000000000000000000000000000000000000000815260040180806020018281038252601e8152602001807f506c65617365207761697420746f206e65787420636865636b706f696e74000081525060200191505060405180910390fd5b61160281601a54612725565b611619601a54601054611ff390919063ffffffff16565b60108190555062278d006016540160168190555050565b60008060008373ffffffffffffffffffffffffffffffffffffffff1673ffffffffffffffffffffffffffffffffffffffff168152602001908152602001600020549050919050565b611680612080565b73ffffffffffffffffffffffffffffffffffffffff16600660009054906101000a900473ffffffffffffffffffffffffffffffffffffffff1673ffffffffffffffffffffffffffffffffffffffff1614611742576040517f08c379a00000000000000000000000000000000000000000000000000000000081526004018080602001828103825260208152602001807f4f776e61626c653a2063616c6c6572206973206e6f7420746865206f776e657281525060200191505060405180910390fd5b600073ffffffffffffffffffffffffffffffffffffffff16600660009054906101000a900473ffffffffffffffffffffffffffffffffffffffff1673ffffffffffffffffffffffffffffffffffffffff167f8be0079c531659141344cd1fd0a4f28419497f9722a3daafe3b4186f6b6457e060405160405180910390a36000600660006101000a81548173ffffffffffffffffffffffffffffffffffffffff021916908373ffffffffffffffffffffffffffffffffffffffff160217905550565b3373ffffffffffffffffffffffffffffffffffffffff16600760009054906101000a900473ffffffffffffffffffffffffffffffffffffffff1673ffffffffffffffffffffffffffffffffffffffff16146118a9576040517f08c379a0000000000000000000000000000000000000000000000000000000008152600401808060200182810382526024815260200180612e3f6024913960400191505060405180910390fd5b6118b38282612900565b5050565b6000600560019054906101000a900473ffffffffffffffffffffffffffffffffffffffff16905090565b6000600660009054906101000a900473ffffffffffffffffffffffffffffffffffffffff16905090565b606060048054600181600116156101000203166002900480601f0160208091040260200160405190810160405280929190818152602001828054600181600116156101000203166002900480156119a35780601f10611978576101008083540402835291602001916119a3565b820191906000526020600020905b81548152906001019060200180831161198657829003601f168201915b5050505050905090565b6000611a706119ba612080565b84611a6b85604051806060016040528060258152602001612eac60259139600160006119e4612080565b73ffffffffffffffffffffffffffffffffffffffff1673ffffffffffffffffffffffffffffffffffffffff16815260200190815260200160002060008a73ffffffffffffffffffffffffffffffffffffffff1673ffffffffffffffffffffffffffffffffffffffff168152602001908152602001600020546125409092919063ffffffff16565b612088565b6001905092915050565b6000611a8e611a87612080565b848461227f565b6001905092915050565b600560019054906101000a900473ffffffffffffffffffffffffffffffffffffffff1681565b3373ffffffffffffffffffffffffffffffffffffffff16600760009054906101000a900473ffffffffffffffffffffffffffffffffffffffff1673ffffffffffffffffffffffffffffffffffffffff1614611b64576040517f08c379a0000000000000000000000000000000000000000000000000000000008152600401808060200182810382526024815260200180612e3f6024913960400191505060405180910390fd5b600c54611b7e601b54601254611ff390919063ffffffff16565b1115611bd5576040517f08c379a0000000000000000000000000000000000000000000000000000000008152600401808060200182810382526021815260200180612ef26021913960400191505060405180910390fd5b6201518060175442031015611c52576040517f08c379a000000000000000000000000000000000000000000000000000000000815260040180806020018281038252601e8152602001807f506c65617365207761697420746f206e65787420636865636b706f696e74000081525060200191505060405180910390fd5b611c5e81601b54612725565b611c75601b54601254611ff390919063ffffffff16565b6012819055506276a7006017540160178190555050565b6000600160008473ffffffffffffffffffffffffffffffffffffffff1673ffffffffffffffffffffffffffffffffffffffff16815260200190815260200160002060008373ffffffffffffffffffffffffffffffffffffffff1673ffffffffffffffffffffffffffffffffffffffff16815260200190815260200160002054905092915050565b611d1b612080565b73ffffffffffffffffffffffffffffffffffffffff16600660009054906101000a900473ffffffffffffffffffffffffffffffffffffffff1673ffffffffffffffffffffffffffffffffffffffff1614611ddd576040517f08c379a00000000000000000000000000000000000000000000000000000000081526004018080602001828103825260208152602001807f4f776e61626c653a2063616c6c6572206973206e6f7420746865206f776e657281525060200191505060405180910390fd5b600073ffffffffffffffffffffffffffffffffffffffff168173ffffffffffffffffffffffffffffffffffffffff161415611e63576040517f08c379a0000000000000000000000000000000000000000000000000000000008152600401808060200182810382526026815260200180612d5c6026913960400191505060405180910390fd5b8073ffffffffffffffffffffffffffffffffffffffff16600660009054906101000a900473ffffffffffffffffffffffffffffffffffffffff1673ffffffffffffffffffffffffffffffffffffffff167f8be0079c531659141344cd1fd0a4f28419497f9722a3daafe3b4186f6b6457e060405160405180910390a380600660006101000a81548173ffffffffffffffffffffffffffffffffffffffff021916908373ffffffffffffffffffffffffffffffffffffffff16021790555050565b600080831415611f365760009050611fa3565b6000828402905082848281611f4757fe5b0414611f9e576040517f08c379a0000000000000000000000000000000000000000000000000000000008152600401808060200182810382526021815260200180612dfa6021913960400191505060405180910390fd5b809150505b92915050565b6000611feb83836040518060400160405280601a81526020017f536166654d6174683a206469766973696f6e206279207a65726f000000000000815250612962565b905092915050565b600080828401905083811015612071576040517f08c379a000000000000000000000000000000000000000000000000000000000815260040180806020018281038252601b8152602001807f536166654d6174683a206164646974696f6e206f766572666c6f77000000000081525060200191505060405180910390fd5b8091505092915050565b505050565b600033905090565b600073ffffffffffffffffffffffffffffffffffffffff168373ffffffffffffffffffffffffffffffffffffffff16141561210e576040517f08c379a0000000000000000000000000000000000000000000000000000000008152600401808060200182810382526024815260200180612d386024913960400191505060405180910390fd5b600073ffffffffffffffffffffffffffffffffffffffff168273ffffffffffffffffffffffffffffffffffffffff161415612194576040517f08c379a0000000000000000000000000000000000000000000000000000000008152600401808060200182810382526022815260200180612f356022913960400191505060405180910390fd5b80600160008573ffffffffffffffffffffffffffffffffffffffff1673ffffffffffffffffffffffffffffffffffffffff16815260200190815260200160002060008473ffffffffffffffffffffffffffffffffffffffff1673ffffffffffffffffffffffffffffffffffffffff168152602001908152602001600020819055508173ffffffffffffffffffffffffffffffffffffffff168373ffffffffffffffffffffffffffffffffffffffff167f8c5be1e5ebec7d5bd14f71427d1e84f3dd0314c0f7b2291e5b200ac8c7c3b925836040518082815260200191505060405180910390a3505050565b600073ffffffffffffffffffffffffffffffffffffffff168373ffffffffffffffffffffffffffffffffffffffff161415612305576040517f08c379a0000000000000000000000000000000000000000000000000000000008152600401808060200182810382526025815260200180612d136025913960400191505060405180910390fd5b600073ffffffffffffffffffffffffffffffffffffffff168273ffffffffffffffffffffffffffffffffffffffff16141561238b576040517f08c379a0000000000000000000000000000000000000000000000000000000008152600401808060200182810382526023815260200180612e896023913960400191505060405180910390fd5b612396838383612a28565b61240181604051806060016040528060268152602001612e63602691396000808773ffffffffffffffffffffffffffffffffffffffff1673ffffffffffffffffffffffffffffffffffffffff168152602001908152602001600020546125409092919063ffffffff16565b6000808573ffffffffffffffffffffffffffffffffffffffff1673ffffffffffffffffffffffffffffffffffffffff16815260200190815260200160002081905550612494816000808573ffffffffffffffffffffffffffffffffffffffff1673ffffffffffffffffffffffffffffffffffffffff16815260200190815260200160002054611ff390919063ffffffff16565b6000808473ffffffffffffffffffffffffffffffffffffffff1673ffffffffffffffffffffffffffffffffffffffff168152602001908152602001600020819055508173ffffffffffffffffffffffffffffffffffffffff168373ffffffffffffffffffffffffffffffffffffffff167fddf252ad1be2c89b69c2b068fc378daa952ba7f163c4a11628f55a4df523b3ef836040518082815260200191505060405180910390a3505050565b60008383111582906125ed576040517f08c379a00000000000000000000000000000000000000000000000000000000081526004018080602001828103825283818151815260200191508051906020019080838360005b838110156125b2578082015181840152602081019050612597565b50505050905090810190601f1680156125df5780820380516001836020036101000a031916815260200191505b509250505060405180910390fd5b5060008385039050809150509392505050565b600073ffffffffffffffffffffffffffffffffffffffff168173ffffffffffffffffffffffffffffffffffffffff161415612686576040517f08c379a000000000000000000000000000000000000000000000000000000000815260040180806020018281038252602d815260200180612dcd602d913960400191505060405180910390fd5b8073ffffffffffffffffffffffffffffffffffffffff16600073ffffffffffffffffffffffffffffffffffffffff167f74da04524d50c64947f5dd5381ef1a4dca5cba8ed1d816243f9e48aa0b5617ed60405160405180910390a380600760006101000a81548173ffffffffffffffffffffffffffffffffffffffff021916908373ffffffffffffffffffffffffffffffffffffffff16021790555050565b600073ffffffffffffffffffffffffffffffffffffffff168273ffffffffffffffffffffffffffffffffffffffff1614156127c8576040517f08c379a000000000000000000000000000000000000000000000000000000000815260040180806020018281038252601f8152602001807f42455032303a206d696e7420746f20746865207a65726f20616464726573730081525060200191505060405180910390fd5b6127d460008383612a28565b6127e981600254611ff390919063ffffffff16565b600281905550612840816000808573ffffffffffffffffffffffffffffffffffffffff1673ffffffffffffffffffffffffffffffffffffffff16815260200190815260200160002054611ff390919063ffffffff16565b6000808473ffffffffffffffffffffffffffffffffffffffff1673ffffffffffffffffffffffffffffffffffffffff168152602001908152602001600020819055508173ffffffffffffffffffffffffffffffffffffffff16600073ffffffffffffffffffffffffffffffffffffffff167fddf252ad1be2c89b69c2b068fc378daa952ba7f163c4a11628f55a4df523b3ef836040518082815260200191505060405180910390a35050565b6128fd6128f7612080565b82612b04565b50565b600061293f82604051806060016040528060248152602001612e1b602491396129308661292b612080565b611c8c565b6125409092919063ffffffff16565b90506129538361294d612080565b83612088565b61295d8383612b04565b505050565b60008083118290612a0e576040517f08c379a00000000000000000000000000000000000000000000000000000000081526004018080602001828103825283818151815260200191508051906020019080838360005b838110156129d35780820151818401526020810190506129b8565b50505050905090810190601f168015612a005780820380516001836020036101000a031916815260200191505b509250505060405180910390fd5b506000838581612a1a57fe5b049050809150509392505050565b612a3383838361207b565b600073ffffffffffffffffffffffffffffffffffffffff168373ffffffffffffffffffffffffffffffffffffffff161415612aff57612a70610c60565b612a8a82612a7c610a90565b611ff390919063ffffffff16565b1115612afe576040517f08c379a00000000000000000000000000000000000000000000000000000000081526004018080602001828103825260198152602001807f42455032304361707065643a206361702065786365656465640000000000000081525060200191505060405180910390fd5b5b505050565b600073ffffffffffffffffffffffffffffffffffffffff168273ffffffffffffffffffffffffffffffffffffffff161415612b8a576040517f08c379a0000000000000000000000000000000000000000000000000000000008152600401808060200182810382526021815260200180612ed16021913960400191505060405180910390fd5b612b9682600083612a28565b612c0181604051806060016040528060228152602001612f13602291396000808673ffffffffffffffffffffffffffffffffffffffff1673ffffffffffffffffffffffffffffffffffffffff168152602001908152602001600020546125409092919063ffffffff16565b6000808473ffffffffffffffffffffffffffffffffffffffff1673ffffffffffffffffffffffffffffffffffffffff16815260200190815260200160002081905550612c5881600254612cc890919063ffffffff16565b600281905550600073ffffffffffffffffffffffffffffffffffffffff168273ffffffffffffffffffffffffffffffffffffffff167fddf252ad1be2c89b69c2b068fc378daa952ba7f163c4a11628f55a4df523b3ef836040518082815260200191505060405180910390a35050565b6000612d0a83836040518060400160405280601e81526020017f536166654d6174683a207375627472616374696f6e206f766572666c6f770000815250612540565b90509291505056fe42455032303a207472616e736665722066726f6d20746865207a65726f206164647265737342455032303a20617070726f76652066726f6d20746865207a65726f20616464726573734f776e61626c653a206e6577206f776e657220697320746865207a65726f20616464726573734d6178207072697661746553616c6520616c6c6f636174696f6e2072656c656173656442455032303a207472616e7366657220616d6f756e74206578636565647320616c6c6f77616e63656f70657261746f723a207a65726f206164647265737320676976656e20666f72206e6577206f70657261746f72536166654d6174683a206d756c7469706c69636174696f6e206f766572666c6f7745524332303a206275726e20616d6f756e74206578636565647320616c6c6f77616e63656f70657261746f723a2063616c6c6572206973206e6f7420746865206f70657261746f7242455032303a207472616e7366657220616d6f756e7420657863656564732062616c616e636542455032303a207472616e7366657220746f20746865207a65726f206164647265737342455032303a2064656372656173656420616c6c6f77616e63652062656c6f77207a65726f42455032303a206275726e2066726f6d20746865207a65726f20616464726573734d6178206d61726b6574696e6720616c6c6f636174696f6e2072656c656173656442455032303a206275726e20616d6f756e7420657863656564732062616c616e636542455032303a20617070726f766520746f20746865207a65726f2061646472657373a26469706673582212209671811679c3928da26837b80775a3d499d47ebc0c730834fc2a86cd3df648cb64736f6c634300060c0033536166654d6174683a206d756c7469706c69636174696f6e206f766572666c6f77",
  "immutableReferences": {},
  "source": "pragma solidity ^0.6.0;\n\nimport './owner/Operator.sol';\nimport './lib/BEP20Burnable.sol';\nimport \"@openzeppelin/contracts/math/SafeMath.sol\";\n\ncontract Token is BEP20Burnable, Operator {\n\n    uint256 private _cap = 120000000e18; // 120.000.000;\n\n    uint256 private teamAllocation = _cap.mul(4).div(100); // The Team will hold 4% (4,800,000) of FATs.\n    uint256 private adviserAllocation = _cap.mul(4).div(100); // Advisors will hold 4% (4,800,000) of FATs.\n    uint256 private farmingAllocation = _cap.mul(17).div(100); // 17% (20,400,000) FATs will be staking rewards reserve\n    uint256 private marketingAllocation = _cap.mul(4).div(100); // 4% (4,800,000) of FATs will be used for marketing & pr\n    uint256 private privateSaleAllocation = _cap.mul(67).div(100); // Private Sale will hold 67% (80,400,000) of FATs.\n    uint256 private publicSaleAllocation = _cap.mul(4).div(100); // Public Sale will hold 4% (4,800,000) of FATs.\n\n    uint256 private teamReleased = 0;\n    uint256 private adviserReleased = 0;\n    uint256 private farmingReleased = 0;\n    uint256 private marketingReleased = 0;\n    uint256 private privateSaleReleased = 0;\n    uint256 private publicSaleReleased = 0;\n\n\n    uint private lastTeamReleased = now + 180 days; // 6 months after TGE\n    uint private lastAdviserReleased = now + 180 days; // 6 months after TGE\n    uint private lastMarketingReleased = now + 90 days; // unlock 25% every 3 months\n    uint private lastPrivateSaleReleased = now + 90 days; // unlock 25% every 3 months\n\n\n    uint256 private amountEachTeamRelease = teamAllocation.mul(5).div(100);\n    uint256 private amountEachAdviserRelease = adviserAllocation.mul(5).div(100);\n    uint256 private amountEachMarketingRelease = marketingAllocation.mul(25).div(100);\n    uint256 private amountEachPrivateSaleRelease = privateSaleAllocation.mul(25).div(100);\n\n    /**\n     * @notice Constructs the Fat Token BEP-20 contract.\n     */\n    constructor(\n        address _publicSaleTGEAddress,\n        address _privateSaleTGEAddress\n    ) public BEP20('Fatfi Protocol', 'FAT', 18) {\n        _mint(_privateSaleTGEAddress,amountEachPrivateSaleRelease);\n        privateSaleReleased = privateSaleReleased.add(amountEachPrivateSaleRelease);\n        _mint(_publicSaleTGEAddress,publicSaleAllocation);\n        publicSaleReleased = publicSaleReleased.add(publicSaleAllocation);\n    }\n\n    function cap() public view returns (uint256) {\n        return _cap;\n    }\n\n    function releaseTeamAllocation(address _receiver) public onlyOperator {\n        require(teamReleased.add(amountEachTeamRelease) <= teamAllocation, 'Max team allocation released');\n        require(now - lastTeamReleased >= 1 days, 'Please wait to next checkpoint');\n        _mint(_receiver,amountEachTeamRelease);\n        teamReleased = teamReleased.add(amountEachTeamRelease);\n        lastTeamReleased = lastTeamReleased + 30 days;\n    }\n\n    function releaseAdviserAllocation(address _receiver) public onlyOperator {\n        require(adviserReleased.add(amountEachAdviserRelease) <= adviserAllocation, 'Max adviser allocation released');\n        require(now - lastAdviserReleased >= 1 days, 'Please wait to next checkpoint');\n        _mint(_receiver,amountEachAdviserRelease);\n        adviserReleased = adviserReleased.add(amountEachAdviserRelease);\n        lastAdviserReleased = lastAdviserReleased + 30 days;\n    }\n\n    function releaseMarketingAllocation(address _receiver) public onlyOperator {\n        require(marketingReleased.add(amountEachMarketingRelease) <= marketingAllocation, 'Max marketing allocation released');\n        require(now - lastMarketingReleased >= 1 days, 'Please wait to next checkpoint');\n        _mint(_receiver,amountEachMarketingRelease);\n        marketingReleased = marketingReleased.add(amountEachMarketingRelease);\n        lastMarketingReleased = lastMarketingReleased + 90 days;\n    }\n\n    function releasePrivateSaleAllocation(address _receiver) public onlyOperator {\n        require(privateSaleReleased.add(amountEachPrivateSaleRelease) <= privateSaleAllocation, 'Max privateSale allocation released');\n        require(now - lastPrivateSaleReleased >= 1 days, 'Please wait to next checkpoint');\n        _mint(_receiver,amountEachPrivateSaleRelease);\n        privateSaleReleased = privateSaleReleased.add(amountEachPrivateSaleRelease);\n        lastPrivateSaleReleased = lastPrivateSaleReleased + 90 days;\n    }\n\n    function releaseFarmAllocation(address _farmAddress, uint256 _amount) public onlyOperator {\n        require(farmingReleased.add(_amount) <= farmingAllocation, 'Max farming allocation released');\n        _mint(_farmAddress,_amount);\n        farmingReleased = farmingReleased.add(_amount);\n    }\n\n    /**\n     * @notice Operator mints Fat bonds to a recipient\n     * @param recipient_ The address of recipient\n     * @param amount_ The amount of Fat bonds to mint to\n     * @return whether the process has been done\n     */\n\n    function mint(address recipient_, uint256 amount_)\n    public\n    onlyOperator\n    returns (bool)\n    {\n        uint256 balanceBefore = balanceOf(recipient_);\n        _mint(recipient_, amount_);\n        uint256 balanceAfter = balanceOf(recipient_);\n\n        return balanceAfter > balanceBefore;\n    }\n\n    function burn(uint256 amount) public override onlyOperator {\n        super.burn(amount);\n    }\n\n    function burnFrom(address account, uint256 amount)\n    public\n    override\n    onlyOperator\n    {\n        super.burnFrom(account, amount);\n    }\n\n\n    /**\n     * @dev See {BEP20-_beforeTokenTransfer}.\n     *\n     * Requirements:\n     *\n     * - minted tokens must not cause the total supply to go over the cap.\n     */\n    function _beforeTokenTransfer(\n        address from,\n        address to,\n        uint256 amount\n    ) internal virtual override {\n        super._beforeTokenTransfer(from, to, amount);\n\n        if (from == address(0)) {\n            // When minting tokens\n            require(totalSupply().add(amount) <= cap(), \"BEP20Capped: cap exceeded\");\n        }\n    }\n}\n",
  "sourcePath": "/Volumes/Developer/Workspace/farmbria/fat-token/contracts/Token.sol",
  "compiler": {
    "name": "solc",
    "version": "0.6.12+commit.27d51765.Emscripten.clang"
  },
  "schemaVersion": "3.3.1",
  "updatedAt": "2021-03-17T11:23:56.406Z",
  "networkType": "ethereum",
  "devdoc": {
    "kind": "dev",
    "methods": {
      "allowance(address,address)": {
        "details": "See {IBEP20-allowance}."
      },
      "approve(address,uint256)": {
        "details": "See {IBEP20-approve}. Requirements: - `spender` cannot be the zero address."
      },
      "balanceOf(address)": {
        "details": "See {IBEP20-balanceOf}."
      },
      "burn(uint256)": {
        "details": "Destroys `amount` tokens from the caller."
      },
      "burnFrom(address,uint256)": {
        "details": "Destroys `amount` tokens from `account`, deducting from the caller's allowance. Requirements: - the caller must have allowance for ``accounts``'s tokens of at least `amount`."
      },
      "decimals()": {
        "details": "Returns the number of decimals used to get its user representation. For example, if `decimals` equals `2`, a balance of `505` tokens should be displayed to a user as `5,05` (`505 / 10 ** 2`). NOTE: This information is only used for _display_ purposes: it in no way affects any of the arithmetic of the contract, including {IBEP20-balanceOf} and {IBEP20-transfer}."
      },
      "decreaseAllowance(address,uint256)": {
        "details": "Atomically decreases the allowance granted to `spender` by the caller. This is an alternative to {approve} that can be used as a mitigation for problems described in {IBEP20-approve}. Emits an {Approval} event indicating the updated allowance. Requirements: - `spender` cannot be the zero address. - `spender` must have allowance for the caller of at least `subtractedValue`."
      },
      "getOwner()": {
        "details": "Returns the bep token owner."
      },
      "increaseAllowance(address,uint256)": {
        "details": "Atomically increases the allowance granted to `spender` by the caller. This is an alternative to {approve} that can be used as a mitigation for problems described in {IBEP20-approve}. Emits an {Approval} event indicating the updated allowance. Requirements: - `spender` cannot be the zero address."
      },
      "mint(address,uint256)": {
        "params": {
          "amount_": "The amount of Fat bonds to mint to",
          "recipient_": "The address of recipient"
        },
        "returns": {
          "_0": "whether the process has been done"
        }
      },
      "name()": {
        "details": "Returns the name of the token."
      },
      "owner()": {
        "details": "Returns the address of the current owner."
      },
      "renounceOwnership()": {
        "details": "Leaves the contract without owner. It will not be possible to call `onlyOwner` functions anymore. Can only be called by the current owner. NOTE: Renouncing ownership will leave the contract without an owner, thereby removing any functionality that is only available to the owner."
      },
      "symbol()": {
        "details": "Returns the symbol of the token, usually a shorter version of the name."
      },
      "totalSupply()": {
        "details": "See {IBEP20-totalSupply}."
      },
      "transfer(address,uint256)": {
        "details": "See {IBEP20-transfer}. Requirements: - `recipient` cannot be the zero address. - the caller must have a balance of at least `amount`."
      },
      "transferFrom(address,address,uint256)": {
        "details": "See {IBEP20-transferFrom}. Emits an {Approval} event indicating the updated allowance. This is not required by the EIP. See the note at the beginning of {BEP20}. Requirements: - `sender` and `recipient` cannot be the zero address. - `sender` must have a balance of at least `amount`. - the caller must have allowance for ``sender``'s tokens of at least `amount`."
      },
      "transferOwnership(address)": {
        "details": "Transfers ownership of the contract to a new account (`newOwner`). Can only be called by the current owner."
      }
    },
    "version": 1
  },
  "userdoc": {
    "kind": "user",
    "methods": {
      "constructor": "Constructs the Fat Token BEP-20 contract.",
      "mint(address,uint256)": {
        "notice": "Operator mints Fat bonds to a recipient"
      }
    },
    "version": 1
  }
}