{
  "contractName": "Treasury",
  "abi": [
    {
      "inputs": [
        {
          "internalType": "address",
          "name": "_cash",
          "type": "address"
        },
        {
          "internalType": "address",
          "name": "_bond",
          "type": "address"
        },
        {
          "internalType": "address",
          "name": "_share",
          "type": "address"
        },
        {
          "internalType": "address",
          "name": "_bondOracle",
          "type": "address"
        },
        {
          "internalType": "address",
          "name": "_seigniorageOracle",
          "type": "address"
        },
        {
          "internalType": "address",
          "name": "_boardroom",
          "type": "address"
        },
        {
          "internalType": "address",
          "name": "_fund",
          "type": "address"
        },
        {
          "internalType": "uint256",
          "name": "_startTime",
          "type": "uint256"
        }
      ],
      "stateMutability": "nonpayable",
      "type": "constructor"
    },
    {
      "anonymous": false,
      "inputs": [
        {
          "indexed": false,
          "internalType": "uint256",
          "name": "timestamp",
          "type": "uint256"
        },
        {
          "indexed": false,
          "internalType": "uint256",
          "name": "seigniorage",
          "type": "uint256"
        }
      ],
      "name": "BoardroomFunded",
      "type": "event"
    },
    {
      "anonymous": false,
      "inputs": [
        {
          "indexed": true,
          "internalType": "address",
          "name": "from",
          "type": "address"
        },
        {
          "indexed": false,
          "internalType": "uint256",
          "name": "amount",
          "type": "uint256"
        }
      ],
      "name": "BoughtBonds",
      "type": "event"
    },
    {
      "anonymous": false,
      "inputs": [
        {
          "indexed": true,
          "internalType": "address",
          "name": "operator",
          "type": "address"
        },
        {
          "indexed": false,
          "internalType": "address",
          "name": "newFund",
          "type": "address"
        }
      ],
      "name": "ContributionPoolChanged",
      "type": "event"
    },
    {
      "anonymous": false,
      "inputs": [
        {
          "indexed": false,
          "internalType": "uint256",
          "name": "timestamp",
          "type": "uint256"
        },
        {
          "indexed": false,
          "internalType": "uint256",
          "name": "seigniorage",
          "type": "uint256"
        }
      ],
      "name": "ContributionPoolFunded",
      "type": "event"
    },
    {
      "anonymous": false,
      "inputs": [
        {
          "indexed": true,
          "internalType": "address",
          "name": "operator",
          "type": "address"
        },
        {
          "indexed": false,
          "internalType": "uint256",
          "name": "newRate",
          "type": "uint256"
        }
      ],
      "name": "ContributionPoolRateChanged",
      "type": "event"
    },
    {
      "anonymous": false,
      "inputs": [
        {
          "indexed": true,
          "internalType": "address",
          "name": "executor",
          "type": "address"
        },
        {
          "indexed": false,
          "internalType": "uint256",
          "name": "at",
          "type": "uint256"
        }
      ],
      "name": "Initialized",
      "type": "event"
    },
    {
      "anonymous": false,
      "inputs": [
        {
          "indexed": true,
          "internalType": "address",
          "name": "target",
          "type": "address"
        }
      ],
      "name": "Migration",
      "type": "event"
    },
    {
      "anonymous": false,
      "inputs": [
        {
          "indexed": true,
          "internalType": "address",
          "name": "previousOperator",
          "type": "address"
        },
        {
          "indexed": true,
          "internalType": "address",
          "name": "newOperator",
          "type": "address"
        }
      ],
      "name": "OperatorTransferred",
      "type": "event"
    },
    {
      "anonymous": false,
      "inputs": [
        {
          "indexed": true,
          "internalType": "address",
          "name": "previousOwner",
          "type": "address"
        },
        {
          "indexed": true,
          "internalType": "address",
          "name": "newOwner",
          "type": "address"
        }
      ],
      "name": "OwnershipTransferred",
      "type": "event"
    },
    {
      "anonymous": false,
      "inputs": [
        {
          "indexed": true,
          "internalType": "address",
          "name": "from",
          "type": "address"
        },
        {
          "indexed": false,
          "internalType": "uint256",
          "name": "amount",
          "type": "uint256"
        }
      ],
      "name": "RedeemedBonds",
      "type": "event"
    },
    {
      "anonymous": false,
      "inputs": [
        {
          "indexed": false,
          "internalType": "uint256",
          "name": "timestamp",
          "type": "uint256"
        },
        {
          "indexed": false,
          "internalType": "uint256",
          "name": "seigniorage",
          "type": "uint256"
        }
      ],
      "name": "TreasuryFunded",
      "type": "event"
    },
    {
      "inputs": [],
      "name": "boardroom",
      "outputs": [
        {
          "internalType": "address",
          "name": "",
          "type": "address"
        }
      ],
      "stateMutability": "view",
      "type": "function",
      "constant": true
    },
    {
      "inputs": [],
      "name": "bond",
      "outputs": [
        {
          "internalType": "address",
          "name": "",
          "type": "address"
        }
      ],
      "stateMutability": "view",
      "type": "function",
      "constant": true
    },
    {
      "inputs": [],
      "name": "bondDepletionFloor",
      "outputs": [
        {
          "internalType": "uint256",
          "name": "",
          "type": "uint256"
        }
      ],
      "stateMutability": "view",
      "type": "function",
      "constant": true
    },
    {
      "inputs": [],
      "name": "bondOracle",
      "outputs": [
        {
          "internalType": "address",
          "name": "",
          "type": "address"
        }
      ],
      "stateMutability": "view",
      "type": "function",
      "constant": true
    },
    {
      "inputs": [],
      "name": "cash",
      "outputs": [
        {
          "internalType": "address",
          "name": "",
          "type": "address"
        }
      ],
      "stateMutability": "view",
      "type": "function",
      "constant": true
    },
    {
      "inputs": [],
      "name": "cashPriceCeiling",
      "outputs": [
        {
          "internalType": "uint256",
          "name": "",
          "type": "uint256"
        }
      ],
      "stateMutability": "view",
      "type": "function",
      "constant": true
    },
    {
      "inputs": [],
      "name": "cashPriceOne",
      "outputs": [
        {
          "internalType": "uint256",
          "name": "",
          "type": "uint256"
        }
      ],
      "stateMutability": "view",
      "type": "function",
      "constant": true
    },
    {
      "inputs": [],
      "name": "fund",
      "outputs": [
        {
          "internalType": "address",
          "name": "",
          "type": "address"
        }
      ],
      "stateMutability": "view",
      "type": "function",
      "constant": true
    },
    {
      "inputs": [],
      "name": "fundAllocationRate",
      "outputs": [
        {
          "internalType": "uint256",
          "name": "",
          "type": "uint256"
        }
      ],
      "stateMutability": "view",
      "type": "function",
      "constant": true
    },
    {
      "inputs": [],
      "name": "getCurrentEpoch",
      "outputs": [
        {
          "internalType": "uint256",
          "name": "",
          "type": "uint256"
        }
      ],
      "stateMutability": "view",
      "type": "function",
      "constant": true
    },
    {
      "inputs": [],
      "name": "getPeriod",
      "outputs": [
        {
          "internalType": "uint256",
          "name": "",
          "type": "uint256"
        }
      ],
      "stateMutability": "view",
      "type": "function",
      "constant": true
    },
    {
      "inputs": [],
      "name": "getStartTime",
      "outputs": [
        {
          "internalType": "uint256",
          "name": "",
          "type": "uint256"
        }
      ],
      "stateMutability": "view",
      "type": "function",
      "constant": true
    },
    {
      "inputs": [],
      "name": "initialized",
      "outputs": [
        {
          "internalType": "bool",
          "name": "",
          "type": "bool"
        }
      ],
      "stateMutability": "view",
      "type": "function",
      "constant": true
    },
    {
      "inputs": [],
      "name": "isOperator",
      "outputs": [
        {
          "internalType": "bool",
          "name": "",
          "type": "bool"
        }
      ],
      "stateMutability": "view",
      "type": "function",
      "constant": true
    },
    {
      "inputs": [],
      "name": "migrated",
      "outputs": [
        {
          "internalType": "bool",
          "name": "",
          "type": "bool"
        }
      ],
      "stateMutability": "view",
      "type": "function",
      "constant": true
    },
    {
      "inputs": [],
      "name": "nextEpochPoint",
      "outputs": [
        {
          "internalType": "uint256",
          "name": "",
          "type": "uint256"
        }
      ],
      "stateMutability": "view",
      "type": "function",
      "constant": true
    },
    {
      "inputs": [],
      "name": "operator",
      "outputs": [
        {
          "internalType": "address",
          "name": "",
          "type": "address"
        }
      ],
      "stateMutability": "view",
      "type": "function",
      "constant": true
    },
    {
      "inputs": [],
      "name": "owner",
      "outputs": [
        {
          "internalType": "address",
          "name": "",
          "type": "address"
        }
      ],
      "stateMutability": "view",
      "type": "function",
      "constant": true
    },
    {
      "inputs": [],
      "name": "renounceOwnership",
      "outputs": [],
      "stateMutability": "nonpayable",
      "type": "function"
    },
    {
      "inputs": [],
      "name": "seigniorageOracle",
      "outputs": [
        {
          "internalType": "address",
          "name": "",
          "type": "address"
        }
      ],
      "stateMutability": "view",
      "type": "function",
      "constant": true
    },
    {
      "inputs": [
        {
          "internalType": "uint256",
          "name": "_period",
          "type": "uint256"
        }
      ],
      "name": "setPeriod",
      "outputs": [],
      "stateMutability": "nonpayable",
      "type": "function"
    },
    {
      "inputs": [],
      "name": "share",
      "outputs": [
        {
          "internalType": "address",
          "name": "",
          "type": "address"
        }
      ],
      "stateMutability": "view",
      "type": "function",
      "constant": true
    },
    {
      "inputs": [
        {
          "internalType": "address",
          "name": "newOperator_",
          "type": "address"
        }
      ],
      "name": "transferOperator",
      "outputs": [],
      "stateMutability": "nonpayable",
      "type": "function"
    },
    {
      "inputs": [
        {
          "internalType": "address",
          "name": "newOwner",
          "type": "address"
        }
      ],
      "name": "transferOwnership",
      "outputs": [],
      "stateMutability": "nonpayable",
      "type": "function"
    },
    {
      "inputs": [],
      "name": "getReserve",
      "outputs": [
        {
          "internalType": "uint256",
          "name": "",
          "type": "uint256"
        }
      ],
      "stateMutability": "view",
      "type": "function",
      "constant": true
    },
    {
      "inputs": [],
      "name": "getBondOraclePrice",
      "outputs": [
        {
          "internalType": "uint256",
          "name": "",
          "type": "uint256"
        }
      ],
      "stateMutability": "view",
      "type": "function",
      "constant": true
    },
    {
      "inputs": [],
      "name": "getSeigniorageOraclePrice",
      "outputs": [
        {
          "internalType": "uint256",
          "name": "",
          "type": "uint256"
        }
      ],
      "stateMutability": "view",
      "type": "function",
      "constant": true
    },
    {
      "inputs": [],
      "name": "initialize",
      "outputs": [],
      "stateMutability": "nonpayable",
      "type": "function"
    },
    {
      "inputs": [
        {
          "internalType": "address",
          "name": "target",
          "type": "address"
        }
      ],
      "name": "migrate",
      "outputs": [],
      "stateMutability": "nonpayable",
      "type": "function"
    },
    {
      "inputs": [
        {
          "internalType": "address",
          "name": "newFund",
          "type": "address"
        }
      ],
      "name": "setFund",
      "outputs": [],
      "stateMutability": "nonpayable",
      "type": "function"
    },
    {
      "inputs": [
        {
          "internalType": "uint256",
          "name": "rate",
          "type": "uint256"
        }
      ],
      "name": "setFundAllocationRate",
      "outputs": [],
      "stateMutability": "nonpayable",
      "type": "function"
    },
    {
      "inputs": [
        {
          "internalType": "uint256",
          "name": "amount",
          "type": "uint256"
        },
        {
          "internalType": "uint256",
          "name": "targetPrice",
          "type": "uint256"
        }
      ],
      "name": "buyBonds",
      "outputs": [],
      "stateMutability": "nonpayable",
      "type": "function"
    },
    {
      "inputs": [
        {
          "internalType": "uint256",
          "name": "amount",
          "type": "uint256"
        },
        {
          "internalType": "uint256",
          "name": "targetPrice",
          "type": "uint256"
        }
      ],
      "name": "redeemBonds",
      "outputs": [],
      "stateMutability": "nonpayable",
      "type": "function"
    },
    {
      "inputs": [],
      "name": "allocateSeigniorage",
      "outputs": [],
      "stateMutability": "nonpayable",
      "type": "function"
    }
  ],
  "bytecode": "0x60806040526000600660006101000a81548160ff0219169083151502179055506000600660016101000a81548160ff021916908315150217905550600060105560026011553480156200005157600080fd5b5060405162005dae38038062005dae83398181016040526101008110156200007857600080fd5b8101908080519060200190929190805190602001909291908051906020019092919080519060200190929190805190602001909291908051906020019092919080519060200190929190805190602001909291905050506201518081600080620000e7620004b060201b60201c565b905080600160006101000a81548173ffffffffffffffffffffffffffffffffffffffff021916908373ffffffffffffffffffffffffffffffffffffffff1602179055508073ffffffffffffffffffffffffffffffffffffffff16600073ffffffffffffffffffffffffffffffffffffffff167f8be0079c531659141344cd1fd0a4f28419497f9722a3daafe3b4186f6b6457e060405160405180910390a35062000196620004b060201b60201c565b600260006101000a81548173ffffffffffffffffffffffffffffffffffffffff021916908373ffffffffffffffffffffffffffffffffffffffff160217905550600260009054906101000a900473ffffffffffffffffffffffffffffffffffffffff1673ffffffffffffffffffffffffffffffffffffffff16600073ffffffffffffffffffffffffffffffffffffffff167f74da04524d50c64947f5dd5381ef1a4dca5cba8ed1d816243f9e48aa0b5617ed60405160405180910390a382600381905550816004819055508060058190555050505087600760006101000a81548173ffffffffffffffffffffffffffffffffffffffff021916908373ffffffffffffffffffffffffffffffffffffffff16021790555086600860006101000a81548173ffffffffffffffffffffffffffffffffffffffff021916908373ffffffffffffffffffffffffffffffffffffffff16021790555085600960006101000a81548173ffffffffffffffffffffffffffffffffffffffff021916908373ffffffffffffffffffffffffffffffffffffffff16021790555084600b60006101000a81548173ffffffffffffffffffffffffffffffffffffffff021916908373ffffffffffffffffffffffffffffffffffffffff16021790555083600c60006101000a81548173ffffffffffffffffffffffffffffffffffffffff021916908373ffffffffffffffffffffffffffffffffffffffff16021790555082600a60006101000a81548173ffffffffffffffffffffffffffffffffffffffff021916908373ffffffffffffffffffffffffffffffffffffffff16021790555081600660026101000a81548173ffffffffffffffffffffffffffffffffffffffff021916908373ffffffffffffffffffffffffffffffffffffffff160217905550670de0b6b3a7640000600d8190555062000478606462000464600d546069620004b860201b620047e81790919060201c565b6200054360201b6200486e1790919060201c565b600e819055506200049c600d546103e8620004b860201b620047e81790919060201c565b600f81905550505050505050505062000660565b600033905090565b600080831415620004cd57600090506200053d565b6000828402905082848281620004df57fe5b041462000538576040517f08c379a000000000000000000000000000000000000000000000000000000000815260040180806020018281038252602181526020018062005d8d6021913960400191505060405180910390fd5b809150505b92915050565b60006200058d83836040518060400160405280601a81526020017f536166654d6174683a206469766973696f6e206279207a65726f0000000000008152506200059560201b60201c565b905092915050565b6000808311829062000645576040517f08c379a00000000000000000000000000000000000000000000000000000000081526004018080602001828103825283818151815260200191508051906020019080838360005b8381101562000609578082015181840152602081019050620005ec565b50505050905090810190601f168015620006375780820380516001836020036101000a031916815260200191505b509250505060405180910390fd5b5060008385816200065257fe5b049050809150509392505050565b61571d80620006706000396000f3fe608060405234801561001057600080fd5b50600436106102065760003560e01c8063715018a61161011a578063b8e2cf8e116100ad578063c5967c261161007c578063c5967c26146106a1578063c828371e146106bf578063ce5494bb146106dd578063e03047b714610721578063f2fde38b1461073f57610206565b8063b8e2cf8e14610629578063b97dd9e214610647578063c1a2977214610665578063c1aa39001461068357610206565b8063961be391116100e9578063961be3911461056f578063a8d5fd65146105a3578063a9cfc46e146105d7578063b60d4288146105f557610206565b8063715018a6146104f95780638129fc1c146105035780638da5cb5b1461050d57806395b1828a1461054157610206565b80632c678c641161019d57806359bf5d391161016c57806359bf5d39146104355780635b756179146104535780635e02c51e1461045d57806364c9ec6f146104915780636d19921d146104c557610206565b80632c678c64146103895780634456eda2146103a957806354f04a11146103c9578063570ca7351461040157610206565b8063158ef93e116101d9578063158ef93e146102e95780631ed241951461030957806323ced1351461032757806329605e771461034557610206565b80630e21750f1461020b5780630f3a9f651461024f578063118ebbf91461027d578063132eeaa7146102b5575b600080fd5b61024d6004803603602081101561022157600080fd5b81019080803573ffffffffffffffffffffffffffffffffffffffff169060200190929190505050610783565b005b61027b6004803603602081101561026557600080fd5b81019080803590602001909291905050506108d1565b005b6102b36004803603604081101561029357600080fd5b810190808035906020019092919080359060200190929190505050610981565b005b6102bd6113c2565b604051808273ffffffffffffffffffffffffffffffffffffffff16815260200191505060405180910390f35b6102f16113e8565b60405180821515815260200191505060405180910390f35b6103116113fb565b6040518082815260200191505060405180910390f35b61032f611405565b6040518082815260200191505060405180910390f35b6103876004803603602081101561035b57600080fd5b81019080803573ffffffffffffffffffffffffffffffffffffffff16906020019092919050505061140b565b005b6103916114e1565b60405180821515815260200191505060405180910390f35b6103b16114f4565b60405180821515815260200191505060405180910390f35b6103ff600480360360408110156103df57600080fd5b810190808035906020019092919080359060200190929190505050611553565b005b610409611f06565b604051808273ffffffffffffffffffffffffffffffffffffffff16815260200191505060405180910390f35b61043d611f30565b6040518082815260200191505060405180910390f35b61045b611f3a565b005b610465612ccf565b604051808273ffffffffffffffffffffffffffffffffffffffff16815260200191505060405180910390f35b610499612cf5565b604051808273ffffffffffffffffffffffffffffffffffffffff16815260200191505060405180910390f35b6104cd612d1b565b604051808273ffffffffffffffffffffffffffffffffffffffff16815260200191505060405180910390f35b610501612d41565b005b61050b612ecc565b005b6105156135a2565b604051808273ffffffffffffffffffffffffffffffffffffffff16815260200191505060405180910390f35b61056d6004803603602081101561055757600080fd5b81019080803590602001909291905050506135cc565b005b6105776136ca565b604051808273ffffffffffffffffffffffffffffffffffffffff16815260200191505060405180910390f35b6105ab6136f0565b604051808273ffffffffffffffffffffffffffffffffffffffff16815260200191505060405180910390f35b6105df613716565b6040518082815260200191505060405180910390f35b6105fd61371c565b604051808273ffffffffffffffffffffffffffffffffffffffff16815260200191505060405180910390f35b610631613742565b6040518082815260200191505060405180910390f35b61064f613774565b6040518082815260200191505060405180910390f35b61066d61377e565b6040518082815260200191505060405180910390f35b61068b6137b0565b6040518082815260200191505060405180910390f35b6106a96137b6565b6040518082815260200191505060405180910390f35b6106c76137e8565b6040518082815260200191505060405180910390f35b61071f600480360360208110156106f357600080fd5b81019080803573ffffffffffffffffffffffffffffffffffffffff1690602001909291905050506137f2565b005b6107296145d2565b6040518082815260200191505060405180910390f35b6107816004803603602081101561075557600080fd5b81019080803573ffffffffffffffffffffffffffffffffffffffff1690602001909291905050506145d8565b005b3373ffffffffffffffffffffffffffffffffffffffff16600260009054906101000a900473ffffffffffffffffffffffffffffffffffffffff1673ffffffffffffffffffffffffffffffffffffffff1614610829576040517f08c379a000000000000000000000000000000000000000000000000000000000815260040180806020018281038252602481526020018061569e6024913960400191505060405180910390fd5b80600660026101000a81548173ffffffffffffffffffffffffffffffffffffffff021916908373ffffffffffffffffffffffffffffffffffffffff1602179055503373ffffffffffffffffffffffffffffffffffffffff167f970b0c70d6e9879d19345f9dbfd8bacae71546478b8bb2d8a56ad8927d3d436e82604051808273ffffffffffffffffffffffffffffffffffffffff16815260200191505060405180910390a250565b3373ffffffffffffffffffffffffffffffffffffffff16600260009054906101000a900473ffffffffffffffffffffffffffffffffffffffff1673ffffffffffffffffffffffffffffffffffffffff1614610977576040517f08c379a000000000000000000000000000000000000000000000000000000000815260040180806020018281038252602481526020018061569e6024913960400191505060405180910390fd5b8060038190555050565b6109896148b8565b156109df576040517f08c379a00000000000000000000000000000000000000000000000000000000081526004018080602001828103825260268152602001806156c26026913960400191505060405180910390fd5b6109e761491c565b15610a3d576040517f08c379a00000000000000000000000000000000000000000000000000000000081526004018080602001828103825260268152602001806156c26026913960400191505060405180910390fd5b600660009054906101000a900460ff1615610ac0576040517f08c379a00000000000000000000000000000000000000000000000000000000081526004018080602001828103825260128152602001807f54726561737572793a206d69677261746564000000000000000000000000000081525060200191505060405180910390fd5b600454421015610b38576040517f08c379a00000000000000000000000000000000000000000000000000000000081526004018080602001828103825260168152602001807f45706f63683a206e6f742073746172746564207965740000000000000000000081525060200191505060405180910390fd5b3073ffffffffffffffffffffffffffffffffffffffff16600760009054906101000a900473ffffffffffffffffffffffffffffffffffffffff1673ffffffffffffffffffffffffffffffffffffffff1663570ca7356040518163ffffffff1660e01b815260040160206040518083038186803b158015610bb757600080fd5b505afa158015610bcb573d6000803e3d6000fd5b505050506040513d6020811015610be157600080fd5b810190808051906020019092919050505073ffffffffffffffffffffffffffffffffffffffff16148015610ce257503073ffffffffffffffffffffffffffffffffffffffff16600860009054906101000a900473ffffffffffffffffffffffffffffffffffffffff1673ffffffffffffffffffffffffffffffffffffffff1663570ca7356040518163ffffffff1660e01b815260040160206040518083038186803b158015610c8f57600080fd5b505afa158015610ca3573d6000803e3d6000fd5b505050506040513d6020811015610cb957600080fd5b810190808051906020019092919050505073ffffffffffffffffffffffffffffffffffffffff16145b8015610dbb57503073ffffffffffffffffffffffffffffffffffffffff16600960009054906101000a900473ffffffffffffffffffffffffffffffffffffffff1673ffffffffffffffffffffffffffffffffffffffff1663570ca7356040518163ffffffff1660e01b815260040160206040518083038186803b158015610d6857600080fd5b505afa158015610d7c573d6000803e3d6000fd5b505050506040513d6020811015610d9257600080fd5b810190808051906020019092919050505073ffffffffffffffffffffffffffffffffffffffff16145b8015610e9457503073ffffffffffffffffffffffffffffffffffffffff16600a60009054906101000a900473ffffffffffffffffffffffffffffffffffffffff1673ffffffffffffffffffffffffffffffffffffffff1663570ca7356040518163ffffffff1660e01b815260040160206040518083038186803b158015610e4157600080fd5b505afa158015610e55573d6000803e3d6000fd5b505050506040513d6020811015610e6b57600080fd5b810190808051906020019092919050505073ffffffffffffffffffffffffffffffffffffffff16145b610f06576040517f08c379a000000000000000000000000000000000000000000000000000000000815260040180806020018281038252601e8152602001807f54726561737572793a206e656564206d6f7265207065726d697373696f6e000081525060200191505060405180910390fd5b60008211610f5f576040517f08c379a000000000000000000000000000000000000000000000000000000000815260040180806020018281038252602e81526020018061552f602e913960400191505060405180910390fd5b6000610f8c600b60009054906101000a900473ffffffffffffffffffffffffffffffffffffffff16614980565b9050818114611003576040517f08c379a000000000000000000000000000000000000000000000000000000000815260040180806020018281038252601a8152602001807f54726561737572793a2063617368207072696365206d6f76656400000000000081525060200191505060405180910390fd5b600e54811161105d576040517f08c379a000000000000000000000000000000000000000000000000000000000815260040180806020018281038252603281526020018061555d6032913960400191505060405180910390fd5b82600760009054906101000a900473ffffffffffffffffffffffffffffffffffffffff1673ffffffffffffffffffffffffffffffffffffffff166370a08231306040518263ffffffff1660e01b8152600401808273ffffffffffffffffffffffffffffffffffffffff16815260200191505060206040518083038186803b1580156110e757600080fd5b505afa1580156110fb573d6000803e3d6000fd5b505050506040513d602081101561111157600080fd5b81019080805190602001909291905050501015611179576040517f08c379a00000000000000000000000000000000000000000000000000000000081526004018080602001828103825260258152602001806155bc6025913960400191505060405180910390fd5b61119961118860105485614aad565b601054614ac690919063ffffffff16565b601081905550600860009054906101000a900473ffffffffffffffffffffffffffffffffffffffff1673ffffffffffffffffffffffffffffffffffffffff166379cc679033856040518363ffffffff1660e01b8152600401808373ffffffffffffffffffffffffffffffffffffffff16815260200182815260200192505050600060405180830381600087803b15801561123257600080fd5b505af1158015611246573d6000803e3d6000fd5b505050506112973384600760009054906101000a900473ffffffffffffffffffffffffffffffffffffffff1673ffffffffffffffffffffffffffffffffffffffff16614b109092919063ffffffff16565b61129f614bb2565b3373ffffffffffffffffffffffffffffffffffffffff167f9c3478f12dce08d85673d802af16ed5b9ebab8420ffd7b145d65d3157084b2ce846040518082815260200191505060405180910390a250600160008043815260200190815260200160002060003273ffffffffffffffffffffffffffffffffffffffff1673ffffffffffffffffffffffffffffffffffffffff16815260200190815260200160002060006101000a81548160ff021916908315150217905550600160008043815260200190815260200160002060003373ffffffffffffffffffffffffffffffffffffffff1673ffffffffffffffffffffffffffffffffffffffff16815260200190815260200160002060006101000a81548160ff0219169083151502179055505050565b600c60009054906101000a900473ffffffffffffffffffffffffffffffffffffffff1681565b600660019054906101000a900460ff1681565b6000600354905090565b600e5481565b611413614cbe565b73ffffffffffffffffffffffffffffffffffffffff16600160009054906101000a900473ffffffffffffffffffffffffffffffffffffffff1673ffffffffffffffffffffffffffffffffffffffff16146114d5576040517f08c379a00000000000000000000000000000000000000000000000000000000081526004018080602001828103825260208152602001807f4f776e61626c653a2063616c6c6572206973206e6f7420746865206f776e657281525060200191505060405180910390fd5b6114de81614cc6565b50565b600660009054906101000a900460ff1681565b6000600260009054906101000a900473ffffffffffffffffffffffffffffffffffffffff1673ffffffffffffffffffffffffffffffffffffffff16611537614cbe565b73ffffffffffffffffffffffffffffffffffffffff1614905090565b61155b6148b8565b156115b1576040517f08c379a00000000000000000000000000000000000000000000000000000000081526004018080602001828103825260268152602001806156c26026913960400191505060405180910390fd5b6115b961491c565b1561160f576040517f08c379a00000000000000000000000000000000000000000000000000000000081526004018080602001828103825260268152602001806156c26026913960400191505060405180910390fd5b600660009054906101000a900460ff1615611692576040517f08c379a00000000000000000000000000000000000000000000000000000000081526004018080602001828103825260128152602001807f54726561737572793a206d69677261746564000000000000000000000000000081525060200191505060405180910390fd5b60045442101561170a576040517f08c379a00000000000000000000000000000000000000000000000000000000081526004018080602001828103825260168152602001807f45706f63683a206e6f742073746172746564207965740000000000000000000081525060200191505060405180910390fd5b3073ffffffffffffffffffffffffffffffffffffffff16600760009054906101000a900473ffffffffffffffffffffffffffffffffffffffff1673ffffffffffffffffffffffffffffffffffffffff1663570ca7356040518163ffffffff1660e01b815260040160206040518083038186803b15801561178957600080fd5b505afa15801561179d573d6000803e3d6000fd5b505050506040513d60208110156117b357600080fd5b810190808051906020019092919050505073ffffffffffffffffffffffffffffffffffffffff161480156118b457503073ffffffffffffffffffffffffffffffffffffffff16600860009054906101000a900473ffffffffffffffffffffffffffffffffffffffff1673ffffffffffffffffffffffffffffffffffffffff1663570ca7356040518163ffffffff1660e01b815260040160206040518083038186803b15801561186157600080fd5b505afa158015611875573d6000803e3d6000fd5b505050506040513d602081101561188b57600080fd5b810190808051906020019092919050505073ffffffffffffffffffffffffffffffffffffffff16145b801561198d57503073ffffffffffffffffffffffffffffffffffffffff16600960009054906101000a900473ffffffffffffffffffffffffffffffffffffffff1673ffffffffffffffffffffffffffffffffffffffff1663570ca7356040518163ffffffff1660e01b815260040160206040518083038186803b15801561193a57600080fd5b505afa15801561194e573d6000803e3d6000fd5b505050506040513d602081101561196457600080fd5b810190808051906020019092919050505073ffffffffffffffffffffffffffffffffffffffff16145b8015611a6657503073ffffffffffffffffffffffffffffffffffffffff16600a60009054906101000a900473ffffffffffffffffffffffffffffffffffffffff1673ffffffffffffffffffffffffffffffffffffffff1663570ca7356040518163ffffffff1660e01b815260040160206040518083038186803b158015611a1357600080fd5b505afa158015611a27573d6000803e3d6000fd5b505050506040513d6020811015611a3d57600080fd5b810190808051906020019092919050505073ffffffffffffffffffffffffffffffffffffffff16145b611ad8576040517f08c379a000000000000000000000000000000000000000000000000000000000815260040180806020018281038252601e8152602001807f54726561737572793a206e656564206d6f7265207065726d697373696f6e000081525060200191505060405180910390fd5b60008211611b31576040517f08c379a000000000000000000000000000000000000000000000000000000000815260040180806020018281038252603081526020018061566e6030913960400191505060405180910390fd5b6000611b5e600b60009054906101000a900473ffffffffffffffffffffffffffffffffffffffff16614980565b9050818114611bd5576040517f08c379a000000000000000000000000000000000000000000000000000000000815260040180806020018281038252601a8152602001807f54726561737572793a2063617368207072696365206d6f76656400000000000081525060200191505060405180910390fd5b600d548110611c2f576040517f08c379a000000000000000000000000000000000000000000000000000000000815260040180806020018281038252603281526020018061555d6032913960400191505060405180910390fd5b6000819050600760009054906101000a900473ffffffffffffffffffffffffffffffffffffffff1673ffffffffffffffffffffffffffffffffffffffff166379cc679033866040518363ffffffff1660e01b8152600401808373ffffffffffffffffffffffffffffffffffffffff16815260200182815260200192505050600060405180830381600087803b158015611cc757600080fd5b505af1158015611cdb573d6000803e3d6000fd5b50505050600860009054906101000a900473ffffffffffffffffffffffffffffffffffffffff1673ffffffffffffffffffffffffffffffffffffffff166340c10f1933611d4b84611d3d670de0b6b3a76400008a6147e890919063ffffffff16565b61486e90919063ffffffff16565b6040518363ffffffff1660e01b8152600401808373ffffffffffffffffffffffffffffffffffffffff16815260200182815260200192505050602060405180830381600087803b158015611d9e57600080fd5b505af1158015611db2573d6000803e3d6000fd5b505050506040513d6020811015611dc857600080fd5b810190808051906020019092919050505050611de2614bb2565b3373ffffffffffffffffffffffffffffffffffffffff167fdbf5270c3cf4729fec4fdac76fda864aa4f3d14d657ad21772ac28f627141ed9856040518082815260200191505060405180910390a25050600160008043815260200190815260200160002060003273ffffffffffffffffffffffffffffffffffffffff1673ffffffffffffffffffffffffffffffffffffffff16815260200190815260200160002060006101000a81548160ff021916908315150217905550600160008043815260200190815260200160002060003373ffffffffffffffffffffffffffffffffffffffff1673ffffffffffffffffffffffffffffffffffffffff16815260200190815260200160002060006101000a81548160ff0219169083151502179055505050565b6000600260009054906101000a900473ffffffffffffffffffffffffffffffffffffffff16905090565b6000601054905090565b611f426148b8565b15611f98576040517f08c379a00000000000000000000000000000000000000000000000000000000081526004018080602001828103825260268152602001806156c26026913960400191505060405180910390fd5b611fa061491c565b15611ff6576040517f08c379a00000000000000000000000000000000000000000000000000000000081526004018080602001828103825260268152602001806156c26026913960400191505060405180910390fd5b600660009054906101000a900460ff1615612079576040517f08c379a00000000000000000000000000000000000000000000000000000000081526004018080602001828103825260128152602001807f54726561737572793a206d69677261746564000000000000000000000000000081525060200191505060405180910390fd5b6004544210156120f1576040517f08c379a00000000000000000000000000000000000000000000000000000000081526004018080602001828103825260168152602001807f45706f63683a206e6f742073746172746564207965740000000000000000000081525060200191505060405180910390fd5b6120f96137b6565b42101561216e576040517f08c379a00000000000000000000000000000000000000000000000000000000081526004018080602001828103825260128152602001807f45706f63683a206e6f7420616c6c6f776564000000000000000000000000000081525060200191505060405180910390fd5b3073ffffffffffffffffffffffffffffffffffffffff16600760009054906101000a900473ffffffffffffffffffffffffffffffffffffffff1673ffffffffffffffffffffffffffffffffffffffff1663570ca7356040518163ffffffff1660e01b815260040160206040518083038186803b1580156121ed57600080fd5b505afa158015612201573d6000803e3d6000fd5b505050506040513d602081101561221757600080fd5b810190808051906020019092919050505073ffffffffffffffffffffffffffffffffffffffff1614801561231857503073ffffffffffffffffffffffffffffffffffffffff16600860009054906101000a900473ffffffffffffffffffffffffffffffffffffffff1673ffffffffffffffffffffffffffffffffffffffff1663570ca7356040518163ffffffff1660e01b815260040160206040518083038186803b1580156122c557600080fd5b505afa1580156122d9573d6000803e3d6000fd5b505050506040513d60208110156122ef57600080fd5b810190808051906020019092919050505073ffffffffffffffffffffffffffffffffffffffff16145b80156123f157503073ffffffffffffffffffffffffffffffffffffffff16600960009054906101000a900473ffffffffffffffffffffffffffffffffffffffff1673ffffffffffffffffffffffffffffffffffffffff1663570ca7356040518163ffffffff1660e01b815260040160206040518083038186803b15801561239e57600080fd5b505afa1580156123b2573d6000803e3d6000fd5b505050506040513d60208110156123c857600080fd5b810190808051906020019092919050505073ffffffffffffffffffffffffffffffffffffffff16145b80156124ca57503073ffffffffffffffffffffffffffffffffffffffff16600a60009054906101000a900473ffffffffffffffffffffffffffffffffffffffff1673ffffffffffffffffffffffffffffffffffffffff1663570ca7356040518163ffffffff1660e01b815260040160206040518083038186803b15801561247757600080fd5b505afa15801561248b573d6000803e3d6000fd5b505050506040513d60208110156124a157600080fd5b810190808051906020019092919050505073ffffffffffffffffffffffffffffffffffffffff16145b61253c576040517f08c379a000000000000000000000000000000000000000000000000000000000815260040180806020018281038252601e8152602001807f54726561737572793a206e656564206d6f7265207065726d697373696f6e000081525060200191505060405180910390fd5b612544614bb2565b6000612571600c60009054906101000a900473ffffffffffffffffffffffffffffffffffffffff16614980565b9050600e5481116125825750612be1565b600061263b601054600760009054906101000a900473ffffffffffffffffffffffffffffffffffffffff1673ffffffffffffffffffffffffffffffffffffffff166318160ddd6040518163ffffffff1660e01b815260040160206040518083038186803b1580156125f257600080fd5b505afa158015612606573d6000803e3d6000fd5b505050506040513d602081101561261c57600080fd5b8101908080519060200190929190505050614ac690919063ffffffff16565b90506000612654600d5484614ac690919063ffffffff16565b90506000612685670de0b6b3a764000061267784866147e890919063ffffffff16565b61486e90919063ffffffff16565b9050600760009054906101000a900473ffffffffffffffffffffffffffffffffffffffff1673ffffffffffffffffffffffffffffffffffffffff166340c10f1930836040518363ffffffff1660e01b8152600401808373ffffffffffffffffffffffffffffffffffffffff16815260200182815260200192505050602060405180830381600087803b15801561271a57600080fd5b505af115801561272e573d6000803e3d6000fd5b505050506040513d602081101561274457600080fd5b81019080805190602001909291905050505060006127806064612772601154856147e890919063ffffffff16565b61486e90919063ffffffff16565b90506000811115612940576127fa600660029054906101000a900473ffffffffffffffffffffffffffffffffffffffff1682600760009054906101000a900473ffffffffffffffffffffffffffffffffffffffff1673ffffffffffffffffffffffffffffffffffffffff16614deb9092919063ffffffff16565b600660029054906101000a900473ffffffffffffffffffffffffffffffffffffffff1673ffffffffffffffffffffffffffffffffffffffff1663bfe07da6600760009054906101000a900473ffffffffffffffffffffffffffffffffffffffff16836040518363ffffffff1660e01b8152600401808373ffffffffffffffffffffffffffffffffffffffff16815260200182815260200180602001828103825260208152602001807f54726561737572793a20536569676e696f7261676520416c6c6f636174696f6e8152506020019350505050600060405180830381600087803b1580156128e857600080fd5b505af11580156128fc573d6000803e3d6000fd5b505050507f4caa64211297e9263667fef70732dc65ca7a8e8c60dc72539ed94518628212d04282604051808381526020018281526020019250505060405180910390a15b6129538183614ac690919063ffffffff16565b91506000612a1783612a12601054600860009054906101000a900473ffffffffffffffffffffffffffffffffffffffff1673ffffffffffffffffffffffffffffffffffffffff166318160ddd6040518163ffffffff1660e01b815260040160206040518083038186803b1580156129c957600080fd5b505afa1580156129dd573d6000803e3d6000fd5b505050506040513d60208110156129f357600080fd5b8101908080519060200190929190505050614ac690919063ffffffff16565b614aad565b90506000811115612a7d57612a3781601054614fb090919063ffffffff16565b6010819055507ff705142bf09f04297640495ddf7c59b7fd6f51894c5aea9602d631cf05f0efc24282604051808381526020018281526020019250505060405180910390a15b6000612a928285614ac690919063ffffffff16565b90506000811115612bd957612b0c600a60009054906101000a900473ffffffffffffffffffffffffffffffffffffffff1682600760009054906101000a900473ffffffffffffffffffffffffffffffffffffffff1673ffffffffffffffffffffffffffffffffffffffff16614deb9092919063ffffffff16565b600a60009054906101000a900473ffffffffffffffffffffffffffffffffffffffff1673ffffffffffffffffffffffffffffffffffffffff166397ffe1d7826040518263ffffffff1660e01b815260040180828152602001915050600060405180830381600087803b158015612b8157600080fd5b505af1158015612b95573d6000803e3d6000fd5b505050507f03ca7276ab7799bf73fb79d27ff0610cd7049574f2508ef8445162833d439aea4282604051808381526020018281526020019250505060405180910390a15b505050505050505b612bf76001600554614fb090919063ffffffff16565b600581905550600160008043815260200190815260200160002060003273ffffffffffffffffffffffffffffffffffffffff1673ffffffffffffffffffffffffffffffffffffffff16815260200190815260200160002060006101000a81548160ff021916908315150217905550600160008043815260200190815260200160002060003373ffffffffffffffffffffffffffffffffffffffff1673ffffffffffffffffffffffffffffffffffffffff16815260200190815260200160002060006101000a81548160ff021916908315150217905550565b600a60009054906101000a900473ffffffffffffffffffffffffffffffffffffffff1681565b600860009054906101000a900473ffffffffffffffffffffffffffffffffffffffff1681565b600b60009054906101000a900473ffffffffffffffffffffffffffffffffffffffff1681565b612d49614cbe565b73ffffffffffffffffffffffffffffffffffffffff16600160009054906101000a900473ffffffffffffffffffffffffffffffffffffffff1673ffffffffffffffffffffffffffffffffffffffff1614612e0b576040517f08c379a00000000000000000000000000000000000000000000000000000000081526004018080602001828103825260208152602001807f4f776e61626c653a2063616c6c6572206973206e6f7420746865206f776e657281525060200191505060405180910390fd5b600073ffffffffffffffffffffffffffffffffffffffff16600160009054906101000a900473ffffffffffffffffffffffffffffffffffffffff1673ffffffffffffffffffffffffffffffffffffffff167f8be0079c531659141344cd1fd0a4f28419497f9722a3daafe3b4186f6b6457e060405160405180910390a36000600160006101000a81548173ffffffffffffffffffffffffffffffffffffffff021916908373ffffffffffffffffffffffffffffffffffffffff160217905550565b3073ffffffffffffffffffffffffffffffffffffffff16600760009054906101000a900473ffffffffffffffffffffffffffffffffffffffff1673ffffffffffffffffffffffffffffffffffffffff1663570ca7356040518163ffffffff1660e01b815260040160206040518083038186803b158015612f4b57600080fd5b505afa158015612f5f573d6000803e3d6000fd5b505050506040513d6020811015612f7557600080fd5b810190808051906020019092919050505073ffffffffffffffffffffffffffffffffffffffff1614801561307657503073ffffffffffffffffffffffffffffffffffffffff16600860009054906101000a900473ffffffffffffffffffffffffffffffffffffffff1673ffffffffffffffffffffffffffffffffffffffff1663570ca7356040518163ffffffff1660e01b815260040160206040518083038186803b15801561302357600080fd5b505afa158015613037573d6000803e3d6000fd5b505050506040513d602081101561304d57600080fd5b810190808051906020019092919050505073ffffffffffffffffffffffffffffffffffffffff16145b801561314f57503073ffffffffffffffffffffffffffffffffffffffff16600960009054906101000a900473ffffffffffffffffffffffffffffffffffffffff1673ffffffffffffffffffffffffffffffffffffffff1663570ca7356040518163ffffffff1660e01b815260040160206040518083038186803b1580156130fc57600080fd5b505afa158015613110573d6000803e3d6000fd5b505050506040513d602081101561312657600080fd5b810190808051906020019092919050505073ffffffffffffffffffffffffffffffffffffffff16145b801561322857503073ffffffffffffffffffffffffffffffffffffffff16600a60009054906101000a900473ffffffffffffffffffffffffffffffffffffffff1673ffffffffffffffffffffffffffffffffffffffff1663570ca7356040518163ffffffff1660e01b815260040160206040518083038186803b1580156131d557600080fd5b505afa1580156131e9573d6000803e3d6000fd5b505050506040513d60208110156131ff57600080fd5b810190808051906020019092919050505073ffffffffffffffffffffffffffffffffffffffff16145b61329a576040517f08c379a000000000000000000000000000000000000000000000000000000000815260040180806020018281038252601e8152602001807f54726561737572793a206e656564206d6f7265207065726d697373696f6e000081525060200191505060405180910390fd5b600660019054906101000a900460ff161561331d576040517f08c379a00000000000000000000000000000000000000000000000000000000081526004018080602001828103825260158152602001807f54726561737572793a20696e697469616c697a6564000000000000000000000081525060200191505060405180910390fd5b600760009054906101000a900473ffffffffffffffffffffffffffffffffffffffff1673ffffffffffffffffffffffffffffffffffffffff166342966c68600760009054906101000a900473ffffffffffffffffffffffffffffffffffffffff1673ffffffffffffffffffffffffffffffffffffffff166370a08231306040518263ffffffff1660e01b8152600401808273ffffffffffffffffffffffffffffffffffffffff16815260200191505060206040518083038186803b1580156133e457600080fd5b505afa1580156133f8573d6000803e3d6000fd5b505050506040513d602081101561340e57600080fd5b81019080805190602001909291905050506040518263ffffffff1660e01b815260040180828152602001915050600060405180830381600087803b15801561345557600080fd5b505af1158015613469573d6000803e3d6000fd5b50505050600760009054906101000a900473ffffffffffffffffffffffffffffffffffffffff1673ffffffffffffffffffffffffffffffffffffffff166370a08231306040518263ffffffff1660e01b8152600401808273ffffffffffffffffffffffffffffffffffffffff16815260200191505060206040518083038186803b1580156134f657600080fd5b505afa15801561350a573d6000803e3d6000fd5b505050506040513d602081101561352057600080fd5b81019080805190602001909291905050506010819055506001600660016101000a81548160ff0219169083151502179055503373ffffffffffffffffffffffffffffffffffffffff167f25ff68dd81b34665b5ba7e553ee5511bf6812e12adb4a7e2c0d9e26b3099ce79436040518082815260200191505060405180910390a2565b6000600160009054906101000a900473ffffffffffffffffffffffffffffffffffffffff16905090565b3373ffffffffffffffffffffffffffffffffffffffff16600260009054906101000a900473ffffffffffffffffffffffffffffffffffffffff1673ffffffffffffffffffffffffffffffffffffffff1614613672576040517f08c379a000000000000000000000000000000000000000000000000000000000815260040180806020018281038252602481526020018061569e6024913960400191505060405180910390fd5b806011819055503373ffffffffffffffffffffffffffffffffffffffff167f25ba333c9a98f8f18bb40ff507a4a1fb423614f442759c754d038a9de3f81cf3826040518082815260200191505060405180910390a250565b600760009054906101000a900473ffffffffffffffffffffffffffffffffffffffff1681565b600960009054906101000a900473ffffffffffffffffffffffffffffffffffffffff1681565b600d5481565b600660029054906101000a900473ffffffffffffffffffffffffffffffffffffffff1681565b600061376f600c60009054906101000a900473ffffffffffffffffffffffffffffffffffffffff16614980565b905090565b6000600554905090565b60006137ab600b60009054906101000a900473ffffffffffffffffffffffffffffffffffffffff16614980565b905090565b60115481565b60006137e36137d26003546005546147e890919063ffffffff16565b600454614fb090919063ffffffff16565b905090565b6000600454905090565b3373ffffffffffffffffffffffffffffffffffffffff16600260009054906101000a900473ffffffffffffffffffffffffffffffffffffffff1673ffffffffffffffffffffffffffffffffffffffff1614613898576040517f08c379a000000000000000000000000000000000000000000000000000000000815260040180806020018281038252602481526020018061569e6024913960400191505060405180910390fd5b3073ffffffffffffffffffffffffffffffffffffffff16600760009054906101000a900473ffffffffffffffffffffffffffffffffffffffff1673ffffffffffffffffffffffffffffffffffffffff1663570ca7356040518163ffffffff1660e01b815260040160206040518083038186803b15801561391757600080fd5b505afa15801561392b573d6000803e3d6000fd5b505050506040513d602081101561394157600080fd5b810190808051906020019092919050505073ffffffffffffffffffffffffffffffffffffffff16148015613a4257503073ffffffffffffffffffffffffffffffffffffffff16600860009054906101000a900473ffffffffffffffffffffffffffffffffffffffff1673ffffffffffffffffffffffffffffffffffffffff1663570ca7356040518163ffffffff1660e01b815260040160206040518083038186803b1580156139ef57600080fd5b505afa158015613a03573d6000803e3d6000fd5b505050506040513d6020811015613a1957600080fd5b810190808051906020019092919050505073ffffffffffffffffffffffffffffffffffffffff16145b8015613b1b57503073ffffffffffffffffffffffffffffffffffffffff16600960009054906101000a900473ffffffffffffffffffffffffffffffffffffffff1673ffffffffffffffffffffffffffffffffffffffff1663570ca7356040518163ffffffff1660e01b815260040160206040518083038186803b158015613ac857600080fd5b505afa158015613adc573d6000803e3d6000fd5b505050506040513d6020811015613af257600080fd5b810190808051906020019092919050505073ffffffffffffffffffffffffffffffffffffffff16145b8015613bf457503073ffffffffffffffffffffffffffffffffffffffff16600a60009054906101000a900473ffffffffffffffffffffffffffffffffffffffff1673ffffffffffffffffffffffffffffffffffffffff1663570ca7356040518163ffffffff1660e01b815260040160206040518083038186803b158015613ba157600080fd5b505afa158015613bb5573d6000803e3d6000fd5b505050506040513d6020811015613bcb57600080fd5b810190808051906020019092919050505073ffffffffffffffffffffffffffffffffffffffff16145b613c66576040517f08c379a000000000000000000000000000000000000000000000000000000000815260040180806020018281038252601e8152602001807f54726561737572793a206e656564206d6f7265207065726d697373696f6e000081525060200191505060405180910390fd5b600660009054906101000a900460ff1615613ce9576040517f08c379a00000000000000000000000000000000000000000000000000000000081526004018080602001828103825260128152602001807f54726561737572793a206d69677261746564000000000000000000000000000081525060200191505060405180910390fd5b600760009054906101000a900473ffffffffffffffffffffffffffffffffffffffff1673ffffffffffffffffffffffffffffffffffffffff166329605e77826040518263ffffffff1660e01b8152600401808273ffffffffffffffffffffffffffffffffffffffff168152602001915050600060405180830381600087803b158015613d7457600080fd5b505af1158015613d88573d6000803e3d6000fd5b50505050600760009054906101000a900473ffffffffffffffffffffffffffffffffffffffff1673ffffffffffffffffffffffffffffffffffffffff1663f2fde38b826040518263ffffffff1660e01b8152600401808273ffffffffffffffffffffffffffffffffffffffff168152602001915050600060405180830381600087803b158015613e1757600080fd5b505af1158015613e2b573d6000803e3d6000fd5b50505050600760009054906101000a900473ffffffffffffffffffffffffffffffffffffffff1673ffffffffffffffffffffffffffffffffffffffff1663a9059cbb82600760009054906101000a900473ffffffffffffffffffffffffffffffffffffffff1673ffffffffffffffffffffffffffffffffffffffff166370a08231306040518263ffffffff1660e01b8152600401808273ffffffffffffffffffffffffffffffffffffffff16815260200191505060206040518083038186803b158015613ef757600080fd5b505afa158015613f0b573d6000803e3d6000fd5b505050506040513d6020811015613f2157600080fd5b81019080805190602001909291905050506040518363ffffffff1660e01b8152600401808373ffffffffffffffffffffffffffffffffffffffff16815260200182815260200192505050602060405180830381600087803b158015613f8557600080fd5b505af1158015613f99573d6000803e3d6000fd5b505050506040513d6020811015613faf57600080fd5b810190808051906020019092919050505050600860009054906101000a900473ffffffffffffffffffffffffffffffffffffffff1673ffffffffffffffffffffffffffffffffffffffff166329605e77826040518263ffffffff1660e01b8152600401808273ffffffffffffffffffffffffffffffffffffffff168152602001915050600060405180830381600087803b15801561404c57600080fd5b505af1158015614060573d6000803e3d6000fd5b50505050600860009054906101000a900473ffffffffffffffffffffffffffffffffffffffff1673ffffffffffffffffffffffffffffffffffffffff1663f2fde38b826040518263ffffffff1660e01b8152600401808273ffffffffffffffffffffffffffffffffffffffff168152602001915050600060405180830381600087803b1580156140ef57600080fd5b505af1158015614103573d6000803e3d6000fd5b50505050600860009054906101000a900473ffffffffffffffffffffffffffffffffffffffff1673ffffffffffffffffffffffffffffffffffffffff1663a9059cbb82600860009054906101000a900473ffffffffffffffffffffffffffffffffffffffff1673ffffffffffffffffffffffffffffffffffffffff166370a08231306040518263ffffffff1660e01b8152600401808273ffffffffffffffffffffffffffffffffffffffff16815260200191505060206040518083038186803b1580156141cf57600080fd5b505afa1580156141e3573d6000803e3d6000fd5b505050506040513d60208110156141f957600080fd5b81019080805190602001909291905050506040518363ffffffff1660e01b8152600401808373ffffffffffffffffffffffffffffffffffffffff16815260200182815260200192505050602060405180830381600087803b15801561425d57600080fd5b505af1158015614271573d6000803e3d6000fd5b505050506040513d602081101561428757600080fd5b810190808051906020019092919050505050600960009054906101000a900473ffffffffffffffffffffffffffffffffffffffff1673ffffffffffffffffffffffffffffffffffffffff166329605e77826040518263ffffffff1660e01b8152600401808273ffffffffffffffffffffffffffffffffffffffff168152602001915050600060405180830381600087803b15801561432457600080fd5b505af1158015614338573d6000803e3d6000fd5b50505050600960009054906101000a900473ffffffffffffffffffffffffffffffffffffffff1673ffffffffffffffffffffffffffffffffffffffff1663f2fde38b826040518263ffffffff1660e01b8152600401808273ffffffffffffffffffffffffffffffffffffffff168152602001915050600060405180830381600087803b1580156143c757600080fd5b505af11580156143db573d6000803e3d6000fd5b50505050600960009054906101000a900473ffffffffffffffffffffffffffffffffffffffff1673ffffffffffffffffffffffffffffffffffffffff1663a9059cbb82600960009054906101000a900473ffffffffffffffffffffffffffffffffffffffff1673ffffffffffffffffffffffffffffffffffffffff166370a08231306040518263ffffffff1660e01b8152600401808273ffffffffffffffffffffffffffffffffffffffff16815260200191505060206040518083038186803b1580156144a757600080fd5b505afa1580156144bb573d6000803e3d6000fd5b505050506040513d60208110156144d157600080fd5b81019080805190602001909291905050506040518363ffffffff1660e01b8152600401808373ffffffffffffffffffffffffffffffffffffffff16815260200182815260200192505050602060405180830381600087803b15801561453557600080fd5b505af1158015614549573d6000803e3d6000fd5b505050506040513d602081101561455f57600080fd5b8101908080519060200190929190505050506001600660006101000a81548160ff0219169083151502179055508073ffffffffffffffffffffffffffffffffffffffff167f0caca70b66aed56b0630989a049110023c5a3f37e0ea4b6ce96fc747663f3ebc60405160405180910390a250565b600f5481565b6145e0614cbe565b73ffffffffffffffffffffffffffffffffffffffff16600160009054906101000a900473ffffffffffffffffffffffffffffffffffffffff1673ffffffffffffffffffffffffffffffffffffffff16146146a2576040517f08c379a00000000000000000000000000000000000000000000000000000000081526004018080602001828103825260208152602001807f4f776e61626c653a2063616c6c6572206973206e6f7420746865206f776e657281525060200191505060405180910390fd5b600073ffffffffffffffffffffffffffffffffffffffff168173ffffffffffffffffffffffffffffffffffffffff161415614728576040517f08c379a00000000000000000000000000000000000000000000000000000000081526004018080602001828103825260268152602001806155096026913960400191505060405180910390fd5b8073ffffffffffffffffffffffffffffffffffffffff16600160009054906101000a900473ffffffffffffffffffffffffffffffffffffffff1673ffffffffffffffffffffffffffffffffffffffff167f8be0079c531659141344cd1fd0a4f28419497f9722a3daafe3b4186f6b6457e060405160405180910390a380600160006101000a81548173ffffffffffffffffffffffffffffffffffffffff021916908373ffffffffffffffffffffffffffffffffffffffff16021790555050565b6000808314156147fb5760009050614868565b600082840290508284828161480c57fe5b0414614863576040517f08c379a00000000000000000000000000000000000000000000000000000000081526004018080602001828103825260218152602001806155e16021913960400191505060405180910390fd5b809150505b92915050565b60006148b083836040518060400160405280601a81526020017f536166654d6174683a206469766973696f6e206279207a65726f000000000000815250615038565b905092915050565b600080600043815260200190815260200160002060003273ffffffffffffffffffffffffffffffffffffffff1673ffffffffffffffffffffffffffffffffffffffff16815260200190815260200160002060009054906101000a900460ff16905090565b600080600043815260200190815260200160002060003373ffffffffffffffffffffffffffffffffffffffff1673ffffffffffffffffffffffffffffffffffffffff16815260200190815260200160002060009054906101000a900460ff16905090565b60008173ffffffffffffffffffffffffffffffffffffffff16633ddac953600760009054906101000a900473ffffffffffffffffffffffffffffffffffffffff16670de0b6b3a76400006040518363ffffffff1660e01b8152600401808373ffffffffffffffffffffffffffffffffffffffff1681526020018281526020019250505060206040518083038186803b158015614a1b57600080fd5b505afa925050508015614a4f57506040513d6020811015614a3b57600080fd5b810190808051906020019092919050505060015b614aa4576040517f08c379a00000000000000000000000000000000000000000000000000000000081526004018080602001828103825260368152602001806156386036913960400191505060405180910390fd5b80915050919050565b6000818310614abc5781614abe565b825b905092915050565b6000614b0883836040518060400160405280601e81526020017f536166654d6174683a207375627472616374696f6e206f766572666c6f7700008152506150fe565b905092915050565b614bad8363a9059cbb60e01b8484604051602401808373ffffffffffffffffffffffffffffffffffffffff16815260200182815260200192505050604051602081830303815290604052907bffffffffffffffffffffffffffffffffffffffffffffffffffffffff19166020820180517bffffffffffffffffffffffffffffffffffffffffffffffffffffffff83818316178352505050506151be565b505050565b600b60009054906101000a900473ffffffffffffffffffffffffffffffffffffffff1673ffffffffffffffffffffffffffffffffffffffff1663a2e620456040518163ffffffff1660e01b8152600401600060405180830381600087803b158015614c1c57600080fd5b505af1925050508015614c2d575060015b614c3657614c37565b5b600c60009054906101000a900473ffffffffffffffffffffffffffffffffffffffff1673ffffffffffffffffffffffffffffffffffffffff1663a2e620456040518163ffffffff1660e01b8152600401600060405180830381600087803b158015614ca157600080fd5b505af1925050508015614cb2575060015b614cbb57614cbc565b5b565b600033905090565b600073ffffffffffffffffffffffffffffffffffffffff168173ffffffffffffffffffffffffffffffffffffffff161415614d4c576040517f08c379a000000000000000000000000000000000000000000000000000000000815260040180806020018281038252602d81526020018061558f602d913960400191505060405180910390fd5b8073ffffffffffffffffffffffffffffffffffffffff16600073ffffffffffffffffffffffffffffffffffffffff167f74da04524d50c64947f5dd5381ef1a4dca5cba8ed1d816243f9e48aa0b5617ed60405160405180910390a380600260006101000a81548173ffffffffffffffffffffffffffffffffffffffff021916908373ffffffffffffffffffffffffffffffffffffffff16021790555050565b6000811480614eb9575060008373ffffffffffffffffffffffffffffffffffffffff1663dd62ed3e30856040518363ffffffff1660e01b8152600401808373ffffffffffffffffffffffffffffffffffffffff1681526020018273ffffffffffffffffffffffffffffffffffffffff1681526020019250505060206040518083038186803b158015614e7c57600080fd5b505afa158015614e90573d6000803e3d6000fd5b505050506040513d6020811015614ea657600080fd5b8101908080519060200190929190505050145b614f0e576040517f08c379a00000000000000000000000000000000000000000000000000000000081526004018080602001828103825260368152602001806156026036913960400191505060405180910390fd5b614fab8363095ea7b360e01b8484604051602401808373ffffffffffffffffffffffffffffffffffffffff16815260200182815260200192505050604051602081830303815290604052907bffffffffffffffffffffffffffffffffffffffffffffffffffffffff19166020820180517bffffffffffffffffffffffffffffffffffffffffffffffffffffffff83818316178352505050506151be565b505050565b60008082840190508381101561502e576040517f08c379a000000000000000000000000000000000000000000000000000000000815260040180806020018281038252601b8152602001807f536166654d6174683a206164646974696f6e206f766572666c6f77000000000081525060200191505060405180910390fd5b8091505092915050565b600080831182906150e4576040517f08c379a00000000000000000000000000000000000000000000000000000000081526004018080602001828103825283818151815260200191508051906020019080838360005b838110156150a957808201518184015260208101905061508e565b50505050905090810190601f1680156150d65780820380516001836020036101000a031916815260200191505b509250505060405180910390fd5b5060008385816150f057fe5b049050809150509392505050565b60008383111582906151ab576040517f08c379a00000000000000000000000000000000000000000000000000000000081526004018080602001828103825283818151815260200191508051906020019080838360005b83811015615170578082015181840152602081019050615155565b50505050905090810190601f16801561519d5780820380516001836020036101000a031916815260200191505b509250505060405180910390fd5b5060008385039050809150509392505050565b6060615220826040518060400160405280602081526020017f5361666542455032303a206c6f772d6c6576656c2063616c6c206661696c65648152508573ffffffffffffffffffffffffffffffffffffffff166152ad9092919063ffffffff16565b90506000815111156152a85780806020019051602081101561524157600080fd5b81019080805190602001909291905050506152a7576040517f08c379a000000000000000000000000000000000000000000000000000000000815260040180806020018281038252602a8152602001806154df602a913960400191505060405180910390fd5b5b505050565b60606152bc84846000856152c5565b90509392505050565b60606152d0856154cb565b615342576040517f08c379a000000000000000000000000000000000000000000000000000000000815260040180806020018281038252601d8152602001807f416464726573733a2063616c6c20746f206e6f6e2d636f6e747261637400000081525060200191505060405180910390fd5b600060608673ffffffffffffffffffffffffffffffffffffffff1685876040518082805190602001908083835b60208310615392578051825260208201915060208101905060208303925061536f565b6001836020036101000a03801982511681845116808217855250505050505090500191505060006040518083038185875af1925050503d80600081146153f4576040519150601f19603f3d011682016040523d82523d6000602084013e6153f9565b606091505b5091509150811561540e5780925050506154c3565b6000815111156154215780518082602001fd5b836040517f08c379a00000000000000000000000000000000000000000000000000000000081526004018080602001828103825283818151815260200191508051906020019080838360005b8381101561548857808201518184015260208101905061546d565b50505050905090810190601f1680156154b55780820380516001836020036101000a031916815260200191505b509250505060405180910390fd5b949350505050565b600080823b90506000811191505091905056fe5361666542455032303a204245503230206f7065726174696f6e20646964206e6f7420737563636565644f776e61626c653a206e6577206f776e657220697320746865207a65726f206164647265737354726561737572793a2063616e6e6f742072656465656d20626f6e64732077697468207a65726f20616d6f756e7454726561737572793a20636173685072696365206e6f7420656c696769626c6520666f7220626f6e642070757263686173656f70657261746f723a207a65726f206164647265737320676976656e20666f72206e6577206f70657261746f7254726561737572793a20747265617375727920686173206e6f206d6f726520627564676574536166654d6174683a206d756c7469706c69636174696f6e206f766572666c6f775361666542455032303a20617070726f76652066726f6d206e6f6e2d7a65726f20746f206e6f6e2d7a65726f20616c6c6f77616e636554726561737572793a206661696c656420746f20636f6e73756c7420636173682070726963652066726f6d20746865206f7261636c6554726561737572793a2063616e6e6f7420707572636861736520626f6e64732077697468207a65726f20616d6f756e746f70657261746f723a2063616c6c6572206973206e6f7420746865206f70657261746f72436f6e747261637447756172643a206f6e6520626c6f636b2c206f6e652066756e6374696f6ea2646970667358221220d46fa7d934776fb686f40fdd59c7ecd47dc8c2f750a3d6e99c137d09a541f35164736f6c634300060c0033536166654d6174683a206d756c7469706c69636174696f6e206f766572666c6f77",
  "immutableReferences": {},
  "source": "pragma solidity ^0.6.0;\n\nimport '@openzeppelin/contracts/math/Math.sol';\nimport './lib/IBEP20.sol';\nimport './lib/SafeBEP20.sol';\nimport '@openzeppelin/contracts/utils/ReentrancyGuard.sol';\n\nimport './interfaces/IOracle.sol';\nimport './interfaces/IBoardroom.sol';\nimport './interfaces/IFatAsset.sol';\nimport './interfaces/ISimpleERCFund.sol';\nimport './lib/Babylonian.sol';\nimport './lib/FixedPoint.sol';\nimport './lib/Safe112.sol';\nimport './owner/Operator.sol';\nimport './utils/Epoch.sol';\nimport './utils/ContractGuard.sol';\n\n/**\n * @title Basis Cash Treasury contract\n * @notice Monetary policy logic to adjust supplies of basis cash assets\n * @author Summer Smith & Rick Sanchez\n */\ncontract Treasury is ContractGuard, Epoch {\n    using FixedPoint for *;\n    using SafeBEP20 for IBEP20;\n    using Address for address;\n    using SafeMath for uint256;\n    using Safe112 for uint112;\n\n    /* ========== STATE VARIABLES ========== */\n\n    // ========== FLAGS\n    bool public migrated = false;\n    bool public initialized = false;\n\n    // ========== CORE\n    address public fund;\n    address public cash;\n    address public bond;\n    address public share;\n    address public boardroom;\n\n    address public bondOracle;\n    address public seigniorageOracle;\n\n    // ========== PARAMS\n    uint256 public cashPriceOne;\n    uint256 public cashPriceCeiling;\n    uint256 public bondDepletionFloor;\n    uint256 private accumulatedSeigniorage = 0;\n    uint256 public fundAllocationRate = 2; // %\n\n    /* ========== CONSTRUCTOR ========== */\n\n    constructor(\n        address _cash,\n        address _bond,\n        address _share,\n        address _bondOracle,\n        address _seigniorageOracle,\n        address _boardroom,\n        address _fund,\n        uint256 _startTime\n    ) public Epoch(1 days, _startTime, 0) {\n        cash = _cash;\n        bond = _bond;\n        share = _share;\n        bondOracle = _bondOracle;\n        seigniorageOracle = _seigniorageOracle;\n\n        boardroom = _boardroom;\n        fund = _fund;\n\n        cashPriceOne = 10**18;\n        cashPriceCeiling = uint256(105).mul(cashPriceOne).div(10**2);\n\n        bondDepletionFloor = uint256(1000).mul(cashPriceOne);\n    }\n\n    /* =================== Modifier =================== */\n\n    modifier checkMigration {\n        require(!migrated, 'Treasury: migrated');\n\n        _;\n    }\n\n    modifier checkOperator {\n        require(\n            IFatAsset(cash).operator() == address(this) &&\n                IFatAsset(bond).operator() == address(this) &&\n                IFatAsset(share).operator() == address(this) &&\n                Operator(boardroom).operator() == address(this),\n            'Treasury: need more permission'\n        );\n\n        _;\n    }\n\n    /* ========== VIEW FUNCTIONS ========== */\n\n    // budget\n    function getReserve() public view returns (uint256) {\n        return accumulatedSeigniorage;\n    }\n\n    // oracle\n    function getBondOraclePrice() public view returns (uint256) {\n        return _getCashPrice(bondOracle);\n    }\n\n    function getSeigniorageOraclePrice() public view returns (uint256) {\n        return _getCashPrice(seigniorageOracle);\n    }\n\n    function _getCashPrice(address oracle) internal view returns (uint256) {\n        try IOracle(oracle).consult(cash, 1e18) returns (uint256 price) {\n            return price;\n        } catch {\n            revert('Treasury: failed to consult cash price from the oracle');\n        }\n    }\n\n    /* ========== GOVERNANCE ========== */\n\n    function initialize() public checkOperator {\n        require(!initialized, 'Treasury: initialized');\n\n        // burn all of it's balance\n        IFatAsset(cash).burn(IBEP20(cash).balanceOf(address(this)));\n\n        // set accumulatedSeigniorage to it's balance\n        accumulatedSeigniorage = IBEP20(cash).balanceOf(address(this));\n\n        initialized = true;\n        emit Initialized(msg.sender, block.number);\n    }\n\n    function migrate(address target) public onlyOperator checkOperator {\n        require(!migrated, 'Treasury: migrated');\n\n        // cash\n        Operator(cash).transferOperator(target);\n        Operator(cash).transferOwnership(target);\n        IBEP20(cash).transfer(target, IBEP20(cash).balanceOf(address(this)));\n\n        // bond\n        Operator(bond).transferOperator(target);\n        Operator(bond).transferOwnership(target);\n        IBEP20(bond).transfer(target, IBEP20(bond).balanceOf(address(this)));\n\n        // share\n        Operator(share).transferOperator(target);\n        Operator(share).transferOwnership(target);\n        IBEP20(share).transfer(target, IBEP20(share).balanceOf(address(this)));\n\n        migrated = true;\n        emit Migration(target);\n    }\n\n    function setFund(address newFund) public onlyOperator {\n        fund = newFund;\n        emit ContributionPoolChanged(msg.sender, newFund);\n    }\n\n    function setFundAllocationRate(uint256 rate) public onlyOperator {\n        fundAllocationRate = rate;\n        emit ContributionPoolRateChanged(msg.sender, rate);\n    }\n\n    /* ========== MUTABLE FUNCTIONS ========== */\n\n    function _updateCashPrice() internal {\n        try IOracle(bondOracle).update()  {} catch {}\n        try IOracle(seigniorageOracle).update()  {} catch {}\n    }\n\n    function buyBonds(uint256 amount, uint256 targetPrice)\n        external\n        onlyOneBlock\n        checkMigration\n        checkStartTime\n        checkOperator\n    {\n        require(amount > 0, 'Treasury: cannot purchase bonds with zero amount');\n\n        uint256 cashPrice = _getCashPrice(bondOracle);\n        require(cashPrice == targetPrice, 'Treasury: cash price moved');\n        require(\n            cashPrice < cashPriceOne, // price < $1\n            'Treasury: cashPrice not eligible for bond purchase'\n        );\n\n        uint256 bondPrice = cashPrice;\n\n        IFatAsset(cash).burnFrom(msg.sender, amount);\n        IFatAsset(bond).mint(msg.sender, amount.mul(1e18).div(bondPrice));\n        _updateCashPrice();\n\n        emit BoughtBonds(msg.sender, amount);\n    }\n\n    function redeemBonds(uint256 amount, uint256 targetPrice)\n        external\n        onlyOneBlock\n        checkMigration\n        checkStartTime\n        checkOperator\n    {\n        require(amount > 0, 'Treasury: cannot redeem bonds with zero amount');\n\n        uint256 cashPrice = _getCashPrice(bondOracle);\n        require(cashPrice == targetPrice, 'Treasury: cash price moved');\n        require(\n            cashPrice > cashPriceCeiling, // price > $1.05\n            'Treasury: cashPrice not eligible for bond purchase'\n        );\n        require(\n            IBEP20(cash).balanceOf(address(this)) >= amount,\n            'Treasury: treasury has no more budget'\n        );\n\n        accumulatedSeigniorage = accumulatedSeigniorage.sub(\n            Math.min(accumulatedSeigniorage, amount)\n        );\n\n        IFatAsset(bond).burnFrom(msg.sender, amount);\n        IBEP20(cash).safeTransfer(msg.sender, amount);\n        _updateCashPrice();\n\n        emit RedeemedBonds(msg.sender, amount);\n    }\n\n    function allocateSeigniorage()\n        external\n        onlyOneBlock\n        checkMigration\n        checkStartTime\n        checkEpoch\n        checkOperator\n    {\n        _updateCashPrice();\n        uint256 cashPrice = _getCashPrice(seigniorageOracle);\n        if (cashPrice <= cashPriceCeiling) {\n            return; // just advance epoch instead revert\n        }\n\n        // circulating supply\n        uint256 cashSupply = IBEP20(cash).totalSupply().sub(\n            accumulatedSeigniorage\n        );\n        uint256 percentage = cashPrice.sub(cashPriceOne);\n        uint256 seigniorage = cashSupply.mul(percentage).div(1e18);\n        IFatAsset(cash).mint(address(this), seigniorage);\n\n        // ======================== BIP-3\n        uint256 fundReserve = seigniorage.mul(fundAllocationRate).div(100);\n        if (fundReserve > 0) {\n            IBEP20(cash).safeApprove(fund, fundReserve);\n            ISimpleERCFund(fund).deposit(\n                cash,\n                fundReserve,\n                'Treasury: Seigniorage Allocation'\n            );\n            emit ContributionPoolFunded(now, fundReserve);\n        }\n\n        seigniorage = seigniorage.sub(fundReserve);\n\n        // ======================== BIP-4\n        uint256 treasuryReserve = Math.min(\n            seigniorage,\n            IBEP20(bond).totalSupply().sub(accumulatedSeigniorage)\n        );\n        if (treasuryReserve > 0) {\n            accumulatedSeigniorage = accumulatedSeigniorage.add(\n                treasuryReserve\n            );\n            emit TreasuryFunded(now, treasuryReserve);\n        }\n\n        // boardroom\n        uint256 boardroomReserve = seigniorage.sub(treasuryReserve);\n        if (boardroomReserve > 0) {\n            IBEP20(cash).safeApprove(boardroom, boardroomReserve);\n            IBoardroom(boardroom).allocateSeigniorage(boardroomReserve);\n            emit BoardroomFunded(now, boardroomReserve);\n        }\n    }\n\n    // GOV\n    event Initialized(address indexed executor, uint256 at);\n    event Migration(address indexed target);\n    event ContributionPoolChanged(address indexed operator, address newFund);\n    event ContributionPoolRateChanged(\n        address indexed operator,\n        uint256 newRate\n    );\n\n    // CORE\n    event RedeemedBonds(address indexed from, uint256 amount);\n    event BoughtBonds(address indexed from, uint256 amount);\n    event TreasuryFunded(uint256 timestamp, uint256 seigniorage);\n    event BoardroomFunded(uint256 timestamp, uint256 seigniorage);\n    event ContributionPoolFunded(uint256 timestamp, uint256 seigniorage);\n}\n",
  "sourcePath": "/Volumes/Developer/Workspace/farmbria/fat-protocol/contracts/Treasury.sol",
  "compiler": {
    "name": "solc",
    "version": "0.6.12+commit.27d51765.Emscripten.clang"
  },
  "schemaVersion": "3.3.1",
  "updatedAt": "2021-03-17T11:23:56.437Z",
  "networkType": "ethereum",
  "devdoc": {
    "author": "Summer Smith & Rick Sanchez",
    "kind": "dev",
    "methods": {
      "owner()": {
        "details": "Returns the address of the current owner."
      },
      "renounceOwnership()": {
        "details": "Leaves the contract without owner. It will not be possible to call `onlyOwner` functions anymore. Can only be called by the current owner. NOTE: Renouncing ownership will leave the contract without an owner, thereby removing any functionality that is only available to the owner."
      },
      "transferOwnership(address)": {
        "details": "Transfers ownership of the contract to a new account (`newOwner`). Can only be called by the current owner."
      }
    },
    "title": "Basis Cash Treasury contract",
    "version": 1
  },
  "userdoc": {
    "kind": "user",
    "methods": {},
    "notice": "Monetary policy logic to adjust supplies of basis cash assets",
    "version": 1
  }
}