{
  "contractName": "Treasury",
  "abi": [
    {
      "inputs": [
        {
          "internalType": "address",
          "name": "_cash",
          "type": "address"
        },
        {
          "internalType": "address",
          "name": "_bond",
          "type": "address"
        },
        {
          "internalType": "address",
          "name": "_share",
          "type": "address"
        },
        {
          "internalType": "address",
          "name": "_bondOracle",
          "type": "address"
        },
        {
          "internalType": "address",
          "name": "_seigniorageOracle",
          "type": "address"
        },
        {
          "internalType": "address",
          "name": "_boardroom",
          "type": "address"
        },
        {
          "internalType": "address",
          "name": "_fund",
          "type": "address"
        },
        {
          "internalType": "uint256",
          "name": "_startTime",
          "type": "uint256"
        }
      ],
      "stateMutability": "nonpayable",
      "type": "constructor"
    },
    {
      "anonymous": false,
      "inputs": [
        {
          "indexed": false,
          "internalType": "uint256",
          "name": "timestamp",
          "type": "uint256"
        },
        {
          "indexed": false,
          "internalType": "uint256",
          "name": "seigniorage",
          "type": "uint256"
        }
      ],
      "name": "BoardroomFunded",
      "type": "event"
    },
    {
      "anonymous": false,
      "inputs": [
        {
          "indexed": true,
          "internalType": "address",
          "name": "from",
          "type": "address"
        },
        {
          "indexed": false,
          "internalType": "uint256",
          "name": "amount",
          "type": "uint256"
        }
      ],
      "name": "BoughtBonds",
      "type": "event"
    },
    {
      "anonymous": false,
      "inputs": [
        {
          "indexed": true,
          "internalType": "address",
          "name": "operator",
          "type": "address"
        },
        {
          "indexed": false,
          "internalType": "address",
          "name": "newFund",
          "type": "address"
        }
      ],
      "name": "ContributionPoolChanged",
      "type": "event"
    },
    {
      "anonymous": false,
      "inputs": [
        {
          "indexed": false,
          "internalType": "uint256",
          "name": "timestamp",
          "type": "uint256"
        },
        {
          "indexed": false,
          "internalType": "uint256",
          "name": "seigniorage",
          "type": "uint256"
        }
      ],
      "name": "ContributionPoolFunded",
      "type": "event"
    },
    {
      "anonymous": false,
      "inputs": [
        {
          "indexed": true,
          "internalType": "address",
          "name": "operator",
          "type": "address"
        },
        {
          "indexed": false,
          "internalType": "uint256",
          "name": "newRate",
          "type": "uint256"
        }
      ],
      "name": "ContributionPoolRateChanged",
      "type": "event"
    },
    {
      "anonymous": false,
      "inputs": [
        {
          "indexed": true,
          "internalType": "address",
          "name": "executor",
          "type": "address"
        },
        {
          "indexed": false,
          "internalType": "uint256",
          "name": "at",
          "type": "uint256"
        }
      ],
      "name": "Initialized",
      "type": "event"
    },
    {
      "anonymous": false,
      "inputs": [
        {
          "indexed": true,
          "internalType": "address",
          "name": "target",
          "type": "address"
        }
      ],
      "name": "Migration",
      "type": "event"
    },
    {
      "anonymous": false,
      "inputs": [
        {
          "indexed": true,
          "internalType": "address",
          "name": "previousOperator",
          "type": "address"
        },
        {
          "indexed": true,
          "internalType": "address",
          "name": "newOperator",
          "type": "address"
        }
      ],
      "name": "OperatorTransferred",
      "type": "event"
    },
    {
      "anonymous": false,
      "inputs": [
        {
          "indexed": true,
          "internalType": "address",
          "name": "previousOwner",
          "type": "address"
        },
        {
          "indexed": true,
          "internalType": "address",
          "name": "newOwner",
          "type": "address"
        }
      ],
      "name": "OwnershipTransferred",
      "type": "event"
    },
    {
      "anonymous": false,
      "inputs": [
        {
          "indexed": true,
          "internalType": "address",
          "name": "from",
          "type": "address"
        },
        {
          "indexed": false,
          "internalType": "uint256",
          "name": "amount",
          "type": "uint256"
        }
      ],
      "name": "RedeemedBonds",
      "type": "event"
    },
    {
      "anonymous": false,
      "inputs": [
        {
          "indexed": false,
          "internalType": "uint256",
          "name": "timestamp",
          "type": "uint256"
        },
        {
          "indexed": false,
          "internalType": "uint256",
          "name": "seigniorage",
          "type": "uint256"
        }
      ],
      "name": "TreasuryFunded",
      "type": "event"
    },
    {
      "inputs": [],
      "name": "boardroom",
      "outputs": [
        {
          "internalType": "address",
          "name": "",
          "type": "address"
        }
      ],
      "stateMutability": "view",
      "type": "function",
      "constant": true
    },
    {
      "inputs": [],
      "name": "bond",
      "outputs": [
        {
          "internalType": "address",
          "name": "",
          "type": "address"
        }
      ],
      "stateMutability": "view",
      "type": "function",
      "constant": true
    },
    {
      "inputs": [],
      "name": "bondDepletionFloor",
      "outputs": [
        {
          "internalType": "uint256",
          "name": "",
          "type": "uint256"
        }
      ],
      "stateMutability": "view",
      "type": "function",
      "constant": true
    },
    {
      "inputs": [],
      "name": "bondOracle",
      "outputs": [
        {
          "internalType": "address",
          "name": "",
          "type": "address"
        }
      ],
      "stateMutability": "view",
      "type": "function",
      "constant": true
    },
    {
      "inputs": [],
      "name": "cash",
      "outputs": [
        {
          "internalType": "address",
          "name": "",
          "type": "address"
        }
      ],
      "stateMutability": "view",
      "type": "function",
      "constant": true
    },
    {
      "inputs": [],
      "name": "cashPriceCeiling",
      "outputs": [
        {
          "internalType": "uint256",
          "name": "",
          "type": "uint256"
        }
      ],
      "stateMutability": "view",
      "type": "function",
      "constant": true
    },
    {
      "inputs": [],
      "name": "cashPriceOne",
      "outputs": [
        {
          "internalType": "uint256",
          "name": "",
          "type": "uint256"
        }
      ],
      "stateMutability": "view",
      "type": "function",
      "constant": true
    },
    {
      "inputs": [],
      "name": "fund",
      "outputs": [
        {
          "internalType": "address",
          "name": "",
          "type": "address"
        }
      ],
      "stateMutability": "view",
      "type": "function",
      "constant": true
    },
    {
      "inputs": [],
      "name": "fundAllocationRate",
      "outputs": [
        {
          "internalType": "uint256",
          "name": "",
          "type": "uint256"
        }
      ],
      "stateMutability": "view",
      "type": "function",
      "constant": true
    },
    {
      "inputs": [],
      "name": "getCurrentEpoch",
      "outputs": [
        {
          "internalType": "uint256",
          "name": "",
          "type": "uint256"
        }
      ],
      "stateMutability": "view",
      "type": "function",
      "constant": true
    },
    {
      "inputs": [],
      "name": "getLastEpoch",
      "outputs": [
        {
          "internalType": "uint256",
          "name": "",
          "type": "uint256"
        }
      ],
      "stateMutability": "view",
      "type": "function",
      "constant": true
    },
    {
      "inputs": [],
      "name": "getNextEpoch",
      "outputs": [
        {
          "internalType": "uint256",
          "name": "",
          "type": "uint256"
        }
      ],
      "stateMutability": "view",
      "type": "function",
      "constant": true
    },
    {
      "inputs": [],
      "name": "getPeriod",
      "outputs": [
        {
          "internalType": "uint256",
          "name": "",
          "type": "uint256"
        }
      ],
      "stateMutability": "view",
      "type": "function",
      "constant": true
    },
    {
      "inputs": [],
      "name": "getStartTime",
      "outputs": [
        {
          "internalType": "uint256",
          "name": "",
          "type": "uint256"
        }
      ],
      "stateMutability": "view",
      "type": "function",
      "constant": true
    },
    {
      "inputs": [],
      "name": "initialized",
      "outputs": [
        {
          "internalType": "bool",
          "name": "",
          "type": "bool"
        }
      ],
      "stateMutability": "view",
      "type": "function",
      "constant": true
    },
    {
      "inputs": [],
      "name": "isOperator",
      "outputs": [
        {
          "internalType": "bool",
          "name": "",
          "type": "bool"
        }
      ],
      "stateMutability": "view",
      "type": "function",
      "constant": true
    },
    {
      "inputs": [],
      "name": "migrated",
      "outputs": [
        {
          "internalType": "bool",
          "name": "",
          "type": "bool"
        }
      ],
      "stateMutability": "view",
      "type": "function",
      "constant": true
    },
    {
      "inputs": [],
      "name": "nextEpochPoint",
      "outputs": [
        {
          "internalType": "uint256",
          "name": "",
          "type": "uint256"
        }
      ],
      "stateMutability": "view",
      "type": "function",
      "constant": true
    },
    {
      "inputs": [],
      "name": "operator",
      "outputs": [
        {
          "internalType": "address",
          "name": "",
          "type": "address"
        }
      ],
      "stateMutability": "view",
      "type": "function",
      "constant": true
    },
    {
      "inputs": [],
      "name": "owner",
      "outputs": [
        {
          "internalType": "address",
          "name": "",
          "type": "address"
        }
      ],
      "stateMutability": "view",
      "type": "function",
      "constant": true
    },
    {
      "inputs": [],
      "name": "renounceOwnership",
      "outputs": [],
      "stateMutability": "nonpayable",
      "type": "function"
    },
    {
      "inputs": [],
      "name": "seigniorageOracle",
      "outputs": [
        {
          "internalType": "address",
          "name": "",
          "type": "address"
        }
      ],
      "stateMutability": "view",
      "type": "function",
      "constant": true
    },
    {
      "inputs": [
        {
          "internalType": "uint256",
          "name": "_period",
          "type": "uint256"
        }
      ],
      "name": "setPeriod",
      "outputs": [],
      "stateMutability": "nonpayable",
      "type": "function"
    },
    {
      "inputs": [],
      "name": "share",
      "outputs": [
        {
          "internalType": "address",
          "name": "",
          "type": "address"
        }
      ],
      "stateMutability": "view",
      "type": "function",
      "constant": true
    },
    {
      "inputs": [
        {
          "internalType": "address",
          "name": "newOperator_",
          "type": "address"
        }
      ],
      "name": "transferOperator",
      "outputs": [],
      "stateMutability": "nonpayable",
      "type": "function"
    },
    {
      "inputs": [
        {
          "internalType": "address",
          "name": "newOwner",
          "type": "address"
        }
      ],
      "name": "transferOwnership",
      "outputs": [],
      "stateMutability": "nonpayable",
      "type": "function"
    },
    {
      "inputs": [],
      "name": "getReserve",
      "outputs": [
        {
          "internalType": "uint256",
          "name": "",
          "type": "uint256"
        }
      ],
      "stateMutability": "view",
      "type": "function",
      "constant": true
    },
    {
      "inputs": [],
      "name": "getBondOraclePrice",
      "outputs": [
        {
          "internalType": "uint256",
          "name": "",
          "type": "uint256"
        }
      ],
      "stateMutability": "view",
      "type": "function",
      "constant": true
    },
    {
      "inputs": [],
      "name": "getSeigniorageOraclePrice",
      "outputs": [
        {
          "internalType": "uint256",
          "name": "",
          "type": "uint256"
        }
      ],
      "stateMutability": "view",
      "type": "function",
      "constant": true
    },
    {
      "inputs": [],
      "name": "initialize",
      "outputs": [],
      "stateMutability": "nonpayable",
      "type": "function"
    },
    {
      "inputs": [
        {
          "internalType": "address",
          "name": "target",
          "type": "address"
        }
      ],
      "name": "migrate",
      "outputs": [],
      "stateMutability": "nonpayable",
      "type": "function"
    },
    {
      "inputs": [
        {
          "internalType": "address",
          "name": "newFund",
          "type": "address"
        }
      ],
      "name": "setFund",
      "outputs": [],
      "stateMutability": "nonpayable",
      "type": "function"
    },
    {
      "inputs": [
        {
          "internalType": "uint256",
          "name": "rate",
          "type": "uint256"
        }
      ],
      "name": "setFundAllocationRate",
      "outputs": [],
      "stateMutability": "nonpayable",
      "type": "function"
    },
    {
      "inputs": [
        {
          "internalType": "uint256",
          "name": "amount",
          "type": "uint256"
        },
        {
          "internalType": "uint256",
          "name": "targetPrice",
          "type": "uint256"
        }
      ],
      "name": "buyBonds",
      "outputs": [],
      "stateMutability": "nonpayable",
      "type": "function"
    },
    {
      "inputs": [
        {
          "internalType": "uint256",
          "name": "amount",
          "type": "uint256"
        },
        {
          "internalType": "uint256",
          "name": "targetPrice",
          "type": "uint256"
        }
      ],
      "name": "redeemBonds",
      "outputs": [],
      "stateMutability": "nonpayable",
      "type": "function"
    },
    {
      "inputs": [],
      "name": "allocateSeigniorage",
      "outputs": [],
      "stateMutability": "nonpayable",
      "type": "function"
    }
  ],
  "bytecode": "0x60806040526000600660006101000a81548160ff0219169083151502179055506000600660016101000a81548160ff021916908315150217905550600060105560026011553480156200005157600080fd5b506040516200605e3803806200605e83398181016040526101008110156200007857600080fd5b8101908080519060200190929190805190602001909291908051906020019092919080519060200190929190805190602001909291908051906020019092919080519060200190929190805190602001909291905050506201518081600080620000e76200055c60201b60201c565b905080600160006101000a81548173ffffffffffffffffffffffffffffffffffffffff021916908373ffffffffffffffffffffffffffffffffffffffff1602179055508073ffffffffffffffffffffffffffffffffffffffff16600073ffffffffffffffffffffffffffffffffffffffff167f8be0079c531659141344cd1fd0a4f28419497f9722a3daafe3b4186f6b6457e060405160405180910390a350620001966200055c60201b60201c565b600260006101000a81548173ffffffffffffffffffffffffffffffffffffffff021916908373ffffffffffffffffffffffffffffffffffffffff160217905550600260009054906101000a900473ffffffffffffffffffffffffffffffffffffffff1673ffffffffffffffffffffffffffffffffffffffff16600073ffffffffffffffffffffffffffffffffffffffff167f74da04524d50c64947f5dd5381ef1a4dca5cba8ed1d816243f9e48aa0b5617ed60405160405180910390a3428211620002c9576040517f08c379a00000000000000000000000000000000000000000000000000000000081526004018080602001828103825260198152602001807f45706f63683a20696e76616c69642073746172742074696d650000000000000081525060200191505060405180910390fd5b82600381905550816004819055506200030e620002f7600354836200056460201b620049491790919060201c565b600454620005ef60201b620049cf1790919060201c565b60058190555050505087600760006101000a81548173ffffffffffffffffffffffffffffffffffffffff021916908373ffffffffffffffffffffffffffffffffffffffff16021790555086600860006101000a81548173ffffffffffffffffffffffffffffffffffffffff021916908373ffffffffffffffffffffffffffffffffffffffff16021790555085600960006101000a81548173ffffffffffffffffffffffffffffffffffffffff021916908373ffffffffffffffffffffffffffffffffffffffff16021790555084600b60006101000a81548173ffffffffffffffffffffffffffffffffffffffff021916908373ffffffffffffffffffffffffffffffffffffffff16021790555083600c60006101000a81548173ffffffffffffffffffffffffffffffffffffffff021916908373ffffffffffffffffffffffffffffffffffffffff16021790555082600a60006101000a81548173ffffffffffffffffffffffffffffffffffffffff021916908373ffffffffffffffffffffffffffffffffffffffff16021790555081600660026101000a81548173ffffffffffffffffffffffffffffffffffffffff021916908373ffffffffffffffffffffffffffffffffffffffff160217905550670de0b6b3a7640000600d8190555062000524606462000510600d5460696200056460201b620049491790919060201c565b6200067860201b62004a571790919060201c565b600e8190555062000548600d546103e86200056460201b620049491790919060201c565b600f81905550505050505050505062000795565b600033905090565b600080831415620005795760009050620005e9565b60008284029050828482816200058b57fe5b0414620005e4576040517f08c379a00000000000000000000000000000000000000000000000000000000081526004018080602001828103825260218152602001806200603d6021913960400191505060405180910390fd5b809150505b92915050565b6000808284019050838110156200066e576040517f08c379a000000000000000000000000000000000000000000000000000000000815260040180806020018281038252601b8152602001807f536166654d6174683a206164646974696f6e206f766572666c6f77000000000081525060200191505060405180910390fd5b8091505092915050565b6000620006c283836040518060400160405280601a81526020017f536166654d6174683a206469766973696f6e206279207a65726f000000000000815250620006ca60201b60201c565b905092915050565b600080831182906200077a576040517f08c379a00000000000000000000000000000000000000000000000000000000081526004018080602001828103825283818151815260200191508051906020019080838360005b838110156200073e57808201518184015260208101905062000721565b50505050905090810190601f1680156200076c5780820380516001836020036101000a031916815260200191505b509250505060405180910390fd5b5060008385816200078757fe5b049050809150509392505050565b61589880620007a56000396000f3fe608060405234801561001057600080fd5b506004361061021c5760003560e01c8063715018a611610125578063b97dd9e2116100ad578063c828371e1161007c578063c828371e146106f3578063ce5494bb14610711578063e03047b714610755578063efe97d0514610773578063f2fde38b146107915761021c565b8063b97dd9e21461067b578063c1a2977214610699578063c1aa3900146106b7578063c5967c26146106d55761021c565b8063961be391116100f4578063961be391146105a3578063a8d5fd65146105d7578063a9cfc46e1461060b578063b60d428814610629578063b8e2cf8e1461065d5761021c565b8063715018a61461052d5780638129fc1c146105375780638da5cb5b1461054157806395b1828a146105755761021c565b8063398bac63116101a857806359bf5d391161017757806359bf5d39146104695780635b756179146104875780635e02c51e1461049157806364c9ec6f146104c55780636d19921d146104f95761021c565b8063398bac63146103bf5780634456eda2146103dd57806354f04a11146103fd578063570ca735146104355761021c565b8063158ef93e116101ef578063158ef93e146102ff5780631ed241951461031f57806323ced1351461033d57806329605e771461035b5780632c678c641461039f5761021c565b80630e21750f146102215780630f3a9f6514610265578063118ebbf914610293578063132eeaa7146102cb575b600080fd5b6102636004803603602081101561023757600080fd5b81019080803573ffffffffffffffffffffffffffffffffffffffff1690602001909291905050506107d5565b005b6102916004803603602081101561027b57600080fd5b8101908080359060200190929190505050610923565b005b6102c9600480360360408110156102a957600080fd5b8101908080359060200190929190803590602001909291905050506109d3565b005b6102d3611414565b604051808273ffffffffffffffffffffffffffffffffffffffff16815260200191505060405180910390f35b61030761143a565b60405180821515815260200191505060405180910390f35b61032761144d565b6040518082815260200191505060405180910390f35b610345611457565b6040518082815260200191505060405180910390f35b61039d6004803603602081101561037157600080fd5b81019080803573ffffffffffffffffffffffffffffffffffffffff16906020019092919050505061145d565b005b6103a7611533565b60405180821515815260200191505060405180910390f35b6103c7611546565b6040518082815260200191505060405180910390f35b6103e5611578565b60405180821515815260200191505060405180910390f35b6104336004803603604081101561041357600080fd5b8101908080359060200190929190803590602001909291905050506115d7565b005b61043d611f8a565b604051808273ffffffffffffffffffffffffffffffffffffffff16815260200191505060405180910390f35b610471611fb4565b6040518082815260200191505060405180910390f35b61048f611fbe565b005b610499612dbc565b604051808273ffffffffffffffffffffffffffffffffffffffff16815260200191505060405180910390f35b6104cd612de2565b604051808273ffffffffffffffffffffffffffffffffffffffff16815260200191505060405180910390f35b610501612e08565b604051808273ffffffffffffffffffffffffffffffffffffffff16815260200191505060405180910390f35b610535612e2e565b005b61053f612fb9565b005b61054961368f565b604051808273ffffffffffffffffffffffffffffffffffffffff16815260200191505060405180910390f35b6105a16004803603602081101561058b57600080fd5b81019080803590602001909291905050506136b9565b005b6105ab6137b7565b604051808273ffffffffffffffffffffffffffffffffffffffff16815260200191505060405180910390f35b6105df6137dd565b604051808273ffffffffffffffffffffffffffffffffffffffff16815260200191505060405180910390f35b610613613803565b6040518082815260200191505060405180910390f35b610631613809565b604051808273ffffffffffffffffffffffffffffffffffffffff16815260200191505060405180910390f35b61066561382f565b6040518082815260200191505060405180910390f35b610683613861565b6040518082815260200191505060405180910390f35b6106a161389c565b6040518082815260200191505060405180910390f35b6106bf6138ce565b6040518082815260200191505060405180910390f35b6106dd6138d4565b6040518082815260200191505060405180910390f35b6106fb61390b565b6040518082815260200191505060405180910390f35b6107536004803603602081101561072757600080fd5b81019080803573ffffffffffffffffffffffffffffffffffffffff169060200190929190505050613915565b005b61075d6146f5565b6040518082815260200191505060405180910390f35b61077b6146fb565b6040518082815260200191505060405180910390f35b6107d3600480360360208110156107a757600080fd5b81019080803573ffffffffffffffffffffffffffffffffffffffff169060200190929190505050614739565b005b3373ffffffffffffffffffffffffffffffffffffffff16600260009054906101000a900473ffffffffffffffffffffffffffffffffffffffff1673ffffffffffffffffffffffffffffffffffffffff161461087b576040517f08c379a00000000000000000000000000000000000000000000000000000000081526004018080602001828103825260248152602001806157b96024913960400191505060405180910390fd5b80600660026101000a81548173ffffffffffffffffffffffffffffffffffffffff021916908373ffffffffffffffffffffffffffffffffffffffff1602179055503373ffffffffffffffffffffffffffffffffffffffff167f970b0c70d6e9879d19345f9dbfd8bacae71546478b8bb2d8a56ad8927d3d436e82604051808273ffffffffffffffffffffffffffffffffffffffff16815260200191505060405180910390a250565b3373ffffffffffffffffffffffffffffffffffffffff16600260009054906101000a900473ffffffffffffffffffffffffffffffffffffffff1673ffffffffffffffffffffffffffffffffffffffff16146109c9576040517f08c379a00000000000000000000000000000000000000000000000000000000081526004018080602001828103825260248152602001806157b96024913960400191505060405180910390fd5b8060038190555050565b6109db614aa1565b15610a31576040517f08c379a00000000000000000000000000000000000000000000000000000000081526004018080602001828103825260268152602001806158076026913960400191505060405180910390fd5b610a39614b05565b15610a8f576040517f08c379a00000000000000000000000000000000000000000000000000000000081526004018080602001828103825260268152602001806158076026913960400191505060405180910390fd5b600660009054906101000a900460ff1615610b12576040517f08c379a00000000000000000000000000000000000000000000000000000000081526004018080602001828103825260128152602001807f54726561737572793a206d69677261746564000000000000000000000000000081525060200191505060405180910390fd5b600454421015610b8a576040517f08c379a00000000000000000000000000000000000000000000000000000000081526004018080602001828103825260168152602001807f45706f63683a206e6f742073746172746564207965740000000000000000000081525060200191505060405180910390fd5b3073ffffffffffffffffffffffffffffffffffffffff16600760009054906101000a900473ffffffffffffffffffffffffffffffffffffffff1673ffffffffffffffffffffffffffffffffffffffff1663570ca7356040518163ffffffff1660e01b815260040160206040518083038186803b158015610c0957600080fd5b505afa158015610c1d573d6000803e3d6000fd5b505050506040513d6020811015610c3357600080fd5b810190808051906020019092919050505073ffffffffffffffffffffffffffffffffffffffff16148015610d3457503073ffffffffffffffffffffffffffffffffffffffff16600860009054906101000a900473ffffffffffffffffffffffffffffffffffffffff1673ffffffffffffffffffffffffffffffffffffffff1663570ca7356040518163ffffffff1660e01b815260040160206040518083038186803b158015610ce157600080fd5b505afa158015610cf5573d6000803e3d6000fd5b505050506040513d6020811015610d0b57600080fd5b810190808051906020019092919050505073ffffffffffffffffffffffffffffffffffffffff16145b8015610e0d57503073ffffffffffffffffffffffffffffffffffffffff16600960009054906101000a900473ffffffffffffffffffffffffffffffffffffffff1673ffffffffffffffffffffffffffffffffffffffff1663570ca7356040518163ffffffff1660e01b815260040160206040518083038186803b158015610dba57600080fd5b505afa158015610dce573d6000803e3d6000fd5b505050506040513d6020811015610de457600080fd5b810190808051906020019092919050505073ffffffffffffffffffffffffffffffffffffffff16145b8015610ee657503073ffffffffffffffffffffffffffffffffffffffff16600a60009054906101000a900473ffffffffffffffffffffffffffffffffffffffff1673ffffffffffffffffffffffffffffffffffffffff1663570ca7356040518163ffffffff1660e01b815260040160206040518083038186803b158015610e9357600080fd5b505afa158015610ea7573d6000803e3d6000fd5b505050506040513d6020811015610ebd57600080fd5b810190808051906020019092919050505073ffffffffffffffffffffffffffffffffffffffff16145b610f58576040517f08c379a000000000000000000000000000000000000000000000000000000000815260040180806020018281038252601e8152602001807f54726561737572793a206e656564206d6f7265207065726d697373696f6e000081525060200191505060405180910390fd5b60008211610fb1576040517f08c379a000000000000000000000000000000000000000000000000000000000815260040180806020018281038252602e815260200180615680602e913960400191505060405180910390fd5b6000610fde600b60009054906101000a900473ffffffffffffffffffffffffffffffffffffffff16614b69565b9050818114611055576040517f08c379a000000000000000000000000000000000000000000000000000000000815260040180806020018281038252601a8152602001807f54726561737572793a2063617368207072696365206d6f76656400000000000081525060200191505060405180910390fd5b600e5481116110af576040517f08c379a00000000000000000000000000000000000000000000000000000000081526004018080602001828103825260328152602001806156ae6032913960400191505060405180910390fd5b82600760009054906101000a900473ffffffffffffffffffffffffffffffffffffffff1673ffffffffffffffffffffffffffffffffffffffff166370a08231306040518263ffffffff1660e01b8152600401808273ffffffffffffffffffffffffffffffffffffffff16815260200191505060206040518083038186803b15801561113957600080fd5b505afa15801561114d573d6000803e3d6000fd5b505050506040513d602081101561116357600080fd5b810190808051906020019092919050505010156111cb576040517f08c379a000000000000000000000000000000000000000000000000000000000815260040180806020018281038252602581526020018061570d6025913960400191505060405180910390fd5b6111eb6111da60105485614c96565b601054614caf90919063ffffffff16565b601081905550600860009054906101000a900473ffffffffffffffffffffffffffffffffffffffff1673ffffffffffffffffffffffffffffffffffffffff166379cc679033856040518363ffffffff1660e01b8152600401808373ffffffffffffffffffffffffffffffffffffffff16815260200182815260200192505050600060405180830381600087803b15801561128457600080fd5b505af1158015611298573d6000803e3d6000fd5b505050506112e93384600760009054906101000a900473ffffffffffffffffffffffffffffffffffffffff1673ffffffffffffffffffffffffffffffffffffffff16614cf99092919063ffffffff16565b6112f1614d9b565b3373ffffffffffffffffffffffffffffffffffffffff167f9c3478f12dce08d85673d802af16ed5b9ebab8420ffd7b145d65d3157084b2ce846040518082815260200191505060405180910390a250600160008043815260200190815260200160002060003273ffffffffffffffffffffffffffffffffffffffff1673ffffffffffffffffffffffffffffffffffffffff16815260200190815260200160002060006101000a81548160ff021916908315150217905550600160008043815260200190815260200160002060003373ffffffffffffffffffffffffffffffffffffffff1673ffffffffffffffffffffffffffffffffffffffff16815260200190815260200160002060006101000a81548160ff0219169083151502179055505050565b600c60009054906101000a900473ffffffffffffffffffffffffffffffffffffffff1681565b600660019054906101000a900460ff1681565b6000600354905090565b600e5481565b611465614ea7565b73ffffffffffffffffffffffffffffffffffffffff16600160009054906101000a900473ffffffffffffffffffffffffffffffffffffffff1673ffffffffffffffffffffffffffffffffffffffff1614611527576040517f08c379a00000000000000000000000000000000000000000000000000000000081526004018080602001828103825260208152602001807f4f776e61626c653a2063616c6c6572206973206e6f7420746865206f776e657281525060200191505060405180910390fd5b61153081614eaf565b50565b600660009054906101000a900460ff1681565b6000611573600354611565600454600554614caf90919063ffffffff16565b614a5790919063ffffffff16565b905090565b6000600260009054906101000a900473ffffffffffffffffffffffffffffffffffffffff1673ffffffffffffffffffffffffffffffffffffffff166115bb614ea7565b73ffffffffffffffffffffffffffffffffffffffff1614905090565b6115df614aa1565b15611635576040517f08c379a00000000000000000000000000000000000000000000000000000000081526004018080602001828103825260268152602001806158076026913960400191505060405180910390fd5b61163d614b05565b15611693576040517f08c379a00000000000000000000000000000000000000000000000000000000081526004018080602001828103825260268152602001806158076026913960400191505060405180910390fd5b600660009054906101000a900460ff1615611716576040517f08c379a00000000000000000000000000000000000000000000000000000000081526004018080602001828103825260128152602001807f54726561737572793a206d69677261746564000000000000000000000000000081525060200191505060405180910390fd5b60045442101561178e576040517f08c379a00000000000000000000000000000000000000000000000000000000081526004018080602001828103825260168152602001807f45706f63683a206e6f742073746172746564207965740000000000000000000081525060200191505060405180910390fd5b3073ffffffffffffffffffffffffffffffffffffffff16600760009054906101000a900473ffffffffffffffffffffffffffffffffffffffff1673ffffffffffffffffffffffffffffffffffffffff1663570ca7356040518163ffffffff1660e01b815260040160206040518083038186803b15801561180d57600080fd5b505afa158015611821573d6000803e3d6000fd5b505050506040513d602081101561183757600080fd5b810190808051906020019092919050505073ffffffffffffffffffffffffffffffffffffffff1614801561193857503073ffffffffffffffffffffffffffffffffffffffff16600860009054906101000a900473ffffffffffffffffffffffffffffffffffffffff1673ffffffffffffffffffffffffffffffffffffffff1663570ca7356040518163ffffffff1660e01b815260040160206040518083038186803b1580156118e557600080fd5b505afa1580156118f9573d6000803e3d6000fd5b505050506040513d602081101561190f57600080fd5b810190808051906020019092919050505073ffffffffffffffffffffffffffffffffffffffff16145b8015611a1157503073ffffffffffffffffffffffffffffffffffffffff16600960009054906101000a900473ffffffffffffffffffffffffffffffffffffffff1673ffffffffffffffffffffffffffffffffffffffff1663570ca7356040518163ffffffff1660e01b815260040160206040518083038186803b1580156119be57600080fd5b505afa1580156119d2573d6000803e3d6000fd5b505050506040513d60208110156119e857600080fd5b810190808051906020019092919050505073ffffffffffffffffffffffffffffffffffffffff16145b8015611aea57503073ffffffffffffffffffffffffffffffffffffffff16600a60009054906101000a900473ffffffffffffffffffffffffffffffffffffffff1673ffffffffffffffffffffffffffffffffffffffff1663570ca7356040518163ffffffff1660e01b815260040160206040518083038186803b158015611a9757600080fd5b505afa158015611aab573d6000803e3d6000fd5b505050506040513d6020811015611ac157600080fd5b810190808051906020019092919050505073ffffffffffffffffffffffffffffffffffffffff16145b611b5c576040517f08c379a000000000000000000000000000000000000000000000000000000000815260040180806020018281038252601e8152602001807f54726561737572793a206e656564206d6f7265207065726d697373696f6e000081525060200191505060405180910390fd5b60008211611bb5576040517f08c379a00000000000000000000000000000000000000000000000000000000081526004018080602001828103825260308152602001806157896030913960400191505060405180910390fd5b6000611be2600b60009054906101000a900473ffffffffffffffffffffffffffffffffffffffff16614b69565b9050818114611c59576040517f08c379a000000000000000000000000000000000000000000000000000000000815260040180806020018281038252601a8152602001807f54726561737572793a2063617368207072696365206d6f76656400000000000081525060200191505060405180910390fd5b600d548110611cb3576040517f08c379a00000000000000000000000000000000000000000000000000000000081526004018080602001828103825260328152602001806156ae6032913960400191505060405180910390fd5b6000819050600760009054906101000a900473ffffffffffffffffffffffffffffffffffffffff1673ffffffffffffffffffffffffffffffffffffffff166379cc679033866040518363ffffffff1660e01b8152600401808373ffffffffffffffffffffffffffffffffffffffff16815260200182815260200192505050600060405180830381600087803b158015611d4b57600080fd5b505af1158015611d5f573d6000803e3d6000fd5b50505050600860009054906101000a900473ffffffffffffffffffffffffffffffffffffffff1673ffffffffffffffffffffffffffffffffffffffff166340c10f1933611dcf84611dc1670de0b6b3a76400008a61494990919063ffffffff16565b614a5790919063ffffffff16565b6040518363ffffffff1660e01b8152600401808373ffffffffffffffffffffffffffffffffffffffff16815260200182815260200192505050602060405180830381600087803b158015611e2257600080fd5b505af1158015611e36573d6000803e3d6000fd5b505050506040513d6020811015611e4c57600080fd5b810190808051906020019092919050505050611e66614d9b565b3373ffffffffffffffffffffffffffffffffffffffff167fdbf5270c3cf4729fec4fdac76fda864aa4f3d14d657ad21772ac28f627141ed9856040518082815260200191505060405180910390a25050600160008043815260200190815260200160002060003273ffffffffffffffffffffffffffffffffffffffff1673ffffffffffffffffffffffffffffffffffffffff16815260200190815260200160002060006101000a81548160ff021916908315150217905550600160008043815260200190815260200160002060003373ffffffffffffffffffffffffffffffffffffffff1673ffffffffffffffffffffffffffffffffffffffff16815260200190815260200160002060006101000a81548160ff0219169083151502179055505050565b6000600260009054906101000a900473ffffffffffffffffffffffffffffffffffffffff16905090565b6000601054905090565b611fc6614aa1565b1561201c576040517f08c379a00000000000000000000000000000000000000000000000000000000081526004018080602001828103825260268152602001806158076026913960400191505060405180910390fd5b612024614b05565b1561207a576040517f08c379a00000000000000000000000000000000000000000000000000000000081526004018080602001828103825260268152602001806158076026913960400191505060405180910390fd5b600660009054906101000a900460ff16156120fd576040517f08c379a00000000000000000000000000000000000000000000000000000000081526004018080602001828103825260128152602001807f54726561737572793a206d69677261746564000000000000000000000000000081525060200191505060405180910390fd5b600454421015612175576040517f08c379a00000000000000000000000000000000000000000000000000000000081526004018080602001828103825260168152602001807f45706f63683a206e6f742073746172746564207965740000000000000000000081525060200191505060405180910390fd5b60045442116121ec576040517f08c379a00000000000000000000000000000000000000000000000000000000081526004018080602001828103825260168152602001807f45706f63683a206e6f742073746172746564207965740000000000000000000081525060200191505060405180910390fd5b6121f46146fb565b6121fc613861565b1015612270576040517f08c379a00000000000000000000000000000000000000000000000000000000081526004018080602001828103825260128152602001807f45706f63683a206e6f7420616c6c6f776564000000000000000000000000000081525060200191505060405180910390fd5b3073ffffffffffffffffffffffffffffffffffffffff16600760009054906101000a900473ffffffffffffffffffffffffffffffffffffffff1673ffffffffffffffffffffffffffffffffffffffff1663570ca7356040518163ffffffff1660e01b815260040160206040518083038186803b1580156122ef57600080fd5b505afa158015612303573d6000803e3d6000fd5b505050506040513d602081101561231957600080fd5b810190808051906020019092919050505073ffffffffffffffffffffffffffffffffffffffff1614801561241a57503073ffffffffffffffffffffffffffffffffffffffff16600860009054906101000a900473ffffffffffffffffffffffffffffffffffffffff1673ffffffffffffffffffffffffffffffffffffffff1663570ca7356040518163ffffffff1660e01b815260040160206040518083038186803b1580156123c757600080fd5b505afa1580156123db573d6000803e3d6000fd5b505050506040513d60208110156123f157600080fd5b810190808051906020019092919050505073ffffffffffffffffffffffffffffffffffffffff16145b80156124f357503073ffffffffffffffffffffffffffffffffffffffff16600960009054906101000a900473ffffffffffffffffffffffffffffffffffffffff1673ffffffffffffffffffffffffffffffffffffffff1663570ca7356040518163ffffffff1660e01b815260040160206040518083038186803b1580156124a057600080fd5b505afa1580156124b4573d6000803e3d6000fd5b505050506040513d60208110156124ca57600080fd5b810190808051906020019092919050505073ffffffffffffffffffffffffffffffffffffffff16145b80156125cc57503073ffffffffffffffffffffffffffffffffffffffff16600a60009054906101000a900473ffffffffffffffffffffffffffffffffffffffff1673ffffffffffffffffffffffffffffffffffffffff1663570ca7356040518163ffffffff1660e01b815260040160206040518083038186803b15801561257957600080fd5b505afa15801561258d573d6000803e3d6000fd5b505050506040513d60208110156125a357600080fd5b810190808051906020019092919050505073ffffffffffffffffffffffffffffffffffffffff16145b61263e576040517f08c379a000000000000000000000000000000000000000000000000000000000815260040180806020018281038252601e8152602001807f54726561737572793a206e656564206d6f7265207065726d697373696f6e000081525060200191505060405180910390fd5b612646614d9b565b6000612673600c60009054906101000a900473ffffffffffffffffffffffffffffffffffffffff16614b69565b9050600e5481116126845750612ce3565b600061273d601054600760009054906101000a900473ffffffffffffffffffffffffffffffffffffffff1673ffffffffffffffffffffffffffffffffffffffff166318160ddd6040518163ffffffff1660e01b815260040160206040518083038186803b1580156126f457600080fd5b505afa158015612708573d6000803e3d6000fd5b505050506040513d602081101561271e57600080fd5b8101908080519060200190929190505050614caf90919063ffffffff16565b90506000612756600d5484614caf90919063ffffffff16565b90506000612787670de0b6b3a7640000612779848661494990919063ffffffff16565b614a5790919063ffffffff16565b9050600760009054906101000a900473ffffffffffffffffffffffffffffffffffffffff1673ffffffffffffffffffffffffffffffffffffffff166340c10f1930836040518363ffffffff1660e01b8152600401808373ffffffffffffffffffffffffffffffffffffffff16815260200182815260200192505050602060405180830381600087803b15801561281c57600080fd5b505af1158015612830573d6000803e3d6000fd5b505050506040513d602081101561284657600080fd5b810190808051906020019092919050505050600061288260646128746011548561494990919063ffffffff16565b614a5790919063ffffffff16565b90506000811115612a42576128fc600660029054906101000a900473ffffffffffffffffffffffffffffffffffffffff1682600760009054906101000a900473ffffffffffffffffffffffffffffffffffffffff1673ffffffffffffffffffffffffffffffffffffffff16614fd49092919063ffffffff16565b600660029054906101000a900473ffffffffffffffffffffffffffffffffffffffff1673ffffffffffffffffffffffffffffffffffffffff1663bfe07da6600760009054906101000a900473ffffffffffffffffffffffffffffffffffffffff16836040518363ffffffff1660e01b8152600401808373ffffffffffffffffffffffffffffffffffffffff16815260200182815260200180602001828103825260208152602001807f54726561737572793a20536569676e696f7261676520416c6c6f636174696f6e8152506020019350505050600060405180830381600087803b1580156129ea57600080fd5b505af11580156129fe573d6000803e3d6000fd5b505050507f4caa64211297e9263667fef70732dc65ca7a8e8c60dc72539ed94518628212d04282604051808381526020018281526020019250505060405180910390a15b612a558183614caf90919063ffffffff16565b91506000612b1983612b14601054600860009054906101000a900473ffffffffffffffffffffffffffffffffffffffff1673ffffffffffffffffffffffffffffffffffffffff166318160ddd6040518163ffffffff1660e01b815260040160206040518083038186803b158015612acb57600080fd5b505afa158015612adf573d6000803e3d6000fd5b505050506040513d6020811015612af557600080fd5b8101908080519060200190929190505050614caf90919063ffffffff16565b614c96565b90506000811115612b7f57612b39816010546149cf90919063ffffffff16565b6010819055507ff705142bf09f04297640495ddf7c59b7fd6f51894c5aea9602d631cf05f0efc24282604051808381526020018281526020019250505060405180910390a15b6000612b948285614caf90919063ffffffff16565b90506000811115612cdb57612c0e600a60009054906101000a900473ffffffffffffffffffffffffffffffffffffffff1682600760009054906101000a900473ffffffffffffffffffffffffffffffffffffffff1673ffffffffffffffffffffffffffffffffffffffff16614fd49092919063ffffffff16565b600a60009054906101000a900473ffffffffffffffffffffffffffffffffffffffff1673ffffffffffffffffffffffffffffffffffffffff166397ffe1d7826040518263ffffffff1660e01b815260040180828152602001915050600060405180830381600087803b158015612c8357600080fd5b505af1158015612c97573d6000803e3d6000fd5b505050507f03ca7276ab7799bf73fb79d27ff0610cd7049574f2508ef8445162833d439aea4282604051808381526020018281526020019250505060405180910390a15b505050505050505b42600581905550600160008043815260200190815260200160002060003273ffffffffffffffffffffffffffffffffffffffff1673ffffffffffffffffffffffffffffffffffffffff16815260200190815260200160002060006101000a81548160ff021916908315150217905550600160008043815260200190815260200160002060003373ffffffffffffffffffffffffffffffffffffffff1673ffffffffffffffffffffffffffffffffffffffff16815260200190815260200160002060006101000a81548160ff021916908315150217905550565b600a60009054906101000a900473ffffffffffffffffffffffffffffffffffffffff1681565b600860009054906101000a900473ffffffffffffffffffffffffffffffffffffffff1681565b600b60009054906101000a900473ffffffffffffffffffffffffffffffffffffffff1681565b612e36614ea7565b73ffffffffffffffffffffffffffffffffffffffff16600160009054906101000a900473ffffffffffffffffffffffffffffffffffffffff1673ffffffffffffffffffffffffffffffffffffffff1614612ef8576040517f08c379a00000000000000000000000000000000000000000000000000000000081526004018080602001828103825260208152602001807f4f776e61626c653a2063616c6c6572206973206e6f7420746865206f776e657281525060200191505060405180910390fd5b600073ffffffffffffffffffffffffffffffffffffffff16600160009054906101000a900473ffffffffffffffffffffffffffffffffffffffff1673ffffffffffffffffffffffffffffffffffffffff167f8be0079c531659141344cd1fd0a4f28419497f9722a3daafe3b4186f6b6457e060405160405180910390a36000600160006101000a81548173ffffffffffffffffffffffffffffffffffffffff021916908373ffffffffffffffffffffffffffffffffffffffff160217905550565b3073ffffffffffffffffffffffffffffffffffffffff16600760009054906101000a900473ffffffffffffffffffffffffffffffffffffffff1673ffffffffffffffffffffffffffffffffffffffff1663570ca7356040518163ffffffff1660e01b815260040160206040518083038186803b15801561303857600080fd5b505afa15801561304c573d6000803e3d6000fd5b505050506040513d602081101561306257600080fd5b810190808051906020019092919050505073ffffffffffffffffffffffffffffffffffffffff1614801561316357503073ffffffffffffffffffffffffffffffffffffffff16600860009054906101000a900473ffffffffffffffffffffffffffffffffffffffff1673ffffffffffffffffffffffffffffffffffffffff1663570ca7356040518163ffffffff1660e01b815260040160206040518083038186803b15801561311057600080fd5b505afa158015613124573d6000803e3d6000fd5b505050506040513d602081101561313a57600080fd5b810190808051906020019092919050505073ffffffffffffffffffffffffffffffffffffffff16145b801561323c57503073ffffffffffffffffffffffffffffffffffffffff16600960009054906101000a900473ffffffffffffffffffffffffffffffffffffffff1673ffffffffffffffffffffffffffffffffffffffff1663570ca7356040518163ffffffff1660e01b815260040160206040518083038186803b1580156131e957600080fd5b505afa1580156131fd573d6000803e3d6000fd5b505050506040513d602081101561321357600080fd5b810190808051906020019092919050505073ffffffffffffffffffffffffffffffffffffffff16145b801561331557503073ffffffffffffffffffffffffffffffffffffffff16600a60009054906101000a900473ffffffffffffffffffffffffffffffffffffffff1673ffffffffffffffffffffffffffffffffffffffff1663570ca7356040518163ffffffff1660e01b815260040160206040518083038186803b1580156132c257600080fd5b505afa1580156132d6573d6000803e3d6000fd5b505050506040513d60208110156132ec57600080fd5b810190808051906020019092919050505073ffffffffffffffffffffffffffffffffffffffff16145b613387576040517f08c379a000000000000000000000000000000000000000000000000000000000815260040180806020018281038252601e8152602001807f54726561737572793a206e656564206d6f7265207065726d697373696f6e000081525060200191505060405180910390fd5b600660019054906101000a900460ff161561340a576040517f08c379a00000000000000000000000000000000000000000000000000000000081526004018080602001828103825260158152602001807f54726561737572793a20696e697469616c697a6564000000000000000000000081525060200191505060405180910390fd5b600760009054906101000a900473ffffffffffffffffffffffffffffffffffffffff1673ffffffffffffffffffffffffffffffffffffffff166342966c68600760009054906101000a900473ffffffffffffffffffffffffffffffffffffffff1673ffffffffffffffffffffffffffffffffffffffff166370a08231306040518263ffffffff1660e01b8152600401808273ffffffffffffffffffffffffffffffffffffffff16815260200191505060206040518083038186803b1580156134d157600080fd5b505afa1580156134e5573d6000803e3d6000fd5b505050506040513d60208110156134fb57600080fd5b81019080805190602001909291905050506040518263ffffffff1660e01b815260040180828152602001915050600060405180830381600087803b15801561354257600080fd5b505af1158015613556573d6000803e3d6000fd5b50505050600760009054906101000a900473ffffffffffffffffffffffffffffffffffffffff1673ffffffffffffffffffffffffffffffffffffffff166370a08231306040518263ffffffff1660e01b8152600401808273ffffffffffffffffffffffffffffffffffffffff16815260200191505060206040518083038186803b1580156135e357600080fd5b505afa1580156135f7573d6000803e3d6000fd5b505050506040513d602081101561360d57600080fd5b81019080805190602001909291905050506010819055506001600660016101000a81548160ff0219169083151502179055503373ffffffffffffffffffffffffffffffffffffffff167f25ff68dd81b34665b5ba7e553ee5511bf6812e12adb4a7e2c0d9e26b3099ce79436040518082815260200191505060405180910390a2565b6000600160009054906101000a900473ffffffffffffffffffffffffffffffffffffffff16905090565b3373ffffffffffffffffffffffffffffffffffffffff16600260009054906101000a900473ffffffffffffffffffffffffffffffffffffffff1673ffffffffffffffffffffffffffffffffffffffff161461375f576040517f08c379a00000000000000000000000000000000000000000000000000000000081526004018080602001828103825260248152602001806157b96024913960400191505060405180910390fd5b806011819055503373ffffffffffffffffffffffffffffffffffffffff167f25ba333c9a98f8f18bb40ff507a4a1fb423614f442759c754d038a9de3f81cf3826040518082815260200191505060405180910390a250565b600760009054906101000a900473ffffffffffffffffffffffffffffffffffffffff1681565b600960009054906101000a900473ffffffffffffffffffffffffffffffffffffffff1681565b600d5481565b600660029054906101000a900473ffffffffffffffffffffffffffffffffffffffff1681565b600061385c600c60009054906101000a900473ffffffffffffffffffffffffffffffffffffffff16614b69565b905090565b600061389760035461388960045461387b60045442615199565b614caf90919063ffffffff16565b614a5790919063ffffffff16565b905090565b60006138c9600b60009054906101000a900473ffffffffffffffffffffffffffffffffffffffff16614b69565b905090565b60115481565b60006139066138f56003546138e76146fb565b61494990919063ffffffff16565b6004546149cf90919063ffffffff16565b905090565b6000600454905090565b3373ffffffffffffffffffffffffffffffffffffffff16600260009054906101000a900473ffffffffffffffffffffffffffffffffffffffff1673ffffffffffffffffffffffffffffffffffffffff16146139bb576040517f08c379a00000000000000000000000000000000000000000000000000000000081526004018080602001828103825260248152602001806157b96024913960400191505060405180910390fd5b3073ffffffffffffffffffffffffffffffffffffffff16600760009054906101000a900473ffffffffffffffffffffffffffffffffffffffff1673ffffffffffffffffffffffffffffffffffffffff1663570ca7356040518163ffffffff1660e01b815260040160206040518083038186803b158015613a3a57600080fd5b505afa158015613a4e573d6000803e3d6000fd5b505050506040513d6020811015613a6457600080fd5b810190808051906020019092919050505073ffffffffffffffffffffffffffffffffffffffff16148015613b6557503073ffffffffffffffffffffffffffffffffffffffff16600860009054906101000a900473ffffffffffffffffffffffffffffffffffffffff1673ffffffffffffffffffffffffffffffffffffffff1663570ca7356040518163ffffffff1660e01b815260040160206040518083038186803b158015613b1257600080fd5b505afa158015613b26573d6000803e3d6000fd5b505050506040513d6020811015613b3c57600080fd5b810190808051906020019092919050505073ffffffffffffffffffffffffffffffffffffffff16145b8015613c3e57503073ffffffffffffffffffffffffffffffffffffffff16600960009054906101000a900473ffffffffffffffffffffffffffffffffffffffff1673ffffffffffffffffffffffffffffffffffffffff1663570ca7356040518163ffffffff1660e01b815260040160206040518083038186803b158015613beb57600080fd5b505afa158015613bff573d6000803e3d6000fd5b505050506040513d6020811015613c1557600080fd5b810190808051906020019092919050505073ffffffffffffffffffffffffffffffffffffffff16145b8015613d1757503073ffffffffffffffffffffffffffffffffffffffff16600a60009054906101000a900473ffffffffffffffffffffffffffffffffffffffff1673ffffffffffffffffffffffffffffffffffffffff1663570ca7356040518163ffffffff1660e01b815260040160206040518083038186803b158015613cc457600080fd5b505afa158015613cd8573d6000803e3d6000fd5b505050506040513d6020811015613cee57600080fd5b810190808051906020019092919050505073ffffffffffffffffffffffffffffffffffffffff16145b613d89576040517f08c379a000000000000000000000000000000000000000000000000000000000815260040180806020018281038252601e8152602001807f54726561737572793a206e656564206d6f7265207065726d697373696f6e000081525060200191505060405180910390fd5b600660009054906101000a900460ff1615613e0c576040517f08c379a00000000000000000000000000000000000000000000000000000000081526004018080602001828103825260128152602001807f54726561737572793a206d69677261746564000000000000000000000000000081525060200191505060405180910390fd5b600760009054906101000a900473ffffffffffffffffffffffffffffffffffffffff1673ffffffffffffffffffffffffffffffffffffffff166329605e77826040518263ffffffff1660e01b8152600401808273ffffffffffffffffffffffffffffffffffffffff168152602001915050600060405180830381600087803b158015613e9757600080fd5b505af1158015613eab573d6000803e3d6000fd5b50505050600760009054906101000a900473ffffffffffffffffffffffffffffffffffffffff1673ffffffffffffffffffffffffffffffffffffffff1663f2fde38b826040518263ffffffff1660e01b8152600401808273ffffffffffffffffffffffffffffffffffffffff168152602001915050600060405180830381600087803b158015613f3a57600080fd5b505af1158015613f4e573d6000803e3d6000fd5b50505050600760009054906101000a900473ffffffffffffffffffffffffffffffffffffffff1673ffffffffffffffffffffffffffffffffffffffff1663a9059cbb82600760009054906101000a900473ffffffffffffffffffffffffffffffffffffffff1673ffffffffffffffffffffffffffffffffffffffff166370a08231306040518263ffffffff1660e01b8152600401808273ffffffffffffffffffffffffffffffffffffffff16815260200191505060206040518083038186803b15801561401a57600080fd5b505afa15801561402e573d6000803e3d6000fd5b505050506040513d602081101561404457600080fd5b81019080805190602001909291905050506040518363ffffffff1660e01b8152600401808373ffffffffffffffffffffffffffffffffffffffff16815260200182815260200192505050602060405180830381600087803b1580156140a857600080fd5b505af11580156140bc573d6000803e3d6000fd5b505050506040513d60208110156140d257600080fd5b810190808051906020019092919050505050600860009054906101000a900473ffffffffffffffffffffffffffffffffffffffff1673ffffffffffffffffffffffffffffffffffffffff166329605e77826040518263ffffffff1660e01b8152600401808273ffffffffffffffffffffffffffffffffffffffff168152602001915050600060405180830381600087803b15801561416f57600080fd5b505af1158015614183573d6000803e3d6000fd5b50505050600860009054906101000a900473ffffffffffffffffffffffffffffffffffffffff1673ffffffffffffffffffffffffffffffffffffffff1663f2fde38b826040518263ffffffff1660e01b8152600401808273ffffffffffffffffffffffffffffffffffffffff168152602001915050600060405180830381600087803b15801561421257600080fd5b505af1158015614226573d6000803e3d6000fd5b50505050600860009054906101000a900473ffffffffffffffffffffffffffffffffffffffff1673ffffffffffffffffffffffffffffffffffffffff1663a9059cbb82600860009054906101000a900473ffffffffffffffffffffffffffffffffffffffff1673ffffffffffffffffffffffffffffffffffffffff166370a08231306040518263ffffffff1660e01b8152600401808273ffffffffffffffffffffffffffffffffffffffff16815260200191505060206040518083038186803b1580156142f257600080fd5b505afa158015614306573d6000803e3d6000fd5b505050506040513d602081101561431c57600080fd5b81019080805190602001909291905050506040518363ffffffff1660e01b8152600401808373ffffffffffffffffffffffffffffffffffffffff16815260200182815260200192505050602060405180830381600087803b15801561438057600080fd5b505af1158015614394573d6000803e3d6000fd5b505050506040513d60208110156143aa57600080fd5b810190808051906020019092919050505050600960009054906101000a900473ffffffffffffffffffffffffffffffffffffffff1673ffffffffffffffffffffffffffffffffffffffff166329605e77826040518263ffffffff1660e01b8152600401808273ffffffffffffffffffffffffffffffffffffffff168152602001915050600060405180830381600087803b15801561444757600080fd5b505af115801561445b573d6000803e3d6000fd5b50505050600960009054906101000a900473ffffffffffffffffffffffffffffffffffffffff1673ffffffffffffffffffffffffffffffffffffffff1663f2fde38b826040518263ffffffff1660e01b8152600401808273ffffffffffffffffffffffffffffffffffffffff168152602001915050600060405180830381600087803b1580156144ea57600080fd5b505af11580156144fe573d6000803e3d6000fd5b50505050600960009054906101000a900473ffffffffffffffffffffffffffffffffffffffff1673ffffffffffffffffffffffffffffffffffffffff1663a9059cbb82600960009054906101000a900473ffffffffffffffffffffffffffffffffffffffff1673ffffffffffffffffffffffffffffffffffffffff166370a08231306040518263ffffffff1660e01b8152600401808273ffffffffffffffffffffffffffffffffffffffff16815260200191505060206040518083038186803b1580156145ca57600080fd5b505afa1580156145de573d6000803e3d6000fd5b505050506040513d60208110156145f457600080fd5b81019080805190602001909291905050506040518363ffffffff1660e01b8152600401808373ffffffffffffffffffffffffffffffffffffffff16815260200182815260200192505050602060405180830381600087803b15801561465857600080fd5b505af115801561466c573d6000803e3d6000fd5b505050506040513d602081101561468257600080fd5b8101908080519060200190929190505050506001600660006101000a81548160ff0219169083151502179055508073ffffffffffffffffffffffffffffffffffffffff167f0caca70b66aed56b0630989a049110023c5a3f37e0ea4b6ce96fc747663f3ebc60405160405180910390a250565b600f5481565b6000600554600454141561471857614711611546565b9050614736565b6147336001614725611546565b6149cf90919063ffffffff16565b90505b90565b614741614ea7565b73ffffffffffffffffffffffffffffffffffffffff16600160009054906101000a900473ffffffffffffffffffffffffffffffffffffffff1673ffffffffffffffffffffffffffffffffffffffff1614614803576040517f08c379a00000000000000000000000000000000000000000000000000000000081526004018080602001828103825260208152602001807f4f776e61626c653a2063616c6c6572206973206e6f7420746865206f776e657281525060200191505060405180910390fd5b600073ffffffffffffffffffffffffffffffffffffffff168173ffffffffffffffffffffffffffffffffffffffff161415614889576040517f08c379a000000000000000000000000000000000000000000000000000000000815260040180806020018281038252602681526020018061565a6026913960400191505060405180910390fd5b8073ffffffffffffffffffffffffffffffffffffffff16600160009054906101000a900473ffffffffffffffffffffffffffffffffffffffff1673ffffffffffffffffffffffffffffffffffffffff167f8be0079c531659141344cd1fd0a4f28419497f9722a3daafe3b4186f6b6457e060405160405180910390a380600160006101000a81548173ffffffffffffffffffffffffffffffffffffffff021916908373ffffffffffffffffffffffffffffffffffffffff16021790555050565b60008083141561495c57600090506149c9565b600082840290508284828161496d57fe5b04146149c4576040517f08c379a00000000000000000000000000000000000000000000000000000000081526004018080602001828103825260218152602001806157326021913960400191505060405180910390fd5b809150505b92915050565b600080828401905083811015614a4d576040517f08c379a000000000000000000000000000000000000000000000000000000000815260040180806020018281038252601b8152602001807f536166654d6174683a206164646974696f6e206f766572666c6f77000000000081525060200191505060405180910390fd5b8091505092915050565b6000614a9983836040518060400160405280601a81526020017f536166654d6174683a206469766973696f6e206279207a65726f0000000000008152506151b3565b905092915050565b600080600043815260200190815260200160002060003273ffffffffffffffffffffffffffffffffffffffff1673ffffffffffffffffffffffffffffffffffffffff16815260200190815260200160002060009054906101000a900460ff16905090565b600080600043815260200190815260200160002060003373ffffffffffffffffffffffffffffffffffffffff1673ffffffffffffffffffffffffffffffffffffffff16815260200190815260200160002060009054906101000a900460ff16905090565b60008173ffffffffffffffffffffffffffffffffffffffff16633ddac953600760009054906101000a900473ffffffffffffffffffffffffffffffffffffffff16670de0b6b3a76400006040518363ffffffff1660e01b8152600401808373ffffffffffffffffffffffffffffffffffffffff1681526020018281526020019250505060206040518083038186803b158015614c0457600080fd5b505afa925050508015614c3857506040513d6020811015614c2457600080fd5b810190808051906020019092919050505060015b614c8d576040517f08c379a00000000000000000000000000000000000000000000000000000000081526004018080602001828103825260368152602001806157536036913960400191505060405180910390fd5b80915050919050565b6000818310614ca55781614ca7565b825b905092915050565b6000614cf183836040518060400160405280601e81526020017f536166654d6174683a207375627472616374696f6e206f766572666c6f770000815250615279565b905092915050565b614d968363a9059cbb60e01b8484604051602401808373ffffffffffffffffffffffffffffffffffffffff16815260200182815260200192505050604051602081830303815290604052907bffffffffffffffffffffffffffffffffffffffffffffffffffffffff19166020820180517bffffffffffffffffffffffffffffffffffffffffffffffffffffffff8381831617835250505050615339565b505050565b600b60009054906101000a900473ffffffffffffffffffffffffffffffffffffffff1673ffffffffffffffffffffffffffffffffffffffff1663a2e620456040518163ffffffff1660e01b8152600401600060405180830381600087803b158015614e0557600080fd5b505af1925050508015614e16575060015b614e1f57614e20565b5b600c60009054906101000a900473ffffffffffffffffffffffffffffffffffffffff1673ffffffffffffffffffffffffffffffffffffffff1663a2e620456040518163ffffffff1660e01b8152600401600060405180830381600087803b158015614e8a57600080fd5b505af1925050508015614e9b575060015b614ea457614ea5565b5b565b600033905090565b600073ffffffffffffffffffffffffffffffffffffffff168173ffffffffffffffffffffffffffffffffffffffff161415614f35576040517f08c379a000000000000000000000000000000000000000000000000000000000815260040180806020018281038252602d8152602001806156e0602d913960400191505060405180910390fd5b8073ffffffffffffffffffffffffffffffffffffffff16600073ffffffffffffffffffffffffffffffffffffffff167f74da04524d50c64947f5dd5381ef1a4dca5cba8ed1d816243f9e48aa0b5617ed60405160405180910390a380600260006101000a81548173ffffffffffffffffffffffffffffffffffffffff021916908373ffffffffffffffffffffffffffffffffffffffff16021790555050565b60008114806150a2575060008373ffffffffffffffffffffffffffffffffffffffff1663dd62ed3e30856040518363ffffffff1660e01b8152600401808373ffffffffffffffffffffffffffffffffffffffff1681526020018273ffffffffffffffffffffffffffffffffffffffff1681526020019250505060206040518083038186803b15801561506557600080fd5b505afa158015615079573d6000803e3d6000fd5b505050506040513d602081101561508f57600080fd5b8101908080519060200190929190505050145b6150f7576040517f08c379a000000000000000000000000000000000000000000000000000000000815260040180806020018281038252603681526020018061582d6036913960400191505060405180910390fd5b6151948363095ea7b360e01b8484604051602401808373ffffffffffffffffffffffffffffffffffffffff16815260200182815260200192505050604051602081830303815290604052907bffffffffffffffffffffffffffffffffffffffffffffffffffffffff19166020820180517bffffffffffffffffffffffffffffffffffffffffffffffffffffffff8381831617835250505050615339565b505050565b6000818310156151a957816151ab565b825b905092915050565b6000808311829061525f576040517f08c379a00000000000000000000000000000000000000000000000000000000081526004018080602001828103825283818151815260200191508051906020019080838360005b83811015615224578082015181840152602081019050615209565b50505050905090810190601f1680156152515780820380516001836020036101000a031916815260200191505b509250505060405180910390fd5b50600083858161526b57fe5b049050809150509392505050565b6000838311158290615326576040517f08c379a00000000000000000000000000000000000000000000000000000000081526004018080602001828103825283818151815260200191508051906020019080838360005b838110156152eb5780820151818401526020810190506152d0565b50505050905090810190601f1680156153185780820380516001836020036101000a031916815260200191505b509250505060405180910390fd5b5060008385039050809150509392505050565b606061539b826040518060400160405280602081526020017f5361666545524332303a206c6f772d6c6576656c2063616c6c206661696c65648152508573ffffffffffffffffffffffffffffffffffffffff166154289092919063ffffffff16565b9050600081511115615423578080602001905160208110156153bc57600080fd5b8101908080519060200190929190505050615422576040517f08c379a000000000000000000000000000000000000000000000000000000000815260040180806020018281038252602a8152602001806157dd602a913960400191505060405180910390fd5b5b505050565b60606154378484600085615440565b90509392505050565b606061544b85615646565b6154bd576040517f08c379a000000000000000000000000000000000000000000000000000000000815260040180806020018281038252601d8152602001807f416464726573733a2063616c6c20746f206e6f6e2d636f6e747261637400000081525060200191505060405180910390fd5b600060608673ffffffffffffffffffffffffffffffffffffffff1685876040518082805190602001908083835b6020831061550d57805182526020820191506020810190506020830392506154ea565b6001836020036101000a03801982511681845116808217855250505050505090500191505060006040518083038185875af1925050503d806000811461556f576040519150601f19603f3d011682016040523d82523d6000602084013e615574565b606091505b5091509150811561558957809250505061563e565b60008151111561559c5780518082602001fd5b836040517f08c379a00000000000000000000000000000000000000000000000000000000081526004018080602001828103825283818151815260200191508051906020019080838360005b838110156156035780820151818401526020810190506155e8565b50505050905090810190601f1680156156305780820380516001836020036101000a031916815260200191505b509250505060405180910390fd5b949350505050565b600080823b90506000811191505091905056fe4f776e61626c653a206e6577206f776e657220697320746865207a65726f206164647265737354726561737572793a2063616e6e6f742072656465656d20626f6e64732077697468207a65726f20616d6f756e7454726561737572793a20636173685072696365206e6f7420656c696769626c6520666f7220626f6e642070757263686173656f70657261746f723a207a65726f206164647265737320676976656e20666f72206e6577206f70657261746f7254726561737572793a20747265617375727920686173206e6f206d6f726520627564676574536166654d6174683a206d756c7469706c69636174696f6e206f766572666c6f7754726561737572793a206661696c656420746f20636f6e73756c7420636173682070726963652066726f6d20746865206f7261636c6554726561737572793a2063616e6e6f7420707572636861736520626f6e64732077697468207a65726f20616d6f756e746f70657261746f723a2063616c6c6572206973206e6f7420746865206f70657261746f725361666545524332303a204552433230206f7065726174696f6e20646964206e6f742073756363656564436f6e747261637447756172643a206f6e6520626c6f636b2c206f6e652066756e6374696f6e5361666545524332303a20617070726f76652066726f6d206e6f6e2d7a65726f20746f206e6f6e2d7a65726f20616c6c6f77616e6365a264697066735822122056512b7c1e1063769d44e9d5e4b3a6ee498649c5438b5c71a2ab73c7a608f6d164736f6c634300060c0033536166654d6174683a206d756c7469706c69636174696f6e206f766572666c6f77",
  "immutableReferences": {},
  "source": "/**\n  * Fat Cash Treasury contract\n  * Realization function:\n  * 1. Obtain the FAC price through the oracle. According to the different FAC price, use FAC to buy FAB, or redeem FAB to obtain FAC\n  * 2. According to different FAC prices, issue additional FACs and allocate the newly issued FACs to the fund treasury boardroom\n  * Note: TimBear 20210107\n*/\n\npragma solidity ^0.6.0;\n\nimport '@openzeppelin/contracts/math/Math.sol';\nimport '@openzeppelin/contracts/token/ERC20/IERC20.sol';\nimport '@openzeppelin/contracts/token/ERC20/SafeERC20.sol';\nimport '@openzeppelin/contracts/utils/ReentrancyGuard.sol';\n\nimport './interfaces/IOracle.sol';\nimport './interfaces/IBoardroom.sol';\nimport './interfaces/IFatAsset.sol';\nimport './interfaces/ISimpleERCFund.sol';\nimport './lib/Babylonian.sol';\nimport './lib/FixedPoint.sol';\nimport './lib/Safe112.sol';\nimport './owner/Operator.sol';\nimport './utils/Epoch.sol';\nimport './utils/ContractGuard.sol';\n\n/**\n * @title Basis Cash Treasury contract\n * @notice Monetary policy logic to adjust supplies of basis cash assets\n * @author Summer Smith & Rick Sanchez\n */\ncontract Treasury is ContractGuard, Epoch {\n    using FixedPoint for *;\n    using SafeERC20 for IERC20;\n    using Address for address;\n    using SafeMath for uint256;\n    using Safe112 for uint112;\n\n    /* ========== STATE VARIABLES ========== */\n\n    // ========== FLAGS\n    bool public migrated = false;\n    bool public initialized = false;\n\n    // ========== CORE\n    address public fund;\n    address public cash;\n    address public bond;\n    address public share;\n    address public boardroom;\n\n    address public bondOracle;\n    address public seigniorageOracle;\n\n    // ========== PARAMS\n    uint256 public cashPriceOne;\n    uint256 public cashPriceCeiling;\n    uint256 public bondDepletionFloor;\n    uint256 private accumulatedSeigniorage = 0;\n    uint256 public fundAllocationRate = 2; // %\n\n    /* ========== CONSTRUCTOR ========== */\n    /**\n    *@notice constructor\n     */\n    constructor(\n        address _cash,\n        address _bond,\n        address _share,\n        address _bondOracle,\n        address _seigniorageOracle,\n        address _boardroom,\n        address _fund,\n        uint256 _startTime\n    ) public Epoch(1 days, _startTime, 0) {\n        cash = _cash;\n        bond = _bond;\n        share = _share;\n        bondOracle = _bondOracle;\n        seigniorageOracle = _seigniorageOracle;\n\n        boardroom = _boardroom;\n        fund = _fund;\n\n        //The base price is 1\n        cashPriceOne = 10**18;\n        //cashPriceCeiling is 1.05\n        cashPriceCeiling = uint256(105).mul(cashPriceOne).div(10**2);\n        bondDepletionFloor = uint256(1000).mul(cashPriceOne);\n    }\n\n    /* =================== Modifier =================== */\n\n    //Modifier: Need to complete Migration, that is complete the replacement of Operator to this contract\n    modifier checkMigration {\n        require(!migrated, 'Treasury: migrated');\n\n        _;\n    }\n\n    //Modifier: Operator of the contract cash , bond , share boardroom must be this contract\n    modifier checkOperator {\n        require(\n            IFatAsset(cash).operator() == address(this) &&\n            IFatAsset(bond).operator() == address(this) &&\n            IFatAsset(share).operator() == address(this) &&\n                Operator(boardroom).operator() == address(this),\n            'Treasury: need more permission'\n        );\n\n        _;\n    }\n\n    /* ========== VIEW FUNCTIONS ========== */\n    //Some read-only methods\n\n    // budget\n    function getReserve() public view returns (uint256) {\n        return accumulatedSeigniorage;\n    }\n\n    // oracle\n    function getBondOraclePrice() public view returns (uint256) {\n        return _getCashPrice(bondOracle);\n    }\n\n    function getSeigniorageOraclePrice() public view returns (uint256) {\n        return _getCashPrice(seigniorageOracle);\n    }\n\n    /**\n     *notice:Choose different oracles to feed prices according to different scenarios\n     */\n    function _getCashPrice(address oracle) internal view returns (uint256) {\n        try IOracle(oracle).consult(cash, 1e18) returns (uint256 price) {\n            return price;\n        } catch {\n            revert('Treasury: failed to consult cash price from the oracle');\n        }\n    }\n\n    /* ========== GOVERNANCE ========== */\n    /**\n     *@notice Contract initialization\n     */\n    function initialize() public checkOperator {\n        require(!initialized, 'Treasury: initialized');\n\n        // burn all of it's balance\n        // Destroy all FAC in this contract\n        IFatAsset(cash).burn(IERC20(cash).balanceOf(address(this)));\n\n        // set accumulatedSeigniorage to it's balance\n        // Set the cumulative reserve amount to the initial balance of the FAC quantity of this contract, which is 0\n        accumulatedSeigniorage = IERC20(cash).balanceOf(address(this));\n\n        initialized = true;\n        //Trigger contract initialization event\n        emit Initialized(msg.sender, block.number);\n    }\n\n    /**\n      *@notice Change Operator to target (this contract), only the current Operator has the right to change\n      */\n    function migrate(address target) public onlyOperator checkOperator {\n        require(!migrated, 'Treasury: migrated');\n\n        // cash\n        // Replace the Operator of the FAC contract, the Owner is the target, and send the FAC of the original contract to the target\n        Operator(cash).transferOperator(target);\n        Operator(cash).transferOwnership(target);\n        IERC20(cash).transfer(target, IERC20(cash).balanceOf(address(this)));\n\n        // bond\n        // Replace the Operator of the FAB contract, the Owner is the target, and send the FAB of the original contract to the target\n        Operator(bond).transferOperator(target);\n        Operator(bond).transferOwnership(target);\n        IERC20(bond).transfer(target, IERC20(bond).balanceOf(address(this)));\n\n        // share\n        // Replace the Operator of the FAS contract with Owner as the target, and send the FAS of the original contract to the target\n        Operator(share).transferOperator(target);\n        Operator(share).transferOwnership(target);\n        IERC20(share).transfer(target, IERC20(share).balanceOf(address(this)));\n\n        migrated = true;\n        // Trigger ownership transfer event\n        emit Migration(target);\n    }\n\n    function setFund(address newFund) public onlyOperator {\n        // Set up developer contributor bonus pool\n        fund = newFund;\n        // Trigger replacement of developer contributor bonus pool event\n        emit ContributionPoolChanged(msg.sender, newFund);\n    }\n\n    function setFundAllocationRate(uint256 rate) public onlyOperator {\n        // Set the bonus ratio of developer contributors\n        fundAllocationRate = rate;\n        // Trigger the replacement of developer contributor bonus ratio event\n        emit ContributionPoolRateChanged(msg.sender, rate);\n    }\n\n    /* ========== MUTABLE FUNCTIONS ========== */\n\n    /**\n      *@notice Get FAC price through oracle\n      */\n    function _updateCashPrice() internal {\n        try IOracle(bondOracle).update()  {} catch {}\n        try IOracle(seigniorageOracle).update()  {} catch {}\n    }\n\n    /**\n      *@notice When the FAC price is lower than 1, use FAC to buy FAB\n      */\n    function buyBonds(uint256 amount, uint256 targetPrice)\n        external\n        onlyOneBlock\n        checkMigration\n        checkStartTime\n        checkOperator\n    {\n        require(amount > 0, 'Treasury: cannot purchase bonds with zero amount');\n\n        //Get FAC price through oracle\n        uint256 cashPrice = _getCashPrice(bondOracle);\n        //FAC price must be equal to target price\n        require(cashPrice == targetPrice, 'Treasury: cash price moved');\n        // Need FAC price less than 1\n        require(\n            cashPrice < cashPriceOne, // price < $1\n            'Treasury: cashPrice not eligible for bond purchase'\n        );\n\n        uint256 bondPrice = cashPrice;\n        //Destroy FAC\n        IFatAsset(cash).burnFrom(msg.sender, amount);\n        //Casting FAB: Burning 1 FAC can exchange (1/bondPrice) FAB\n        IFatAsset(bond).mint(msg.sender, amount.mul(1e18).div(bondPrice));\n        //Update FAC price\n        _updateCashPrice();\n        //Trigger purchase FAB event\n        emit BoughtBonds(msg.sender, amount);\n    }\n\n    /**\n      *@notice When the FAC price is greater than 1.05, use FAB to exchange for FAC\n      */\n    function redeemBonds(uint256 amount, uint256 targetPrice)\n        external\n        onlyOneBlock\n        checkMigration\n        checkStartTime\n        checkOperator\n    {\n        require(amount > 0, 'Treasury: cannot redeem bonds with zero amount');\n\n        // Get the FAC price through the oracle\n        uint256 cashPrice = _getCashPrice(bondOracle);\n        // FAC price must be equal to target price\n        require(cashPrice == targetPrice, 'Treasury: cash price moved');\n        // Need FAC price to be greater than cashPriceCeiling, which is 1.05\n        require(\n            cashPrice > cashPriceCeiling, // price > $1.05\n            'Treasury: cashPrice not eligible for bond purchase'\n        );\n        // The number of FACs in this contract needs to be greater than the number of FABs to be redeemed\n        require(\n            IERC20(cash).balanceOf(address(this)) >= amount,\n            'Treasury: treasury has no more budget'\n        );\n        // Cumulative reserves = Cumulative reserves-the number of FABs to be redeemed, i.e. 1FAB in exchange for 1FAC\n        accumulatedSeigniorage = accumulatedSeigniorage.sub(\n            Math.min(accumulatedSeigniorage, amount)\n        );\n\n        // Destroy FAB\n        IFatAsset(bond).burnFrom(msg.sender, amount);\n        // Send FAC\n        IERC20(cash).safeTransfer(msg.sender, amount);\n        // Update FAC price\n        _updateCashPrice();\n\n        //Trigger the redemption FAB event\n        emit RedeemedBonds(msg.sender, amount);\n    }\n\n    /**\n      *@notice Issuing additional FAC and assigning FAC\n      */\n    function allocateSeigniorage()\n        external\n        onlyOneBlock\n        checkMigration\n        checkStartTime\n        checkEpoch\n        checkOperator\n    {\n        // Update FAC price\n        _updateCashPrice();\n        uint256 cashPrice = _getCashPrice(seigniorageOracle);\n        // Determine when the FAC price is less than or equal to cashPriceCeiling, which is 1.05, then return, and no additional FAC will be issued\n        if (cashPrice <= cashPriceCeiling) {\n            return; // just advance epoch instead revert\n        }\n\n        // circulating supply\n        //Number of FAC in circulation = total supply of FAC-cumulative reserve\n        uint256 cashSupply = IERC20(cash).totalSupply().sub(\n            accumulatedSeigniorage\n        );\n        //Additional issuance ratio = FAC price-1\n        uint256 percentage = cashPrice.sub(cashPriceOne);\n        //The number of newly minted FACs = the number of circulating FACs * the additional issuance ratio\n        uint256 seigniorage = cashSupply.mul(percentage).div(1e18);\n        //Newly minted FAC and sent to this contract\n        IFatAsset(cash).mint(address(this), seigniorage);\n\n        // ======================== BIP-3\n        // Fund reserve = number of newly minted FAC * fundAllocationRate / 100 = number of newly minted FAC * 2%\n        uint256 fundReserve = seigniorage.mul(fundAllocationRate).div(100);\n        if (fundReserve > 0) {\n            IERC20(cash).safeApprove(fund, fundReserve);\n            ISimpleERCFund(fund).deposit(\n                cash,\n                fundReserve,\n                'Treasury: Seigniorage Allocation'\n            );\n            // Trigger the event that FAC has been issued to the development contribution pool\n            emit ContributionPoolFunded(now, fundReserve);\n        }\n        //The number of newly minted FAC = the number of newly minted FAC-fund reserve\n        seigniorage = seigniorage.sub(fundReserve);\n\n        // ======================== BIP-4\n        // New Treasury Reserve = min (the number of newly minted FAC, the total supply of FAB-the cumulative FAC reserve)\n        // That is the newly minted FAC must be reserved for FAB first, and the rest can be allocated to the Boardroom\n        uint256 treasuryReserve = Math.min(\n            seigniorage,\n            IERC20(bond).totalSupply().sub(accumulatedSeigniorage)\n        );\n        if (treasuryReserve > 0) {\n            // Cumulative FAC Reserves = Cumulative FAC Reserves + New Treasury Reserves\n            accumulatedSeigniorage = accumulatedSeigniorage.add(\n                treasuryReserve\n            );\n            //Trigger the issued treasury reserve event\n            emit TreasuryFunded(now, treasuryReserve);\n        }\n\n        // boardroom\n        //New FAC Reserves of the Board of Directors = Newly Minted FAC-New Treasury Reserves\n        uint256 boardroomReserve = seigniorage.sub(treasuryReserve);\n        if (boardroomReserve > 0) {\n            IERC20(cash).safeApprove(boardroom, boardroomReserve);\n            // Call the allocateSeigniorage method of the Boardroom contract\n            IBoardroom(boardroom).allocateSeigniorage(boardroomReserve);\n            // Trigger the issue of funds to the board of directors event\n            emit BoardroomFunded(now, boardroomReserve);\n        }\n    }\n\n    // GOV\n    event Initialized(address indexed executor, uint256 at);\n    event Migration(address indexed target);\n    event ContributionPoolChanged(address indexed operator, address newFund);\n    event ContributionPoolRateChanged(\n        address indexed operator,\n        uint256 newRate\n    );\n\n    // CORE\n    event RedeemedBonds(address indexed from, uint256 amount);\n    event BoughtBonds(address indexed from, uint256 amount);\n    event TreasuryFunded(uint256 timestamp, uint256 seigniorage);\n    event BoardroomFunded(uint256 timestamp, uint256 seigniorage);\n    event ContributionPoolFunded(uint256 timestamp, uint256 seigniorage);\n}\n",
  "sourcePath": "/Volumes/Development/Workspace/farmbria/fat-protocol/contracts/Treasury.sol",
  "compiler": {
    "name": "solc",
    "version": "0.6.12+commit.27d51765.Emscripten.clang"
  },
  "schemaVersion": "3.3.3",
  "updatedAt": "2021-01-20T08:54:32.026Z",
  "networkType": "ethereum",
  "devdoc": {
    "author": "Summer Smith & Rick Sanchez",
    "kind": "dev",
    "methods": {
      "owner()": {
        "details": "Returns the address of the current owner."
      },
      "renounceOwnership()": {
        "details": "Leaves the contract without owner. It will not be possible to call `onlyOwner` functions anymore. Can only be called by the current owner. NOTE: Renouncing ownership will leave the contract without an owner, thereby removing any functionality that is only available to the owner."
      },
      "transferOwnership(address)": {
        "details": "Transfers ownership of the contract to a new account (`newOwner`). Can only be called by the current owner."
      }
    },
    "title": "Basis Cash Treasury contract",
    "version": 1
  },
  "userdoc": {
    "kind": "user",
    "methods": {
      "allocateSeigniorage()": {
        "notice": "Issuing additional FAC and assigning FAC"
      },
      "buyBonds(uint256,uint256)": {
        "notice": "When the FAC price is lower than 1, use FAC to buy FAB"
      },
      "constructor": "constructor",
      "initialize()": {
        "notice": "Contract initialization"
      },
      "migrate(address)": {
        "notice": "Change Operator to target (this contract), only the current Operator has the right to change"
      },
      "redeemBonds(uint256,uint256)": {
        "notice": "When the FAC price is greater than 1.05, use FAB to exchange for FAC"
      }
    },
    "notice": "Monetary policy logic to adjust supplies of basis cash assets",
    "version": 1
  }
}