{
  "contractName": "USDTFATLPTokenCashPool",
  "abi": [
    {
      "inputs": [
        {
          "internalType": "address",
          "name": "fatCash_",
          "type": "address"
        },
        {
          "internalType": "address",
          "name": "fatToken_",
          "type": "address"
        },
        {
          "internalType": "address",
          "name": "lptoken_",
          "type": "address"
        },
        {
          "internalType": "uint256",
          "name": "starttime_",
          "type": "uint256"
        }
      ],
      "stateMutability": "nonpayable",
      "type": "constructor"
    },
    {
      "anonymous": false,
      "inputs": [
        {
          "indexed": true,
          "internalType": "address",
          "name": "previousOwner",
          "type": "address"
        },
        {
          "indexed": true,
          "internalType": "address",
          "name": "newOwner",
          "type": "address"
        }
      ],
      "name": "OwnershipTransferred",
      "type": "event"
    },
    {
      "anonymous": false,
      "inputs": [
        {
          "indexed": false,
          "internalType": "uint256",
          "name": "reward",
          "type": "uint256"
        }
      ],
      "name": "RewardAdded",
      "type": "event"
    },
    {
      "anonymous": false,
      "inputs": [
        {
          "indexed": true,
          "internalType": "address",
          "name": "user",
          "type": "address"
        },
        {
          "indexed": false,
          "internalType": "uint256",
          "name": "reward",
          "type": "uint256"
        }
      ],
      "name": "RewardPaid",
      "type": "event"
    },
    {
      "anonymous": false,
      "inputs": [
        {
          "indexed": true,
          "internalType": "address",
          "name": "user",
          "type": "address"
        },
        {
          "indexed": false,
          "internalType": "uint256",
          "name": "amount",
          "type": "uint256"
        }
      ],
      "name": "Staked",
      "type": "event"
    },
    {
      "anonymous": false,
      "inputs": [
        {
          "indexed": true,
          "internalType": "address",
          "name": "user",
          "type": "address"
        },
        {
          "indexed": false,
          "internalType": "uint256",
          "name": "amount",
          "type": "uint256"
        }
      ],
      "name": "Withdrawn",
      "type": "event"
    },
    {
      "inputs": [],
      "name": "DURATION",
      "outputs": [
        {
          "internalType": "uint256",
          "name": "",
          "type": "uint256"
        }
      ],
      "stateMutability": "view",
      "type": "function"
    },
    {
      "inputs": [
        {
          "internalType": "address",
          "name": "account",
          "type": "address"
        }
      ],
      "name": "balanceOf",
      "outputs": [
        {
          "internalType": "uint256",
          "name": "",
          "type": "uint256"
        }
      ],
      "stateMutability": "view",
      "type": "function"
    },
    {
      "inputs": [],
      "name": "fatCash",
      "outputs": [
        {
          "internalType": "contract IERC20",
          "name": "",
          "type": "address"
        }
      ],
      "stateMutability": "view",
      "type": "function"
    },
    {
      "inputs": [
        {
          "internalType": "address",
          "name": "",
          "type": "address"
        }
      ],
      "name": "fatRewards",
      "outputs": [
        {
          "internalType": "uint256",
          "name": "",
          "type": "uint256"
        }
      ],
      "stateMutability": "view",
      "type": "function"
    },
    {
      "inputs": [],
      "name": "fatToken",
      "outputs": [
        {
          "internalType": "contract IERC20",
          "name": "",
          "type": "address"
        }
      ],
      "stateMutability": "view",
      "type": "function"
    },
    {
      "inputs": [],
      "name": "lastUpdateTime",
      "outputs": [
        {
          "internalType": "uint256",
          "name": "",
          "type": "uint256"
        }
      ],
      "stateMutability": "view",
      "type": "function"
    },
    {
      "inputs": [],
      "name": "lpt",
      "outputs": [
        {
          "internalType": "contract IERC20",
          "name": "",
          "type": "address"
        }
      ],
      "stateMutability": "view",
      "type": "function"
    },
    {
      "inputs": [],
      "name": "owner",
      "outputs": [
        {
          "internalType": "address",
          "name": "",
          "type": "address"
        }
      ],
      "stateMutability": "view",
      "type": "function"
    },
    {
      "inputs": [],
      "name": "periodFinish",
      "outputs": [
        {
          "internalType": "uint256",
          "name": "",
          "type": "uint256"
        }
      ],
      "stateMutability": "view",
      "type": "function"
    },
    {
      "inputs": [],
      "name": "renounceOwnership",
      "outputs": [],
      "stateMutability": "nonpayable",
      "type": "function"
    },
    {
      "inputs": [],
      "name": "rewardDistribution",
      "outputs": [
        {
          "internalType": "address",
          "name": "",
          "type": "address"
        }
      ],
      "stateMutability": "view",
      "type": "function"
    },
    {
      "inputs": [],
      "name": "rewardPerTokenStored",
      "outputs": [
        {
          "internalType": "uint256",
          "name": "",
          "type": "uint256"
        }
      ],
      "stateMutability": "view",
      "type": "function"
    },
    {
      "inputs": [],
      "name": "rewardRate",
      "outputs": [
        {
          "internalType": "uint256",
          "name": "",
          "type": "uint256"
        }
      ],
      "stateMutability": "view",
      "type": "function"
    },
    {
      "inputs": [],
      "name": "reward_per_block",
      "outputs": [
        {
          "internalType": "uint256",
          "name": "",
          "type": "uint256"
        }
      ],
      "stateMutability": "view",
      "type": "function"
    },
    {
      "inputs": [
        {
          "internalType": "address",
          "name": "",
          "type": "address"
        }
      ],
      "name": "rewards",
      "outputs": [
        {
          "internalType": "uint256",
          "name": "",
          "type": "uint256"
        }
      ],
      "stateMutability": "view",
      "type": "function"
    },
    {
      "inputs": [
        {
          "internalType": "address",
          "name": "_rewardDistribution",
          "type": "address"
        }
      ],
      "name": "setRewardDistribution",
      "outputs": [],
      "stateMutability": "nonpayable",
      "type": "function"
    },
    {
      "inputs": [],
      "name": "starttime",
      "outputs": [
        {
          "internalType": "uint256",
          "name": "",
          "type": "uint256"
        }
      ],
      "stateMutability": "view",
      "type": "function"
    },
    {
      "inputs": [],
      "name": "totalSupply",
      "outputs": [
        {
          "internalType": "uint256",
          "name": "",
          "type": "uint256"
        }
      ],
      "stateMutability": "view",
      "type": "function"
    },
    {
      "inputs": [
        {
          "internalType": "address",
          "name": "newOwner",
          "type": "address"
        }
      ],
      "name": "transferOwnership",
      "outputs": [],
      "stateMutability": "nonpayable",
      "type": "function"
    },
    {
      "inputs": [
        {
          "internalType": "address",
          "name": "",
          "type": "address"
        }
      ],
      "name": "userFatRewardDebtAtBlock",
      "outputs": [
        {
          "internalType": "uint256",
          "name": "",
          "type": "uint256"
        }
      ],
      "stateMutability": "view",
      "type": "function"
    },
    {
      "inputs": [
        {
          "internalType": "address",
          "name": "",
          "type": "address"
        }
      ],
      "name": "userRewardPerTokenPaid",
      "outputs": [
        {
          "internalType": "uint256",
          "name": "",
          "type": "uint256"
        }
      ],
      "stateMutability": "view",
      "type": "function"
    },
    {
      "inputs": [],
      "name": "lastTimeRewardApplicable",
      "outputs": [
        {
          "internalType": "uint256",
          "name": "",
          "type": "uint256"
        }
      ],
      "stateMutability": "view",
      "type": "function"
    },
    {
      "inputs": [
        {
          "internalType": "address",
          "name": "account",
          "type": "address"
        }
      ],
      "name": "lastBlockRewardApplicable",
      "outputs": [
        {
          "internalType": "uint256",
          "name": "",
          "type": "uint256"
        }
      ],
      "stateMutability": "view",
      "type": "function"
    },
    {
      "inputs": [],
      "name": "rewardPerToken",
      "outputs": [
        {
          "internalType": "uint256",
          "name": "",
          "type": "uint256"
        }
      ],
      "stateMutability": "view",
      "type": "function"
    },
    {
      "inputs": [
        {
          "internalType": "address",
          "name": "account",
          "type": "address"
        }
      ],
      "name": "earned",
      "outputs": [
        {
          "internalType": "uint256",
          "name": "",
          "type": "uint256"
        }
      ],
      "stateMutability": "view",
      "type": "function"
    },
    {
      "inputs": [
        {
          "internalType": "address",
          "name": "account",
          "type": "address"
        }
      ],
      "name": "earned2",
      "outputs": [
        {
          "internalType": "uint256",
          "name": "",
          "type": "uint256"
        }
      ],
      "stateMutability": "view",
      "type": "function"
    },
    {
      "inputs": [
        {
          "internalType": "uint256",
          "name": "amount",
          "type": "uint256"
        }
      ],
      "name": "stake",
      "outputs": [],
      "stateMutability": "nonpayable",
      "type": "function"
    },
    {
      "inputs": [
        {
          "internalType": "uint256",
          "name": "amount",
          "type": "uint256"
        }
      ],
      "name": "withdraw",
      "outputs": [],
      "stateMutability": "nonpayable",
      "type": "function"
    },
    {
      "inputs": [],
      "name": "exit",
      "outputs": [],
      "stateMutability": "nonpayable",
      "type": "function"
    },
    {
      "inputs": [],
      "name": "getReward",
      "outputs": [],
      "stateMutability": "nonpayable",
      "type": "function"
    },
    {
      "inputs": [
        {
          "internalType": "uint256",
          "name": "reward",
          "type": "uint256"
        }
      ],
      "name": "notifyRewardAmount",
      "outputs": [],
      "stateMutability": "nonpayable",
      "type": "function"
    }
  ],
  "bytecode": "0x60806040526206978060075560006009556000600a55600c600f5534801561002657600080fd5b5060405162002b2238038062002b228339818101604052608081101561004b57600080fd5b8101908080519060200190929190805190602001909291908051906020019092919080519060200190929190505050600061008a6101fb60201b60201c565b905080600360006101000a81548173ffffffffffffffffffffffffffffffffffffffff021916908373ffffffffffffffffffffffffffffffffffffffff1602179055508073ffffffffffffffffffffffffffffffffffffffff16600073ffffffffffffffffffffffffffffffffffffffff167f8be0079c531659141344cd1fd0a4f28419497f9722a3daafe3b4186f6b6457e060405160405180910390a35083600560006101000a81548173ffffffffffffffffffffffffffffffffffffffff021916908373ffffffffffffffffffffffffffffffffffffffff16021790555082600660006101000a81548173ffffffffffffffffffffffffffffffffffffffff021916908373ffffffffffffffffffffffffffffffffffffffff160217905550816000806101000a81548173ffffffffffffffffffffffffffffffffffffffff021916908373ffffffffffffffffffffffffffffffffffffffff1602179055508060088190555050505050610203565b600033905090565b61290f80620002136000396000f3fe608060405234801561001057600080fd5b50600436106101e45760003560e01c80637b0a47ee1161010f578063c8f33c91116100a2578063e9fad8ee11610071578063e9fad8ee14610745578063ebe2b12b1461074f578063f2fde38b1461076d578063ff42cd5e146107b1576101e4565b8063c8f33c91146106b7578063cd3daf9d146106d5578063ce5fc8d0146106f3578063df136d6514610727576101e4565b80638c905f99116100de5780638c905f99146105df5780638da58897146106375780638da5cb5b14610655578063a694fc3a14610689576101e4565b80637b0a47ee146104f357806380faa57d14610511578063857d5d7a1461052f5780638b87634714610587576101e4565b80631be05289116101875780633d18b912116101565780633d18b9121461045357806370a082311461045d578063715018a6146104b557806372816eb1146104bf576101e4565b80631be05289146103a557806322650981146103c35780632e1a7d4d146103f75780633c6b16ab14610425576101e4565b80630b44d6fe116101c35780630b44d6fe146102f15780630d68b7611461030f578063101114cf1461035357806318160ddd14610387576101e4565b80628cc262146101e95780630700037d14610241578063080d9e4814610299575b600080fd5b61022b600480360360208110156101ff57600080fd5b81019080803573ffffffffffffffffffffffffffffffffffffffff169060200190929190505050610809565b6040518082815260200191505060405180910390f35b6102836004803603602081101561025757600080fd5b81019080803573ffffffffffffffffffffffffffffffffffffffff1690602001909291905050506108f0565b6040518082815260200191505060405180910390f35b6102db600480360360208110156102af57600080fd5b81019080803573ffffffffffffffffffffffffffffffffffffffff169060200190929190505050610908565b6040518082815260200191505060405180910390f35b6102f9610963565b6040518082815260200191505060405180910390f35b6103516004803603602081101561032557600080fd5b81019080803573ffffffffffffffffffffffffffffffffffffffff169060200190929190505050610969565b005b61035b610a77565b604051808273ffffffffffffffffffffffffffffffffffffffff16815260200191505060405180910390f35b61038f610a9d565b6040518082815260200191505060405180910390f35b6103ad610aa7565b6040518082815260200191505060405180910390f35b6103cb610aad565b604051808273ffffffffffffffffffffffffffffffffffffffff16815260200191505060405180910390f35b6104236004803603602081101561040d57600080fd5b8101908080359060200190929190505050610ad3565b005b6104516004803603602081101561043b57600080fd5b8101908080359060200190929190505050610d90565b005b61045b611122565b005b61049f6004803603602081101561047357600080fd5b81019080803573ffffffffffffffffffffffffffffffffffffffff169060200190929190505050611545565b6040518082815260200191505060405180910390f35b6104bd61158e565b005b6104c7611719565b604051808273ffffffffffffffffffffffffffffffffffffffff16815260200191505060405180910390f35b6104fb61173f565b6040518082815260200191505060405180910390f35b610519611745565b6040518082815260200191505060405180910390f35b6105716004803603602081101561054557600080fd5b81019080803573ffffffffffffffffffffffffffffffffffffffff169060200190929190505050611758565b6040518082815260200191505060405180910390f35b6105c96004803603602081101561059d57600080fd5b81019080803573ffffffffffffffffffffffffffffffffffffffff169060200190929190505050611770565b6040518082815260200191505060405180910390f35b610621600480360360208110156105f557600080fd5b81019080803573ffffffffffffffffffffffffffffffffffffffff169060200190929190505050611788565b6040518082815260200191505060405180910390f35b61063f6117a0565b6040518082815260200191505060405180910390f35b61065d6117a6565b604051808273ffffffffffffffffffffffffffffffffffffffff16815260200191505060405180910390f35b6106b56004803603602081101561069f57600080fd5b81019080803590602001909291905050506117d0565b005b6106bf611a8d565b6040518082815260200191505060405180910390f35b6106dd611a93565b6040518082815260200191505060405180910390f35b6106fb611b2b565b604051808273ffffffffffffffffffffffffffffffffffffffff16815260200191505060405180910390f35b61072f611b4f565b6040518082815260200191505060405180910390f35b61074d611b55565b005b610757611b70565b6040518082815260200191505060405180910390f35b6107af6004803603602081101561078357600080fd5b81019080803573ffffffffffffffffffffffffffffffffffffffff169060200190929190505050611b76565b005b6107f3600480360360208110156107c757600080fd5b81019080803573ffffffffffffffffffffffffffffffffffffffff169060200190929190505050611d86565b6040518082815260200191505060405180910390f35b60006108e9600e60008473ffffffffffffffffffffffffffffffffffffffff1673ffffffffffffffffffffffffffffffffffffffff168152602001908152602001600020546108db670de0b6b3a76400006108cd6108b6600d60008973ffffffffffffffffffffffffffffffffffffffff1673ffffffffffffffffffffffffffffffffffffffff168152602001908152602001600020546108a8611a93565b611e7d90919063ffffffff16565b6108bf88611545565b611ec790919063ffffffff16565b611f4d90919063ffffffff16565b611f9790919063ffffffff16565b9050919050565b600e6020528060005260406000206000915090505481565b600061095c601060008473ffffffffffffffffffffffffffffffffffffffff1673ffffffffffffffffffffffffffffffffffffffff1681526020019081526020016000205443611e7d90919063ffffffff16565b9050919050565b600f5481565b61097161201f565b73ffffffffffffffffffffffffffffffffffffffff16600360009054906101000a900473ffffffffffffffffffffffffffffffffffffffff1673ffffffffffffffffffffffffffffffffffffffff1614610a33576040517f08c379a00000000000000000000000000000000000000000000000000000000081526004018080602001828103825260208152602001807f4f776e61626c653a2063616c6c6572206973206e6f7420746865206f776e657281525060200191505060405180910390fd5b80600460006101000a81548173ffffffffffffffffffffffffffffffffffffffff021916908373ffffffffffffffffffffffffffffffffffffffff16021790555050565b600460009054906101000a900473ffffffffffffffffffffffffffffffffffffffff1681565b6000600154905090565b60075481565b600560009054906101000a900473ffffffffffffffffffffffffffffffffffffffff1681565b33610adc611a93565b600c81905550610aea611745565b600b81905550600073ffffffffffffffffffffffffffffffffffffffff168173ffffffffffffffffffffffffffffffffffffffff1614610c4757610b2d81610809565b600e60008373ffffffffffffffffffffffffffffffffffffffff1673ffffffffffffffffffffffffffffffffffffffff16815260200190815260200160002081905550600c54600d60008373ffffffffffffffffffffffffffffffffffffffff1673ffffffffffffffffffffffffffffffffffffffff16815260200190815260200160002081905550610bbf81611d86565b601160008373ffffffffffffffffffffffffffffffffffffffff1673ffffffffffffffffffffffffffffffffffffffff1681526020019081526020016000208190555043601060008373ffffffffffffffffffffffffffffffffffffffff1673ffffffffffffffffffffffffffffffffffffffff168152602001908152602001600020819055505b600854421015610cbf576040517f08c379a00000000000000000000000000000000000000000000000000000000081526004018080602001828103825260098152602001807f6e6f74207374617274000000000000000000000000000000000000000000000081525060200191505060405180910390fd5b60008211610d35576040517f08c379a00000000000000000000000000000000000000000000000000000000081526004018080602001828103825260118152602001807f43616e6e6f74207769746864726177203000000000000000000000000000000081525060200191505060405180910390fd5b610d3e82612027565b3373ffffffffffffffffffffffffffffffffffffffff167f7084f5476618d8e60b11ef0d7d3f06914655adb8793e28ff7f018d4c76d505d5836040518082815260200191505060405180910390a25050565b600460009054906101000a900473ffffffffffffffffffffffffffffffffffffffff1673ffffffffffffffffffffffffffffffffffffffff16610dd161201f565b73ffffffffffffffffffffffffffffffffffffffff1614610e3d576040517f08c379a000000000000000000000000000000000000000000000000000000000815260040180806020018281038252602181526020018061288f6021913960400191505060405180910390fd5b6000610e47611a93565b600c81905550610e55611745565b600b81905550600073ffffffffffffffffffffffffffffffffffffffff168173ffffffffffffffffffffffffffffffffffffffff1614610fb257610e9881610809565b600e60008373ffffffffffffffffffffffffffffffffffffffff1673ffffffffffffffffffffffffffffffffffffffff16815260200190815260200160002081905550600c54600d60008373ffffffffffffffffffffffffffffffffffffffff1673ffffffffffffffffffffffffffffffffffffffff16815260200190815260200160002081905550610f2a81611d86565b601160008373ffffffffffffffffffffffffffffffffffffffff1673ffffffffffffffffffffffffffffffffffffffff1681526020019081526020016000208190555043601060008373ffffffffffffffffffffffffffffffffffffffff1673ffffffffffffffffffffffffffffffffffffffff168152602001908152602001600020819055505b6008544211156110a5576009544210610fe557610fda60075483611f4d90919063ffffffff16565b600a81905550611047565b6000610ffc42600954611e7d90919063ffffffff16565b90506000611015600a5483611ec790919063ffffffff16565b905061103e6007546110308387611f9790919063ffffffff16565b611f4d90919063ffffffff16565b600a8190555050505b42600b8190555061106360075442611f9790919063ffffffff16565b6009819055507fde88a922e0d3b88b24e9623efeb464919c6bf9f66857a65e2bfcf2ce87a9433d826040518082815260200191505060405180910390a161111e565b6110ba60075483611f4d90919063ffffffff16565b600a81905550600854600b819055506110e0600754600854611f9790919063ffffffff16565b6009819055507fde88a922e0d3b88b24e9623efeb464919c6bf9f66857a65e2bfcf2ce87a9433d826040518082815260200191505060405180910390a15b5050565b3361112b611a93565b600c81905550611139611745565b600b81905550600073ffffffffffffffffffffffffffffffffffffffff168173ffffffffffffffffffffffffffffffffffffffff16146112965761117c81610809565b600e60008373ffffffffffffffffffffffffffffffffffffffff1673ffffffffffffffffffffffffffffffffffffffff16815260200190815260200160002081905550600c54600d60008373ffffffffffffffffffffffffffffffffffffffff1673ffffffffffffffffffffffffffffffffffffffff1681526020019081526020016000208190555061120e81611d86565b601160008373ffffffffffffffffffffffffffffffffffffffff1673ffffffffffffffffffffffffffffffffffffffff1681526020019081526020016000208190555043601060008373ffffffffffffffffffffffffffffffffffffffff1673ffffffffffffffffffffffffffffffffffffffff168152602001908152602001600020819055505b60085442101561130e576040517f08c379a00000000000000000000000000000000000000000000000000000000081526004018080602001828103825260098152602001807f6e6f74207374617274000000000000000000000000000000000000000000000081525060200191505060405180910390fd5b600061131933610809565b9050600061132633611d86565b90506000821115611412576000600e60003373ffffffffffffffffffffffffffffffffffffffff1673ffffffffffffffffffffffffffffffffffffffff168152602001908152602001600020819055506113c33383600560009054906101000a900473ffffffffffffffffffffffffffffffffffffffff1673ffffffffffffffffffffffffffffffffffffffff166121259092919063ffffffff16565b3373ffffffffffffffffffffffffffffffffffffffff167fe2403640ba68fed3a2f88b7557551d1993f84b99bb10ff833f0cf8db0c5e0486836040518082815260200191505060405180910390a25b6000811115611540576000601160003373ffffffffffffffffffffffffffffffffffffffff1673ffffffffffffffffffffffffffffffffffffffff1681526020019081526020016000208190555043601060003373ffffffffffffffffffffffffffffffffffffffff1673ffffffffffffffffffffffffffffffffffffffff168152602001908152602001600020819055506114f13382600660009054906101000a900473ffffffffffffffffffffffffffffffffffffffff1673ffffffffffffffffffffffffffffffffffffffff166121259092919063ffffffff16565b3373ffffffffffffffffffffffffffffffffffffffff167fe2403640ba68fed3a2f88b7557551d1993f84b99bb10ff833f0cf8db0c5e0486826040518082815260200191505060405180910390a25b505050565b6000600260008373ffffffffffffffffffffffffffffffffffffffff1673ffffffffffffffffffffffffffffffffffffffff168152602001908152602001600020549050919050565b61159661201f565b73ffffffffffffffffffffffffffffffffffffffff16600360009054906101000a900473ffffffffffffffffffffffffffffffffffffffff1673ffffffffffffffffffffffffffffffffffffffff1614611658576040517f08c379a00000000000000000000000000000000000000000000000000000000081526004018080602001828103825260208152602001807f4f776e61626c653a2063616c6c6572206973206e6f7420746865206f776e657281525060200191505060405180910390fd5b600073ffffffffffffffffffffffffffffffffffffffff16600360009054906101000a900473ffffffffffffffffffffffffffffffffffffffff1673ffffffffffffffffffffffffffffffffffffffff167f8be0079c531659141344cd1fd0a4f28419497f9722a3daafe3b4186f6b6457e060405160405180910390a36000600360006101000a81548173ffffffffffffffffffffffffffffffffffffffff021916908373ffffffffffffffffffffffffffffffffffffffff160217905550565b600660009054906101000a900473ffffffffffffffffffffffffffffffffffffffff1681565b600a5481565b6000611753426009546121c7565b905090565b60116020528060005260406000206000915090505481565b600d6020528060005260406000206000915090505481565b60106020528060005260406000206000915090505481565b60085481565b6000600360009054906101000a900473ffffffffffffffffffffffffffffffffffffffff16905090565b336117d9611a93565b600c819055506117e7611745565b600b81905550600073ffffffffffffffffffffffffffffffffffffffff168173ffffffffffffffffffffffffffffffffffffffff16146119445761182a81610809565b600e60008373ffffffffffffffffffffffffffffffffffffffff1673ffffffffffffffffffffffffffffffffffffffff16815260200190815260200160002081905550600c54600d60008373ffffffffffffffffffffffffffffffffffffffff1673ffffffffffffffffffffffffffffffffffffffff168152602001908152602001600020819055506118bc81611d86565b601160008373ffffffffffffffffffffffffffffffffffffffff1673ffffffffffffffffffffffffffffffffffffffff1681526020019081526020016000208190555043601060008373ffffffffffffffffffffffffffffffffffffffff1673ffffffffffffffffffffffffffffffffffffffff168152602001908152602001600020819055505b6008544210156119bc576040517f08c379a00000000000000000000000000000000000000000000000000000000081526004018080602001828103825260098152602001807f6e6f74207374617274000000000000000000000000000000000000000000000081525060200191505060405180910390fd5b60008211611a32576040517f08c379a000000000000000000000000000000000000000000000000000000000815260040180806020018281038252600e8152602001807f43616e6e6f74207374616b65203000000000000000000000000000000000000081525060200191505060405180910390fd5b611a3b826121e0565b3373ffffffffffffffffffffffffffffffffffffffff167f9e71bc8eea02a63969f509818f2dafb9254532904319f9dbda79b67bd34a5f3d836040518082815260200191505060405180910390a25050565b600b5481565b600080611a9e610a9d565b1415611aae57600c549050611b28565b611b25611b14611abc610a9d565b611b06670de0b6b3a7640000611af8600a54611aea600b54611adc611745565b611e7d90919063ffffffff16565b611ec790919063ffffffff16565b611ec790919063ffffffff16565b611f4d90919063ffffffff16565b600c54611f9790919063ffffffff16565b90505b90565b60008054906101000a900473ffffffffffffffffffffffffffffffffffffffff1681565b600c5481565b611b66611b6133611545565b610ad3565b611b6e611122565b565b60095481565b611b7e61201f565b73ffffffffffffffffffffffffffffffffffffffff16600360009054906101000a900473ffffffffffffffffffffffffffffffffffffffff1673ffffffffffffffffffffffffffffffffffffffff1614611c40576040517f08c379a00000000000000000000000000000000000000000000000000000000081526004018080602001828103825260208152602001807f4f776e61626c653a2063616c6c6572206973206e6f7420746865206f776e657281525060200191505060405180910390fd5b600073ffffffffffffffffffffffffffffffffffffffff168173ffffffffffffffffffffffffffffffffffffffff161415611cc6576040517f08c379a00000000000000000000000000000000000000000000000000000000081526004018080602001828103825260268152602001806128486026913960400191505060405180910390fd5b8073ffffffffffffffffffffffffffffffffffffffff16600360009054906101000a900473ffffffffffffffffffffffffffffffffffffffff1673ffffffffffffffffffffffffffffffffffffffff167f8be0079c531659141344cd1fd0a4f28419497f9722a3daafe3b4186f6b6457e060405160405180910390a380600360006101000a81548173ffffffffffffffffffffffffffffffffffffffff021916908373ffffffffffffffffffffffffffffffffffffffff16021790555050565b600080611d91610a9d565b1415611da05760009050611e78565b611e75601160008473ffffffffffffffffffffffffffffffffffffffff1673ffffffffffffffffffffffffffffffffffffffff16815260200190815260200160002054611e67670de0b6b3a7640000611e59611e42611e2b611e00610a9d565b611e1d670de0b6b3a7640000600f54611ec790919063ffffffff16565b611f4d90919063ffffffff16565b611e3489610908565b611ec790919063ffffffff16565b611e4b88611545565b611ec790919063ffffffff16565b611f4d90919063ffffffff16565b611f9790919063ffffffff16565b90505b919050565b6000611ebf83836040518060400160405280601e81526020017f536166654d6174683a207375627472616374696f6e206f766572666c6f7700008152506122e0565b905092915050565b600080831415611eda5760009050611f47565b6000828402905082848281611eeb57fe5b0414611f42576040517f08c379a000000000000000000000000000000000000000000000000000000000815260040180806020018281038252602181526020018061286e6021913960400191505060405180910390fd5b809150505b92915050565b6000611f8f83836040518060400160405280601a81526020017f536166654d6174683a206469766973696f6e206279207a65726f0000000000008152506123a0565b905092915050565b600080828401905083811015612015576040517f08c379a000000000000000000000000000000000000000000000000000000000815260040180806020018281038252601b8152602001807f536166654d6174683a206164646974696f6e206f766572666c6f77000000000081525060200191505060405180910390fd5b8091505092915050565b600033905090565b61203c81600154611e7d90919063ffffffff16565b60018190555061209481600260003373ffffffffffffffffffffffffffffffffffffffff1673ffffffffffffffffffffffffffffffffffffffff16815260200190815260200160002054611e7d90919063ffffffff16565b600260003373ffffffffffffffffffffffffffffffffffffffff1673ffffffffffffffffffffffffffffffffffffffff16815260200190815260200160002081905550612122338260008054906101000a900473ffffffffffffffffffffffffffffffffffffffff1673ffffffffffffffffffffffffffffffffffffffff166121259092919063ffffffff16565b50565b6121c28363a9059cbb60e01b8484604051602401808373ffffffffffffffffffffffffffffffffffffffff16815260200182815260200192505050604051602081830303815290604052907bffffffffffffffffffffffffffffffffffffffffffffffffffffffff19166020820180517bffffffffffffffffffffffffffffffffffffffffffffffffffffffff8381831617835250505050612466565b505050565b60008183106121d657816121d8565b825b905092915050565b6121f581600154611f9790919063ffffffff16565b60018190555061224d81600260003373ffffffffffffffffffffffffffffffffffffffff1673ffffffffffffffffffffffffffffffffffffffff16815260200190815260200160002054611f9790919063ffffffff16565b600260003373ffffffffffffffffffffffffffffffffffffffff1673ffffffffffffffffffffffffffffffffffffffff168152602001908152602001600020819055506122dd33308360008054906101000a900473ffffffffffffffffffffffffffffffffffffffff1673ffffffffffffffffffffffffffffffffffffffff16612555909392919063ffffffff16565b50565b600083831115829061238d576040517f08c379a00000000000000000000000000000000000000000000000000000000081526004018080602001828103825283818151815260200191508051906020019080838360005b83811015612352578082015181840152602081019050612337565b50505050905090810190601f16801561237f5780820380516001836020036101000a031916815260200191505b509250505060405180910390fd5b5060008385039050809150509392505050565b6000808311829061244c576040517f08c379a00000000000000000000000000000000000000000000000000000000081526004018080602001828103825283818151815260200191508051906020019080838360005b838110156124115780820151818401526020810190506123f6565b50505050905090810190601f16801561243e5780820380516001836020036101000a031916815260200191505b509250505060405180910390fd5b50600083858161245857fe5b049050809150509392505050565b60606124c8826040518060400160405280602081526020017f5361666545524332303a206c6f772d6c6576656c2063616c6c206661696c65648152508573ffffffffffffffffffffffffffffffffffffffff166126169092919063ffffffff16565b9050600081511115612550578080602001905160208110156124e957600080fd5b810190808051906020019092919050505061254f576040517f08c379a000000000000000000000000000000000000000000000000000000000815260040180806020018281038252602a8152602001806128b0602a913960400191505060405180910390fd5b5b505050565b612610846323b872dd60e01b858585604051602401808473ffffffffffffffffffffffffffffffffffffffff1681526020018373ffffffffffffffffffffffffffffffffffffffff1681526020018281526020019350505050604051602081830303815290604052907bffffffffffffffffffffffffffffffffffffffffffffffffffffffff19166020820180517bffffffffffffffffffffffffffffffffffffffffffffffffffffffff8381831617835250505050612466565b50505050565b6060612625848460008561262e565b90509392505050565b606061263985612834565b6126ab576040517f08c379a000000000000000000000000000000000000000000000000000000000815260040180806020018281038252601d8152602001807f416464726573733a2063616c6c20746f206e6f6e2d636f6e747261637400000081525060200191505060405180910390fd5b600060608673ffffffffffffffffffffffffffffffffffffffff1685876040518082805190602001908083835b602083106126fb57805182526020820191506020810190506020830392506126d8565b6001836020036101000a03801982511681845116808217855250505050505090500191505060006040518083038185875af1925050503d806000811461275d576040519150601f19603f3d011682016040523d82523d6000602084013e612762565b606091505b5091509150811561277757809250505061282c565b60008151111561278a5780518082602001fd5b836040517f08c379a00000000000000000000000000000000000000000000000000000000081526004018080602001828103825283818151815260200191508051906020019080838360005b838110156127f15780820151818401526020810190506127d6565b50505050905090810190601f16801561281e5780820380516001836020036101000a031916815260200191505b509250505060405180910390fd5b949350505050565b600080823b90506000811191505091905056fe4f776e61626c653a206e6577206f776e657220697320746865207a65726f2061646472657373536166654d6174683a206d756c7469706c69636174696f6e206f766572666c6f7743616c6c6572206973206e6f742072657761726420646973747269627574696f6e5361666545524332303a204552433230206f7065726174696f6e20646964206e6f742073756363656564a26469706673582212202ced3744b932f1ecf1cc4fe22d52a3097ba504fe2ab2dfa212b02d81e174489964736f6c634300060c0033",
  "immutableReferences": {},
  "source": "pragma solidity ^0.6.0;\n/**\n *Submitted for verification at Etherscan.io on 2020-07-17\n */\n\n/*\n   ____            __   __        __   _\n  / __/__ __ ___  / /_ / /  ___  / /_ (_)__ __\n _\\ \\ / // // _ \\/ __// _ \\/ -_)/ __// / \\ \\ /\n/___/ \\_, //_//_/\\__//_//_/\\__/ \\__//_/ /_\\_\\\n     /___/\n\n* Synthetix: FATCASHRewards.sol\n*\n* Docs: https://docs.synthetix.io/\n*\n*\n* MIT License\n* ===========\n*\n* Copyright (c) 2020 Synthetix\n*\n* Permission is hereby granted, free of charge, to any person obtaining a copy\n* of this software and associated documentation files (the \"Software\"), to deal\n* in the Software without restriction, including without limitation the rights\n* to use, copy, modify, merge, publish, distribute, sublicense, and/or sell\n* copies of the Software, and to permit persons to whom the Software is\n* furnished to do so, subject to the following conditions:\n*\n* The above copyright notice and this permission notice shall be included in all\n* copies or substantial portions of the Software.\n*\n* THE SOFTWARE IS PROVIDED \"AS IS\", WITHOUT WARRANTY OF ANY KIND, EXPRESS OR\n* IMPLIED, INCLUDING BUT NOT LIMITED TO THE WARRANTIES OF MERCHANTABILITY,\n* FITNESS FOR A PARTICULAR PURPOSE AND NONINFRINGEMENT. IN NO EVENT SHALL THE\n* AUTHORS OR COPYRIGHT HOLDERS BE LIABLE FOR ANY CLAIM, DAMAGES OR OTHER\n* LIABILITY, WHETHER IN AN ACTION OF CONTRACT, TORT OR OTHERWISE, ARISING FROM,\n* OUT OF OR IN CONNECTION WITH THE SOFTWARE OR THE USE OR OTHER DEALINGS IN THE\n*/\n\n// File: @openzeppelin/contracts/math/Math.sol\n\nimport '@openzeppelin/contracts/math/Math.sol';\n\n// File: @openzeppelin/contracts/math/SafeMath.sol\n\nimport '@openzeppelin/contracts/math/SafeMath.sol';\n\n// File: @openzeppelin/contracts/token/ERC20/IERC20.sol\n\nimport '@openzeppelin/contracts/token/ERC20/IERC20.sol';\n\n// File: @openzeppelin/contracts/utils/Address.sol\n\nimport '@openzeppelin/contracts/utils/Address.sol';\n\n// File: @openzeppelin/contracts/token/ERC20/SafeERC20.sol\n\nimport '@openzeppelin/contracts/token/ERC20/SafeERC20.sol';\n\n// File: contracts/IRewardDistributionRecipient.sol\n\nimport '../interfaces/IRewardDistributionRecipient.sol';\n\nimport '../token/LPTokenWrapper.sol';\n\ncontract USDTFATLPTokenCashPool is\nLPTokenWrapper,\nIRewardDistributionRecipient\n{\n    IERC20 public fatCash;\n    IERC20 public fatToken;\n    uint256 public DURATION = 5 days;\n\n    uint256 public starttime; // starttime TBD\n    uint256 public periodFinish = 0;\n    uint256 public rewardRate = 0;\n    uint256 public lastUpdateTime;\n    uint256 public rewardPerTokenStored;\n    mapping(address => uint256) public userRewardPerTokenPaid;\n    mapping(address => uint256) public rewards;\n\n    uint256 public reward_per_block = 12;  // 12 fat / 1 block\n    mapping(address => uint256) public userFatRewardDebtAtBlock; // the last block user stake\n    mapping(address => uint256) public fatRewards; // total user's fat rewards\n\n    event RewardAdded(uint256 reward);\n    event Staked(address indexed user, uint256 amount);\n    event Withdrawn(address indexed user, uint256 amount);\n    event RewardPaid(address indexed user, uint256 reward);\n\n    constructor(\n        address fatCash_,\n        address fatToken_,\n        address lptoken_,\n        uint256 starttime_\n    ) public {\n        fatCash = IERC20(fatCash_);\n        fatToken = IERC20(fatToken_);\n        lpt = IERC20(lptoken_);\n        starttime = starttime_;\n    }\n\n    modifier updateReward(address account) {\n        rewardPerTokenStored = rewardPerToken();\n        lastUpdateTime = lastTimeRewardApplicable();\n        if (account != address(0)) {\n            rewards[account] = earned(account);\n            userRewardPerTokenPaid[account] = rewardPerTokenStored;\n            fatRewards[account] = earned2(account);\n            userFatRewardDebtAtBlock[account] = block.number;\n        }\n        _;\n    }\n\n    function lastTimeRewardApplicable() public view returns (uint256) {\n        return Math.min(block.timestamp, periodFinish);\n    }\n\n    function lastBlockRewardApplicable(address account) public view returns (uint256) {\n        return block.number.sub(userFatRewardDebtAtBlock[account]);\n    }\n\n    function rewardPerToken() public view returns (uint256) {\n        if (totalSupply() == 0) {\n            return rewardPerTokenStored;\n        }\n        return\n        rewardPerTokenStored.add(\n            lastTimeRewardApplicable()\n            .sub(lastUpdateTime)\n            .mul(rewardRate)\n            .mul(1e18)\n            .div(totalSupply())\n        );\n    }\n\n    function earned(address account) public view returns (uint256) {\n        return\n        balanceOf(account)\n        .mul(rewardPerToken().sub(userRewardPerTokenPaid[account]))\n        .div(1e18)\n        .add(rewards[account]);\n    }\n\n    function earned2(address account) public view returns (uint256) {\n\n        if(totalSupply() == 0){\n            return 0;\n        }else{\n            return\n            balanceOf(account)\n            .mul(\n                lastBlockRewardApplicable(account).mul(\n                    reward_per_block.mul(1e18).div(totalSupply())\n                )\n            )\n            .div(1e18)\n            .add(fatRewards[account]);\n        }\n    }\n\n    // stake visibility is public as overriding LPTokenWrapper's stake() function\n    function stake(uint256 amount)\n    public\n    override\n    updateReward(msg.sender)\n    checkStart\n    {\n        require(amount > 0, 'Cannot stake 0');\n        super.stake(amount);\n        emit Staked(msg.sender, amount);\n    }\n\n    function withdraw(uint256 amount)\n    public\n    override\n    updateReward(msg.sender)\n    checkStart\n    {\n        require(amount > 0, 'Cannot withdraw 0');\n        super.withdraw(amount);\n        emit Withdrawn(msg.sender, amount);\n    }\n\n    function exit() external {\n        withdraw(balanceOf(msg.sender));\n        getReward();\n    }\n\n    function getReward() public updateReward(msg.sender) checkStart {\n        uint256 reward = earned(msg.sender);\n        uint256 fatReward = earned2(msg.sender);\n        if (reward > 0) {\n            rewards[msg.sender] = 0;\n            fatCash.safeTransfer(msg.sender, reward);\n            emit RewardPaid(msg.sender, reward);\n        }\n        if(fatReward > 0){\n            fatRewards[msg.sender] = 0;\n            userFatRewardDebtAtBlock[msg.sender] = block.number;\n            // The mining reward is FAT, sent to the contract caller\n            fatToken.safeTransfer(msg.sender, fatReward);\n            // Trigger sending reward event\n            emit RewardPaid(msg.sender, fatReward);\n        }\n    }\n\n    modifier checkStart() {\n        require(block.timestamp >= starttime, 'not start');\n        _;\n    }\n\n    function notifyRewardAmount(uint256 reward)\n    external\n    override\n    onlyRewardDistribution\n    updateReward(address(0))\n    {\n        if (block.timestamp > starttime) {\n            if (block.timestamp >= periodFinish) {\n                rewardRate = reward.div(DURATION);\n            } else {\n                uint256 remaining = periodFinish.sub(block.timestamp);\n                uint256 leftover = remaining.mul(rewardRate);\n                rewardRate = reward.add(leftover).div(DURATION);\n            }\n            lastUpdateTime = block.timestamp;\n            periodFinish = block.timestamp.add(DURATION);\n            emit RewardAdded(reward);\n        } else {\n            rewardRate = reward.div(DURATION);\n            lastUpdateTime = starttime;\n            periodFinish = starttime.add(DURATION);\n            emit RewardAdded(reward);\n        }\n    }\n}\n",
  "sourcePath": "/Volumes/Development/Workspace/farmbria/fat-protocol/contracts/distribution/USDTFATLPTokenCashPool.sol",
  "compiler": {
    "name": "solc",
    "version": "0.6.12+commit.27d51765.Emscripten.clang"
  },
  "schemaVersion": "3.3.3",
  "updatedAt": "2021-01-20T16:14:41.041Z",
  "devdoc": {
    "kind": "dev",
    "methods": {
      "owner()": {
        "details": "Returns the address of the current owner."
      },
      "renounceOwnership()": {
        "details": "Leaves the contract without owner. It will not be possible to call `onlyOwner` functions anymore. Can only be called by the current owner. NOTE: Renouncing ownership will leave the contract without an owner, thereby removing any functionality that is only available to the owner."
      },
      "transferOwnership(address)": {
        "details": "Transfers ownership of the contract to a new account (`newOwner`). Can only be called by the current owner."
      }
    },
    "version": 1
  },
  "userdoc": {
    "kind": "user",
    "methods": {},
    "version": 1
  }
}